{
  "_format": "hh-sol-artifact-1",
  "contractName": "TeamAmericaSlayers",
  "sourceName": "contracts/TeamAmericaSlayers.sol",
  "abi": [
    {
      "inputs": [
        {
          "internalType": "string[]",
          "name": "characterNames",
          "type": "string[]"
        },
        {
          "internalType": "string[]",
          "name": "chacterImageURIs",
          "type": "string[]"
        },
        {
          "internalType": "uint256[]",
          "name": "characterHP",
          "type": "uint256[]"
        },
        {
          "internalType": "uint256[]",
          "name": "characterAttackDmg",
          "type": "uint256[]"
        },
        {
          "internalType": "string",
          "name": "bossName",
          "type": "string"
        },
        {
          "internalType": "string",
          "name": "bossImageURI",
          "type": "string"
        },
        {
          "internalType": "uint256",
          "name": "bossHp",
          "type": "uint256"
        },
        {
          "internalType": "uint256",
          "name": "bossAttackDamage",
          "type": "uint256"
        }
      ],
      "stateMutability": "nonpayable",
      "type": "constructor"
    },
    {
      "anonymous": false,
      "inputs": [
        {
          "indexed": true,
          "internalType": "address",
          "name": "owner",
          "type": "address"
        },
        {
          "indexed": true,
          "internalType": "address",
          "name": "approved",
          "type": "address"
        },
        {
          "indexed": true,
          "internalType": "uint256",
          "name": "tokenId",
          "type": "uint256"
        }
      ],
      "name": "Approval",
      "type": "event"
    },
    {
      "anonymous": false,
      "inputs": [
        {
          "indexed": true,
          "internalType": "address",
          "name": "owner",
          "type": "address"
        },
        {
          "indexed": true,
          "internalType": "address",
          "name": "operator",
          "type": "address"
        },
        {
          "indexed": false,
          "internalType": "bool",
          "name": "approved",
          "type": "bool"
        }
      ],
      "name": "ApprovalForAll",
      "type": "event"
    },
    {
      "anonymous": false,
      "inputs": [
        {
          "indexed": false,
          "internalType": "address",
          "name": "player",
          "type": "address"
        },
        {
          "indexed": false,
          "internalType": "uint256",
          "name": "newBossHp",
          "type": "uint256"
        },
        {
          "indexed": false,
          "internalType": "uint256",
          "name": "newPlayerHp",
          "type": "uint256"
        }
      ],
      "name": "AttackComplete",
      "type": "event"
    },
    {
      "anonymous": false,
      "inputs": [
        {
          "indexed": false,
          "internalType": "address",
          "name": "minter",
          "type": "address"
        },
        {
          "indexed": false,
          "internalType": "uint256",
          "name": "tokenId",
          "type": "uint256"
        },
        {
          "indexed": false,
          "internalType": "uint256",
          "name": "characterIndex",
          "type": "uint256"
        }
      ],
      "name": "CharacterMinted",
      "type": "event"
    },
    {
      "anonymous": false,
      "inputs": [
        {
          "indexed": false,
          "internalType": "uint256",
          "name": "tokenId",
          "type": "uint256"
        }
      ],
      "name": "CharacterRevived",
      "type": "event"
    },
    {
      "anonymous": false,
      "inputs": [
        {
          "indexed": true,
          "internalType": "address",
          "name": "from",
          "type": "address"
        },
        {
          "indexed": true,
          "internalType": "address",
          "name": "to",
          "type": "address"
        },
        {
          "indexed": true,
          "internalType": "uint256",
          "name": "tokenId",
          "type": "uint256"
        }
      ],
      "name": "Transfer",
      "type": "event"
    },
    {
      "inputs": [
        {
          "internalType": "address",
          "name": "to",
          "type": "address"
        },
        {
          "internalType": "uint256",
          "name": "tokenId",
          "type": "uint256"
        }
      ],
      "name": "approve",
      "outputs": [],
      "stateMutability": "nonpayable",
      "type": "function"
    },
    {
      "inputs": [
        {
          "internalType": "uint256",
          "name": "",
          "type": "uint256"
        }
      ],
      "name": "assetToOwner",
      "outputs": [
        {
          "internalType": "address",
          "name": "",
          "type": "address"
        }
      ],
      "stateMutability": "view",
      "type": "function"
    },
    {
      "inputs": [
        {
          "internalType": "uint256",
          "name": "_tokenId",
          "type": "uint256"
        }
      ],
      "name": "attackBoss",
      "outputs": [],
      "stateMutability": "nonpayable",
      "type": "function"
    },
    {
      "inputs": [
        {
          "internalType": "address",
          "name": "owner",
          "type": "address"
        }
      ],
      "name": "balanceOf",
      "outputs": [
        {
          "internalType": "uint256",
          "name": "",
          "type": "uint256"
        }
      ],
      "stateMutability": "view",
      "type": "function"
    },
    {
      "inputs": [],
      "name": "bigBoss",
      "outputs": [
        {
          "internalType": "string",
          "name": "name",
          "type": "string"
        },
        {
          "internalType": "string",
          "name": "imageURI",
          "type": "string"
        },
        {
          "internalType": "uint256",
          "name": "hp",
          "type": "uint256"
        },
        {
          "internalType": "uint256",
          "name": "maxHp",
          "type": "uint256"
        },
        {
          "internalType": "uint256",
          "name": "attackDamage",
          "type": "uint256"
        }
      ],
      "stateMutability": "view",
      "type": "function"
    },
    {
      "inputs": [],
      "name": "getAllDefaultCharacters",
      "outputs": [
        {
          "components": [
            {
              "internalType": "uint256",
              "name": "characterIndex",
              "type": "uint256"
            },
            {
              "internalType": "string",
              "name": "name",
              "type": "string"
            },
            {
              "internalType": "string",
              "name": "imageURI",
              "type": "string"
            },
            {
              "internalType": "uint256",
              "name": "hp",
              "type": "uint256"
            },
            {
              "internalType": "uint256",
              "name": "maxHp",
              "type": "uint256"
            },
            {
              "internalType": "uint256",
              "name": "attackDamage",
              "type": "uint256"
            }
          ],
          "internalType": "struct TeamAmericaSlayers.Character[]",
          "name": "",
          "type": "tuple[]"
        }
      ],
      "stateMutability": "view",
      "type": "function"
    },
    {
      "inputs": [
        {
          "internalType": "uint256",
          "name": "tokenId",
          "type": "uint256"
        }
      ],
      "name": "getApproved",
      "outputs": [
        {
          "internalType": "address",
          "name": "",
          "type": "address"
        }
      ],
      "stateMutability": "view",
      "type": "function"
    },
    {
      "inputs": [],
      "name": "getBigBoss",
      "outputs": [
        {
          "components": [
            {
              "internalType": "string",
              "name": "name",
              "type": "string"
            },
            {
              "internalType": "string",
              "name": "imageURI",
              "type": "string"
            },
            {
              "internalType": "uint256",
              "name": "hp",
              "type": "uint256"
            },
            {
              "internalType": "uint256",
              "name": "maxHp",
              "type": "uint256"
            },
            {
              "internalType": "uint256",
              "name": "attackDamage",
              "type": "uint256"
            }
          ],
          "internalType": "struct TeamAmericaSlayers.BigBoss",
          "name": "",
          "type": "tuple"
        }
      ],
      "stateMutability": "view",
      "type": "function"
    },
    {
      "inputs": [
        {
          "internalType": "uint256",
          "name": "_id",
          "type": "uint256"
        }
      ],
      "name": "getCharacter",
      "outputs": [
        {
          "components": [
            {
              "internalType": "uint256",
              "name": "characterIndex",
              "type": "uint256"
            },
            {
              "internalType": "string",
              "name": "name",
              "type": "string"
            },
            {
              "internalType": "string",
              "name": "imageURI",
              "type": "string"
            },
            {
              "internalType": "uint256",
              "name": "hp",
              "type": "uint256"
            },
            {
              "internalType": "uint256",
              "name": "maxHp",
              "type": "uint256"
            },
            {
              "internalType": "uint256",
              "name": "attackDamage",
              "type": "uint256"
            }
          ],
          "internalType": "struct TeamAmericaSlayers.Character",
          "name": "",
          "type": "tuple"
        }
      ],
      "stateMutability": "view",
      "type": "function"
    },
    {
      "inputs": [
        {
          "internalType": "address",
          "name": "_owner",
          "type": "address"
        }
      ],
      "name": "getListOfOwnedCharacters",
      "outputs": [
        {
          "internalType": "uint256[]",
          "name": "",
          "type": "uint256[]"
        }
      ],
      "stateMutability": "view",
      "type": "function"
    },
    {
      "inputs": [
        {
          "internalType": "address",
          "name": "owner",
          "type": "address"
        },
        {
          "internalType": "address",
          "name": "operator",
          "type": "address"
        }
      ],
      "name": "isApprovedForAll",
      "outputs": [
        {
          "internalType": "bool",
          "name": "",
          "type": "bool"
        }
      ],
      "stateMutability": "view",
      "type": "function"
    },
    {
      "inputs": [
        {
          "internalType": "uint256",
          "name": "_characterIndex",
          "type": "uint256"
        }
      ],
      "name": "mintNewCharacterNFT",
      "outputs": [],
      "stateMutability": "nonpayable",
      "type": "function"
    },
    {
      "inputs": [],
      "name": "name",
      "outputs": [
        {
          "internalType": "string",
          "name": "",
          "type": "string"
        }
      ],
      "stateMutability": "view",
      "type": "function"
    },
    {
      "inputs": [
        {
          "internalType": "uint256",
          "name": "",
          "type": "uint256"
        }
      ],
      "name": "nftCharacterAttributes",
      "outputs": [
        {
          "internalType": "uint256",
          "name": "characterIndex",
          "type": "uint256"
        },
        {
          "internalType": "string",
          "name": "name",
          "type": "string"
        },
        {
          "internalType": "string",
          "name": "imageURI",
          "type": "string"
        },
        {
          "internalType": "uint256",
          "name": "hp",
          "type": "uint256"
        },
        {
          "internalType": "uint256",
          "name": "maxHp",
          "type": "uint256"
        },
        {
          "internalType": "uint256",
          "name": "attackDamage",
          "type": "uint256"
        }
      ],
      "stateMutability": "view",
      "type": "function"
    },
    {
      "inputs": [
        {
          "internalType": "uint256",
          "name": "tokenId",
          "type": "uint256"
        }
      ],
      "name": "ownerOf",
      "outputs": [
        {
          "internalType": "address",
          "name": "",
          "type": "address"
        }
      ],
      "stateMutability": "view",
      "type": "function"
    },
    {
      "inputs": [
        {
          "internalType": "uint256",
          "name": "_id",
          "type": "uint256"
        }
      ],
      "name": "reviveCharacter",
      "outputs": [],
      "stateMutability": "nonpayable",
      "type": "function"
    },
    {
      "inputs": [
        {
          "internalType": "address",
          "name": "from",
          "type": "address"
        },
        {
          "internalType": "address",
          "name": "to",
          "type": "address"
        },
        {
          "internalType": "uint256",
          "name": "tokenId",
          "type": "uint256"
        }
      ],
      "name": "safeTransferFrom",
      "outputs": [],
      "stateMutability": "nonpayable",
      "type": "function"
    },
    {
      "inputs": [
        {
          "internalType": "address",
          "name": "from",
          "type": "address"
        },
        {
          "internalType": "address",
          "name": "to",
          "type": "address"
        },
        {
          "internalType": "uint256",
          "name": "tokenId",
          "type": "uint256"
        },
        {
          "internalType": "bytes",
          "name": "_data",
          "type": "bytes"
        }
      ],
      "name": "safeTransferFrom",
      "outputs": [],
      "stateMutability": "nonpayable",
      "type": "function"
    },
    {
      "inputs": [
        {
          "internalType": "address",
          "name": "operator",
          "type": "address"
        },
        {
          "internalType": "bool",
          "name": "approved",
          "type": "bool"
        }
      ],
      "name": "setApprovalForAll",
      "outputs": [],
      "stateMutability": "nonpayable",
      "type": "function"
    },
    {
      "inputs": [
        {
          "internalType": "bytes4",
          "name": "interfaceId",
          "type": "bytes4"
        }
      ],
      "name": "supportsInterface",
      "outputs": [
        {
          "internalType": "bool",
          "name": "",
          "type": "bool"
        }
      ],
      "stateMutability": "view",
      "type": "function"
    },
    {
      "inputs": [],
      "name": "symbol",
      "outputs": [
        {
          "internalType": "string",
          "name": "",
          "type": "string"
        }
      ],
      "stateMutability": "view",
      "type": "function"
    },
    {
      "inputs": [
        {
          "internalType": "uint256",
          "name": "_tokenId",
          "type": "uint256"
        }
      ],
      "name": "tokenURI",
      "outputs": [
        {
          "internalType": "string",
          "name": "",
          "type": "string"
        }
      ],
      "stateMutability": "view",
      "type": "function"
    },
    {
      "inputs": [
        {
          "internalType": "address",
          "name": "from",
          "type": "address"
        },
        {
          "internalType": "address",
          "name": "to",
          "type": "address"
        },
        {
          "internalType": "uint256",
          "name": "tokenId",
          "type": "uint256"
        }
      ],
      "name": "transferFrom",
      "outputs": [],
      "stateMutability": "nonpayable",
      "type": "function"
    }
  ],
  "bytecode": "0x60806040523480156200001157600080fd5b5060405162006b8c38038062006b8c833981810160405281019062000037919062000aaa565b6040518060400160405280601481526020017f5465616d20416d657269636120536c61796572730000000000000000000000008152506040518060400160405280600381526020017f54415300000000000000000000000000000000000000000000000000000000008152508160009080519060200190620000bb9291906200083d565b508060019080519060200190620000d49291906200083d565b5050506200010660405180606001604052806025815260200162006b3860259139620006b260201b620027cd1760201c565b6040518060a0016040528085815260200184815260200183815260200183815260200182815250600660008201518160000190805190602001906200014d9291906200083d565b5060208201518160010190805190602001906200016c9291906200083d565b50604082015181600201556060820151816003015560808201518160040155905050620002596040518060600160405280602f815260200162006b5d602f913960066000018054620001be9062000e42565b80601f0160208091040260200160405190810160405280929190818152602001828054620001ec9062000e42565b80156200023d5780601f1062000211576101008083540402835291602001916200023d565b820191906000526020600020905b8154815290600101906020018083116200021f57829003601f168201915b50505050506006600201546200075560201b620028661760201c565b60005b88518110156200068c57600c6040518060c001604052808381526020018b8481518110620002b3577f4e487b7100000000000000000000000000000000000000000000000000000000600052603260045260246000fd5b602002602001015181526020018a8481518110620002fa577f4e487b7100000000000000000000000000000000000000000000000000000000600052603260045260246000fd5b6020026020010151815260200189848151811062000341577f4e487b7100000000000000000000000000000000000000000000000000000000600052603260045260246000fd5b6020026020010151815260200189848151811062000388577f4e487b7100000000000000000000000000000000000000000000000000000000600052603260045260246000fd5b60200260200101518152602001888481518110620003cf577f4e487b7100000000000000000000000000000000000000000000000000000000600052603260045260246000fd5b602002602001015181525090806001815401808255809150506001900390600052602060002090600602016000909190919091506000820151816000015560208201518160010190805190602001906200042b9291906200083d565b5060408201518160020190805190602001906200044a9291906200083d565b50606082015181600301556080820151816004015560a0820151816005015550506000600c8281548110620004a8577f4e487b7100000000000000000000000000000000000000000000000000000000600052603260045260246000fd5b90600052602060002090600602016040518060c001604052908160008201548152602001600182018054620004dd9062000e42565b80601f01602080910402602001604051908101604052809291908181526020018280546200050b9062000e42565b80156200055c5780601f1062000530576101008083540402835291602001916200055c565b820191906000526020600020905b8154815290600101906020018083116200053e57829003601f168201915b50505050508152602001600282018054620005779062000e42565b80601f0160208091040260200160405190810160405280929190818152602001828054620005a59062000e42565b8015620005f65780601f10620005ca57610100808354040283529160200191620005f6565b820191906000526020600020905b815481529060010190602001808311620005d857829003601f168201915b5050505050815260200160038201548152602001600482015481526020016005820154815250509050620006746040518060400160405280601781526020017f496e697469616c697a656420257320772f202573204850000000000000000000815250826020015183606001516200075560201b620028661760201c565b5060018162000684919062000da5565b90506200025c565b50620006a4600b620007fe60201b620029051760201c565b505050505050505062000f30565b6200075281604051602401620006c9919062000c55565b6040516020818303038152906040527f41304fac000000000000000000000000000000000000000000000000000000007bffffffffffffffffffffffffffffffffffffffffffffffffffffffff19166020820180517bffffffffffffffffffffffffffffffffffffffffffffffffffffffff83818316178352505050506200081460201b60201c565b50565b620007f9838383604051602401620007709392919062000c79565b6040516020818303038152906040527ff362ca59000000000000000000000000000000000000000000000000000000007bffffffffffffffffffffffffffffffffffffffffffffffffffffffff19166020820180517bffffffffffffffffffffffffffffffffffffffffffffffffffffffff83818316178352505050506200081460201b60201c565b505050565b6001816000016000828254019250508190555050565b60008151905060006a636f6e736f6c652e6c6f679050602083016000808483855afa5050505050565b8280546200084b9062000e42565b90600052602060002090601f0160209004810192826200086f5760008555620008bb565b82601f106200088a57805160ff1916838001178555620008bb565b82800160010185558215620008bb579182015b82811115620008ba5782518255916020019190600101906200089d565b5b509050620008ca9190620008ce565b5090565b5b80821115620008e9576000816000905550600101620008cf565b5090565b600062000904620008fe8462000cf8565b62000cc4565b9050808382526020820190508260005b858110156200094857815185016200092d888262000a66565b84526020840193506020830192505060018101905062000914565b5050509392505050565b600062000969620009638462000d27565b62000cc4565b905080838252602082019050828560208602820111156200098957600080fd5b60005b85811015620009bd5781620009a2888262000a93565b8452602084019350602083019250506001810190506200098c565b5050509392505050565b6000620009de620009d88462000d56565b62000cc4565b905082815260208101848484011115620009f757600080fd5b62000a0484828562000e0c565b509392505050565b600082601f83011262000a1e57600080fd5b815162000a30848260208601620008ed565b91505092915050565b600082601f83011262000a4b57600080fd5b815162000a5d84826020860162000952565b91505092915050565b600082601f83011262000a7857600080fd5b815162000a8a848260208601620009c7565b91505092915050565b60008151905062000aa48162000f16565b92915050565b600080600080600080600080610100898b03121562000ac857600080fd5b600089015167ffffffffffffffff81111562000ae357600080fd5b62000af18b828c0162000a0c565b985050602089015167ffffffffffffffff81111562000b0f57600080fd5b62000b1d8b828c0162000a0c565b975050604089015167ffffffffffffffff81111562000b3b57600080fd5b62000b498b828c0162000a39565b965050606089015167ffffffffffffffff81111562000b6757600080fd5b62000b758b828c0162000a39565b955050608089015167ffffffffffffffff81111562000b9357600080fd5b62000ba18b828c0162000a66565b94505060a089015167ffffffffffffffff81111562000bbf57600080fd5b62000bcd8b828c0162000a66565b93505060c062000be08b828c0162000a93565b92505060e062000bf38b828c0162000a93565b9150509295985092959890939650565b600062000c108262000d89565b62000c1c818562000d94565b935062000c2e81856020860162000e0c565b62000c398162000f05565b840191505092915050565b62000c4f8162000e02565b82525050565b6000602082019050818103600083015262000c71818462000c03565b905092915050565b6000606082019050818103600083015262000c95818662000c03565b9050818103602083015262000cab818562000c03565b905062000cbc604083018462000c44565b949350505050565b6000604051905081810181811067ffffffffffffffff8211171562000cee5762000ced62000ed6565b5b8060405250919050565b600067ffffffffffffffff82111562000d165762000d1562000ed6565b5b602082029050602081019050919050565b600067ffffffffffffffff82111562000d455762000d4462000ed6565b5b602082029050602081019050919050565b600067ffffffffffffffff82111562000d745762000d7362000ed6565b5b601f19601f8301169050602081019050919050565b600081519050919050565b600082825260208201905092915050565b600062000db28262000e02565b915062000dbf8362000e02565b9250827fffffffffffffffffffffffffffffffffffffffffffffffffffffffffffffffff0382111562000df75762000df662000e78565b5b828201905092915050565b6000819050919050565b60005b8381101562000e2c57808201518184015260208101905062000e0f565b8381111562000e3c576000848401525b50505050565b6000600282049050600182168062000e5b57607f821691505b6020821081141562000e725762000e7162000ea7565b5b50919050565b7f4e487b7100000000000000000000000000000000000000000000000000000000600052601160045260246000fd5b7f4e487b7100000000000000000000000000000000000000000000000000000000600052602260045260246000fd5b7f4e487b7100000000000000000000000000000000000000000000000000000000600052604160045260246000fd5b6000601f19601f8301169050919050565b62000f218162000e02565b811462000f2d57600080fd5b50565b615bf88062000f406000396000f3fe608060405234801561001057600080fd5b506004361061014d5760003560e01c80636a49488f116100c3578063a9c326791161007c578063a9c32679146103c5578063b88d4fde146103e7578063b953084e14610403578063c87b56dd14610421578063dabb053114610451578063e985e9c5146104815761014d565b80636a49488f146102da57806370a08231146102f657806385fd678c1461032657806395d89b41146103565780639a40e19914610374578063a22cb465146103a95761014d565b8063095ea7b311610115578063095ea7b31461020a57806318e594a61461022657806323b872dd14610256578063381ed0b81461027257806342842e0e1461028e5780636352211e146102aa5761014d565b806301ffc9a7146101525780630619f932146101825780630665f9611461019e57806306fdde03146101bc578063081812fc146101da575b600080fd5b61016c60048036038101906101679190613f1e565b6104b1565b6040516101799190614fc0565b60405180910390f35b61019c60048036038101906101979190613f70565b610593565b005b6101a6610dcb565b6040516101b3919061543a565b60405180910390f35b6101c4610f27565b6040516101d19190614fdb565b60405180910390f35b6101f460048036038101906101ef9190613f70565b610fb9565b6040516102019190614ede565b60405180910390f35b610224600480360381019061021f9190613ee2565b61103e565b005b610240600480360381019061023b9190613d77565b611156565b60405161024d9190614f9e565b60405180910390f35b610270600480360381019061026b9190613ddc565b6112f8565b005b61028c60048036038101906102879190613f70565b611358565b005b6102a860048036038101906102a39190613ddc565b6119e3565b005b6102c460048036038101906102bf9190613f70565b611a03565b6040516102d19190614ede565b60405180910390f35b6102f460048036038101906102ef9190613f70565b611ab5565b005b610310600480360381019061030b9190613d77565b611c1a565b60405161031d919061547e565b60405180910390f35b610340600480360381019061033b9190613f70565b611cd2565b60405161034d9190614ede565b60405180910390f35b61035e611d05565b60405161036b9190614fdb565b60405180910390f35b61038e60048036038101906103899190613f70565b611d97565b6040516103a096959493929190615499565b60405180910390f35b6103c360048036038101906103be9190613ea6565b611ee3565b005b6103cd612064565b6040516103de9594939291906150e1565b60405180910390f35b61040160048036038101906103fc9190613e2b565b612198565b005b61040b6121fa565b6040516104189190614f7c565b60405180910390f35b61043b60048036038101906104369190613f70565b6123a5565b6040516104489190614fdb565b60405180910390f35b61046b60048036038101906104669190613f70565b6125c0565b604051610478919061545c565b60405180910390f35b61049b60048036038101906104969190613da0565b612739565b6040516104a89190614fc0565b60405180910390f35b60007f80ac58cd000000000000000000000000000000000000000000000000000000007bffffffffffffffffffffffffffffffffffffffffffffffffffffffff1916827bffffffffffffffffffffffffffffffffffffffffffffffffffffffff1916148061057c57507f5b5e139f000000000000000000000000000000000000000000000000000000007bffffffffffffffffffffffffffffffffffffffffffffffffffffffff1916827bffffffffffffffffffffffffffffffffffffffffffffffffffffffff1916145b8061058c575061058b8261291b565b5b9050919050565b3373ffffffffffffffffffffffffffffffffffffffff166010600083815260200190815260200160002060009054906101000a900473ffffffffffffffffffffffffffffffffffffffff1673ffffffffffffffffffffffffffffffffffffffff1614610634576040517f08c379a000000000000000000000000000000000000000000000000000000000815260040161062b9061527a565b60405180910390fd5b6000600f60008381526020019081526020016000209050610703604051806080016040528060548152602001615a9f60549139826001018054610676906157fa565b80601f01602080910402602001604051908101604052809291908181526020018280546106a2906157fa565b80156106ef5780601f106106c4576101008083540402835291602001916106ef565b820191906000526020600020905b8154815290600101906020018083116106d257829003601f168201915b505050505083600301548460050154612985565b6107be604051806060016040528060228152602001615ba1602291396006600001805461072f906157fa565b80601f016020809104026020016040519081016040528092919081815260200182805461075b906157fa565b80156107a85780601f1061077d576101008083540402835291602001916107a8565b820191906000526020600020905b81548152906001019060200180831161078b57829003601f168201915b5050505050600660020154600660040154612985565b6000816003015411610805576040517f08c379a00000000000000000000000000000000000000000000000000000000081526004016107fc906151da565b60405180910390fd5b60006006600201541161084d576040517f08c379a00000000000000000000000000000000000000000000000000000000081526004016108449061525a565b60405180910390fd5b8060050154600660020154101561086e57600060066002018190555061088d565b80600501546006600201546108839190615710565b6006600201819055505b600660040154816003015410156108ad57600081600301819055506108cb565b60066004015481600301546108c29190615710565b81600301819055505b600081600301541415610a1957610a14604051806060016040528060218152602001615a1260219139826001018054610903906157fa565b80601f016020809104026020016040519081016040528092919081815260200182805461092f906157fa565b801561097c5780601f106109515761010080835404028352916020019161097c565b820191906000526020600020905b81548152906001019060200180831161095f57829003601f168201915b505050505060066000018054610991906157fa565b80601f01602080910402602001604051908101604052809291908181526020018280546109bd906157fa565b8015610a0a5780601f106109df57610100808354040283529160200191610a0a565b820191906000526020600020905b8154815290600101906020018083116109ed57829003601f168201915b5050505050612a27565b610d83565b60006006600201541415610b6857610b636040518060800160405280604281526020016159d060429139826001018054610a52906157fa565b80601f0160208091040260200160405190810160405280929190818152602001828054610a7e906157fa565b8015610acb5780601f10610aa057610100808354040283529160200191610acb565b820191906000526020600020905b815481529060010190602001808311610aae57829003601f168201915b505050505060066000018054610ae0906157fa565b80601f0160208091040260200160405190810160405280929190818152602001828054610b0c906157fa565b8015610b595780601f10610b2e57610100808354040283529160200191610b59565b820191906000526020600020905b815481529060010190602001808311610b3c57829003601f168201915b5050505050612a27565b610d82565b6000600660020154148015610b81575060008160030154145b15610cc757610cc26040518060800160405280604d8152602001615af3604d913960066000018054610bb2906157fa565b80601f0160208091040260200160405190810160405280929190818152602001828054610bde906157fa565b8015610c2b5780601f10610c0057610100808354040283529160200191610c2b565b820191906000526020600020905b815481529060010190602001808311610c0e57829003601f168201915b5050505050836001018054610c3f906157fa565b80601f0160208091040260200160405190810160405280929190818152602001828054610c6b906157fa565b8015610cb85780601f10610c8d57610100808354040283529160200191610cb8565b820191906000526020600020905b815481529060010190602001808311610c9b57829003601f168201915b5050505050612a27565b610d81565b610d806040518060a0016040528060618152602001615b4060619139600660020154836001018054610cf8906157fa565b80601f0160208091040260200160405190810160405280929190818152602001828054610d24906157fa565b8015610d715780601f10610d4657610100808354040283529160200191610d71565b820191906000526020600020905b815481529060010190602001808311610d5457829003601f168201915b50505050508460030154612ac6565b5b5b5b7f32bd565ee3f2cb5ddd742bbecd6048d3e9abe90b3827a40c2b72d232e71e3c9d336006600201548360030154604051610dbf93929190614f45565b60405180910390a15050565b610dd3613b11565b60066040518060a0016040529081600082018054610df0906157fa565b80601f0160208091040260200160405190810160405280929190818152602001828054610e1c906157fa565b8015610e695780601f10610e3e57610100808354040283529160200191610e69565b820191906000526020600020905b815481529060010190602001808311610e4c57829003601f168201915b50505050508152602001600182018054610e82906157fa565b80601f0160208091040260200160405190810160405280929190818152602001828054610eae906157fa565b8015610efb5780601f10610ed057610100808354040283529160200191610efb565b820191906000526020600020905b815481529060010190602001808311610ede57829003601f168201915b505050505081526020016002820154815260200160038201548152602001600482015481525050905090565b606060008054610f36906157fa565b80601f0160208091040260200160405190810160405280929190818152602001828054610f62906157fa565b8015610faf5780601f10610f8457610100808354040283529160200191610faf565b820191906000526020600020905b815481529060010190602001808311610f9257829003601f168201915b5050505050905090565b6000610fc482612b68565b611003576040517f08c379a0000000000000000000000000000000000000000000000000000000008152600401610ffa9061539a565b60405180910390fd5b6004600083815260200190815260200160002060009054906101000a900473ffffffffffffffffffffffffffffffffffffffff169050919050565b600061104982611a03565b90508073ffffffffffffffffffffffffffffffffffffffff168373ffffffffffffffffffffffffffffffffffffffff1614156110ba576040517f08c379a00000000000000000000000000000000000000000000000000000000081526004016110b1906153da565b60405180910390fd5b8073ffffffffffffffffffffffffffffffffffffffff166110d9612bd4565b73ffffffffffffffffffffffffffffffffffffffff161480611108575061110781611102612bd4565b612739565b5b611147576040517f08c379a000000000000000000000000000000000000000000000000000000000815260040161113e9061531a565b60405180910390fd5b6111518383612bdc565b505050565b60606000601160008473ffffffffffffffffffffffffffffffffffffffff1673ffffffffffffffffffffffffffffffffffffffff1681526020019081526020016000205467ffffffffffffffff8111156111d9577f4e487b7100000000000000000000000000000000000000000000000000000000600052604160045260246000fd5b6040519080825280602002602001820160405280156112075781602001602082028036833780820191505090505b509050600080600190505b600d8054905081116112ed578473ffffffffffffffffffffffffffffffffffffffff166010600083815260200190815260200160002060009054906101000a900473ffffffffffffffffffffffffffffffffffffffff1673ffffffffffffffffffffffffffffffffffffffff1614156112da57808383815181106112bf577f4e487b7100000000000000000000000000000000000000000000000000000000600052603260045260246000fd5b60200260200101818152505081806112d69061582c565b9250505b80806112e59061582c565b915050611212565b508192505050919050565b611309611303612bd4565b82612c95565b611348576040517f08c379a000000000000000000000000000000000000000000000000000000000815260040161133f906153fa565b60405180910390fd5b611353838383612d73565b505050565b6000151561136582612fcf565b1515146113a7576040517f08c379a000000000000000000000000000000000000000000000000000000000815260040161139e906151fa565b60405180910390fd5b60006113b3600b613268565b90506113bf3382613276565b6040518060c00160405280838152602001600c848154811061140a577f4e487b7100000000000000000000000000000000000000000000000000000000600052603260045260246000fd5b90600052602060002090600602016001018054611426906157fa565b80601f0160208091040260200160405190810160405280929190818152602001828054611452906157fa565b801561149f5780601f106114745761010080835404028352916020019161149f565b820191906000526020600020905b81548152906001019060200180831161148257829003601f168201915b50505050508152602001600c84815481106114e3577f4e487b7100000000000000000000000000000000000000000000000000000000600052603260045260246000fd5b906000526020600020906006020160020180546114ff906157fa565b80601f016020809104026020016040519081016040528092919081815260200182805461152b906157fa565b80156115785780601f1061154d57610100808354040283529160200191611578565b820191906000526020600020905b81548152906001019060200180831161155b57829003601f168201915b50505050508152602001600c84815481106115bc577f4e487b7100000000000000000000000000000000000000000000000000000000600052603260045260246000fd5b9060005260206000209060060201600301548152602001600c848154811061160d577f4e487b7100000000000000000000000000000000000000000000000000000000600052603260045260246000fd5b9060005260206000209060060201600401548152602001600c848154811061165e577f4e487b7100000000000000000000000000000000000000000000000000000000600052603260045260246000fd5b906000526020600020906006020160050154815250600f60008381526020019081526020016000206000820151816000015560208201518160010190805190602001906116ac929190613b40565b5060408201518160020190805190602001906116c9929190613b40565b50606082015181600301556080820151816004015560a082015181600501559050506117e16040518060600160405280602c8152602001615a33602c913982600c8581548110611742577f4e487b7100000000000000000000000000000000000000000000000000000000600052603260045260246000fd5b9060005260206000209060060201600101805461175e906157fa565b80601f016020809104026020016040519081016040528092919081815260200182805461178a906157fa565b80156117d75780601f106117ac576101008083540402835291602001916117d7565b820191906000526020600020905b8154815290600101906020018083116117ba57829003601f168201915b5050505050613294565b336010600083815260200190815260200160002060006101000a81548173ffffffffffffffffffffffffffffffffffffffff021916908373ffffffffffffffffffffffffffffffffffffffff1602179055506118866001601160003373ffffffffffffffffffffffffffffffffffffffff1673ffffffffffffffffffffffffffffffffffffffff1681526020019081526020016000205461333390919063ffffffff16565b601160003373ffffffffffffffffffffffffffffffffffffffff1673ffffffffffffffffffffffffffffffffffffffff16815260200190815260200160002081905550600d600f60008381526020019081526020016000209080600181540180825580915050600190039060005260206000209060060201600090919091909150600082015481600001556001820181600101908054611925906157fa565b611930929190613bc6565b506002820181600201908054611945906157fa565b611950929190613bc6565b506003820154816003015560048201548160040155600582015481600501555050600e8190806001815401808255809150506001900390600052602060002001600090919091909150556119a4600b612905565b7f9ebada08c3c21c172cc2a10a368461cde692195ac0db54584007867b48b68b1b3382846040516119d793929190614f45565b60405180910390a15050565b6119fe83838360405180602001604052806000815250612198565b505050565b6000806002600084815260200190815260200160002060009054906101000a900473ffffffffffffffffffffffffffffffffffffffff169050600073ffffffffffffffffffffffffffffffffffffffff168173ffffffffffffffffffffffffffffffffffffffff161415611aac576040517f08c379a0000000000000000000000000000000000000000000000000000000008152600401611aa39061535a565b60405180910390fd5b80915050919050565b3373ffffffffffffffffffffffffffffffffffffffff166010600083815260200190815260200160002060009054906101000a900473ffffffffffffffffffffffffffffffffffffffff1673ffffffffffffffffffffffffffffffffffffffff1614611b56576040517f08c379a0000000000000000000000000000000000000000000000000000000008152600401611b4d9061541a565b60405180910390fd5b6000600f60008381526020019081526020016000206003015414611baf576040517f08c379a0000000000000000000000000000000000000000000000000000000008152600401611ba6906152fa565b60405180910390fd5b600f600082815260200190815260200160002060040154600f6000838152602001908152602001600020600301819055507f2b083734c6e7bb17575e0ac9791a793b4fbe75925a544c36083782f8fe1eb78f81604051611c0f919061547e565b60405180910390a150565b60008073ffffffffffffffffffffffffffffffffffffffff168273ffffffffffffffffffffffffffffffffffffffff161415611c8b576040517f08c379a0000000000000000000000000000000000000000000000000000000008152600401611c829061533a565b60405180910390fd5b600360008373ffffffffffffffffffffffffffffffffffffffff1673ffffffffffffffffffffffffffffffffffffffff168152602001908152602001600020549050919050565b60106020528060005260406000206000915054906101000a900473ffffffffffffffffffffffffffffffffffffffff1681565b606060018054611d14906157fa565b80601f0160208091040260200160405190810160405280929190818152602001828054611d40906157fa565b8015611d8d5780601f10611d6257610100808354040283529160200191611d8d565b820191906000526020600020905b815481529060010190602001808311611d7057829003601f168201915b5050505050905090565b600f602052806000526040600020600091509050806000015490806001018054611dc0906157fa565b80601f0160208091040260200160405190810160405280929190818152602001828054611dec906157fa565b8015611e395780601f10611e0e57610100808354040283529160200191611e39565b820191906000526020600020905b815481529060010190602001808311611e1c57829003601f168201915b505050505090806002018054611e4e906157fa565b80601f0160208091040260200160405190810160405280929190818152602001828054611e7a906157fa565b8015611ec75780601f10611e9c57610100808354040283529160200191611ec7565b820191906000526020600020905b815481529060010190602001808311611eaa57829003601f168201915b5050505050908060030154908060040154908060050154905086565b611eeb612bd4565b73ffffffffffffffffffffffffffffffffffffffff168273ffffffffffffffffffffffffffffffffffffffff161415611f59576040517f08c379a0000000000000000000000000000000000000000000000000000000008152600401611f50906152ba565b60405180910390fd5b8060056000611f66612bd4565b73ffffffffffffffffffffffffffffffffffffffff1673ffffffffffffffffffffffffffffffffffffffff16815260200190815260200160002060008473ffffffffffffffffffffffffffffffffffffffff1673ffffffffffffffffffffffffffffffffffffffff16815260200190815260200160002060006101000a81548160ff0219169083151502179055508173ffffffffffffffffffffffffffffffffffffffff16612013612bd4565b73ffffffffffffffffffffffffffffffffffffffff167f17307eab39ab6107e8899845ad3d59bd9653f200f220920489ca2b5937696c31836040516120589190614fc0565b60405180910390a35050565b6006806000018054612075906157fa565b80601f01602080910402602001604051908101604052809291908181526020018280546120a1906157fa565b80156120ee5780601f106120c3576101008083540402835291602001916120ee565b820191906000526020600020905b8154815290600101906020018083116120d157829003601f168201915b505050505090806001018054612103906157fa565b80601f016020809104026020016040519081016040528092919081815260200182805461212f906157fa565b801561217c5780601f106121515761010080835404028352916020019161217c565b820191906000526020600020905b81548152906001019060200180831161215f57829003601f168201915b5050505050908060020154908060030154908060040154905085565b6121a96121a3612bd4565b83612c95565b6121e8576040517f08c379a00000000000000000000000000000000000000000000000000000000081526004016121df906153fa565b60405180910390fd5b6121f484848484613349565b50505050565b6060600c805480602002602001604051908101604052809291908181526020016000905b8282101561239c57838290600052602060002090600602016040518060c00160405290816000820154815260200160018201805461225b906157fa565b80601f0160208091040260200160405190810160405280929190818152602001828054612287906157fa565b80156122d45780601f106122a9576101008083540402835291602001916122d4565b820191906000526020600020905b8154815290600101906020018083116122b757829003601f168201915b505050505081526020016002820180546122ed906157fa565b80601f0160208091040260200160405190810160405280929190818152602001828054612319906157fa565b80156123665780601f1061233b57610100808354040283529160200191612366565b820191906000526020600020905b81548152906001019060200180831161234957829003601f168201915b5050505050815260200160038201548152602001600482015481526020016005820154815250508152602001906001019061221e565b50505050905090565b60606000600f60008481526020019081526020016000206040518060c0016040529081600082015481526020016001820180546123e1906157fa565b80601f016020809104026020016040519081016040528092919081815260200182805461240d906157fa565b801561245a5780601f1061242f5761010080835404028352916020019161245a565b820191906000526020600020905b81548152906001019060200180831161243d57829003601f168201915b50505050508152602001600282018054612473906157fa565b80601f016020809104026020016040519081016040528092919081815260200182805461249f906157fa565b80156124ec5780601f106124c1576101008083540402835291602001916124ec565b820191906000526020600020905b8154815290600101906020018083116124cf57829003601f168201915b5050505050815260200160038201548152602001600482015481526020016005820154815250509050600061252482606001516133a5565b9050600061253583608001516133a5565b905060006125468460a001516133a5565b9050600061258c856020015161255b896133a5565b876040015187878760405160200161257896959493929190614deb565b604051602081830303815290604052613552565b90506000816040516020016125a19190614ebc565b6040516020818303038152906040529050809650505050505050919050565b6125c8613c53565b600f60008381526020019081526020016000206040518060c001604052908160008201548152602001600182018054612600906157fa565b80601f016020809104026020016040519081016040528092919081815260200182805461262c906157fa565b80156126795780601f1061264e57610100808354040283529160200191612679565b820191906000526020600020905b81548152906001019060200180831161265c57829003601f168201915b50505050508152602001600282018054612692906157fa565b80601f01602080910402602001604051908101604052809291908181526020018280546126be906157fa565b801561270b5780601f106126e05761010080835404028352916020019161270b565b820191906000526020600020905b8154815290600101906020018083116126ee57829003601f168201915b5050505050815260200160038201548152602001600482015481526020016005820154815250509050919050565b6000600560008473ffffffffffffffffffffffffffffffffffffffff1673ffffffffffffffffffffffffffffffffffffffff16815260200190815260200160002060008373ffffffffffffffffffffffffffffffffffffffff1673ffffffffffffffffffffffffffffffffffffffff16815260200190815260200160002060009054906101000a900460ff16905092915050565b612863816040516024016127e19190614fdb565b6040516020818303038152906040527f41304fac000000000000000000000000000000000000000000000000000000007bffffffffffffffffffffffffffffffffffffffffffffffffffffffff19166020820180517bffffffffffffffffffffffffffffffffffffffffffffffffffffffff8381831617835250505050613710565b50565b61290083838360405160240161287e93929190615049565b6040516020818303038152906040527ff362ca59000000000000000000000000000000000000000000000000000000007bffffffffffffffffffffffffffffffffffffffffffffffffffffffff19166020820180517bffffffffffffffffffffffffffffffffffffffffffffffffffffffff8381831617835250505050613710565b505050565b6001816000016000828254019250508190555050565b60007f01ffc9a7000000000000000000000000000000000000000000000000000000007bffffffffffffffffffffffffffffffffffffffffffffffffffffffff1916827bffffffffffffffffffffffffffffffffffffffffffffffffffffffff1916149050919050565b612a218484848460405160240161299f949392919061508e565b6040516020818303038152906040527fd5cf17d0000000000000000000000000000000000000000000000000000000007bffffffffffffffffffffffffffffffffffffffffffffffffffffffff19166020820180517bffffffffffffffffffffffffffffffffffffffffffffffffffffffff8381831617835250505050613710565b50505050565b612ac1838383604051602401612a3f93929190614ffd565b6040516020818303038152906040527f2ced7cef000000000000000000000000000000000000000000000000000000007bffffffffffffffffffffffffffffffffffffffffffffffffffffffff19166020820180517bffffffffffffffffffffffffffffffffffffffffffffffffffffffff8381831617835250505050613710565b505050565b612b6284848484604051602401612ae09493929190615187565b6040516020818303038152906040527fa0c4b225000000000000000000000000000000000000000000000000000000007bffffffffffffffffffffffffffffffffffffffffffffffffffffffff19166020820180517bffffffffffffffffffffffffffffffffffffffffffffffffffffffff8381831617835250505050613710565b50505050565b60008073ffffffffffffffffffffffffffffffffffffffff166002600084815260200190815260200160002060009054906101000a900473ffffffffffffffffffffffffffffffffffffffff1673ffffffffffffffffffffffffffffffffffffffff1614159050919050565b600033905090565b816004600083815260200190815260200160002060006101000a81548173ffffffffffffffffffffffffffffffffffffffff021916908373ffffffffffffffffffffffffffffffffffffffff160217905550808273ffffffffffffffffffffffffffffffffffffffff16612c4f83611a03565b73ffffffffffffffffffffffffffffffffffffffff167f8c5be1e5ebec7d5bd14f71427d1e84f3dd0314c0f7b2291e5b200ac8c7c3b92560405160405180910390a45050565b6000612ca082612b68565b612cdf576040517f08c379a0000000000000000000000000000000000000000000000000000000008152600401612cd6906152da565b60405180910390fd5b6000612cea83611a03565b90508073ffffffffffffffffffffffffffffffffffffffff168473ffffffffffffffffffffffffffffffffffffffff161480612d5957508373ffffffffffffffffffffffffffffffffffffffff16612d4184610fb9565b73ffffffffffffffffffffffffffffffffffffffff16145b80612d6a5750612d698185612739565b5b91505092915050565b8273ffffffffffffffffffffffffffffffffffffffff16612d9382611a03565b73ffffffffffffffffffffffffffffffffffffffff1614612de9576040517f08c379a0000000000000000000000000000000000000000000000000000000008152600401612de0906153ba565b60405180910390fd5b600073ffffffffffffffffffffffffffffffffffffffff168273ffffffffffffffffffffffffffffffffffffffff161415612e59576040517f08c379a0000000000000000000000000000000000000000000000000000000008152600401612e509061529a565b60405180910390fd5b612e64838383613739565b612e6f600082612bdc565b6001600360008573ffffffffffffffffffffffffffffffffffffffff1673ffffffffffffffffffffffffffffffffffffffff1681526020019081526020016000206000828254612ebf9190615710565b925050819055506001600360008473ffffffffffffffffffffffffffffffffffffffff1673ffffffffffffffffffffffffffffffffffffffff1681526020019081526020016000206000828254612f16919061562f565b92505081905550816002600083815260200190815260200160002060006101000a81548173ffffffffffffffffffffffffffffffffffffffff021916908373ffffffffffffffffffffffffffffffffffffffff160217905550808273ffffffffffffffffffffffffffffffffffffffff168473ffffffffffffffffffffffffffffffffffffffff167fddf252ad1be2c89b69c2b068fc378daa952ba7f163c4a11628f55a4df523b3ef60405160405180910390a4505050565b600080600090506000600e805490501415612fee576000915050613263565b60005b600e8054905081101561325d576000600e828154811061303a577f4e487b7100000000000000000000000000000000000000000000000000000000600052603260045260246000fd5b906000526020600020015490506000600f60008381526020019081526020016000206040518060c001604052908160008201548152602001600182018054613081906157fa565b80601f01602080910402602001604051908101604052809291908181526020018280546130ad906157fa565b80156130fa5780601f106130cf576101008083540402835291602001916130fa565b820191906000526020600020905b8154815290600101906020018083116130dd57829003601f168201915b50505050508152602001600282018054613113906157fa565b80601f016020809104026020016040519081016040528092919081815260200182805461313f906157fa565b801561318c5780601f106131615761010080835404028352916020019161318c565b820191906000526020600020905b81548152906001019060200180831161316f57829003601f168201915b505050505081526020016003820154815260200160048201548152602001600582015481525050905060008160000151905060006010600085815260200190815260200160002060009054906101000a900473ffffffffffffffffffffffffffffffffffffffff1690503373ffffffffffffffffffffffffffffffffffffffff168173ffffffffffffffffffffffffffffffffffffffff1614801561323057508782145b1561324257600195505050505061325d565b600095505050505080806132559061582c565b915050612ff1565b50809150505b919050565b600081600001549050919050565b61329082826040518060200160405280600081525061373e565b5050565b61332e8383836040516024016132ac93929190615142565b6040516020818303038152906040527fa3f5c739000000000000000000000000000000000000000000000000000000007bffffffffffffffffffffffffffffffffffffffffffffffffffffffff19166020820180517bffffffffffffffffffffffffffffffffffffffffffffffffffffffff8381831617835250505050613710565b505050565b60008183613341919061562f565b905092915050565b613354848484612d73565b61336084848484613799565b61339f576040517f08c379a00000000000000000000000000000000000000000000000000000000081526004016133969061521a565b60405180910390fd5b50505050565b606060008214156133ed576040518060400160405280600181526020017f3000000000000000000000000000000000000000000000000000000000000000815250905061354d565b600082905060005b6000821461341f5780806134089061582c565b915050600a826134189190615685565b91506133f5565b60008167ffffffffffffffff811115613461577f4e487b7100000000000000000000000000000000000000000000000000000000600052604160045260246000fd5b6040519080825280601f01601f1916602001820160405280156134935781602001600182028036833780820191505090505b5090505b60008514613546576001826134ac9190615710565b9150600a856134bb9190615875565b60306134c7919061562f565b60f81b818381518110613503577f4e487b7100000000000000000000000000000000000000000000000000000000600052603260045260246000fd5b60200101907effffffffffffffffffffffffffffffffffffffffffffffffffffffffffffff1916908160001a905350600a8561353f9190615685565b9450613497565b8093505050505b919050565b6060600082519050600081141561357b576040518060200160405280600081525091505061370b565b6000600360028361358c919061562f565b6135969190615685565b60046135a291906156b6565b905060006020826135b3919061562f565b67ffffffffffffffff8111156135f2577f4e487b7100000000000000000000000000000000000000000000000000000000600052604160045260246000fd5b6040519080825280601f01601f1916602001820160405280156136245781602001600182028036833780820191505090505b5090506000604051806060016040528060408152602001615a5f604091399050600181016020830160005b868110156136c85760038101905062ffffff818a015116603f8160121c168401518060081b905060ff603f83600c1c1686015116810190508060081b905060ff603f8360061c1686015116810190508060081b905060ff603f831686015116810190508060e01b9050808452600484019350505061364f565b5060038606600181146136e257600281146136f2576136fd565b613d3d60f01b60028303526136fd565b603d60f81b60018303525b508484525050819450505050505b919050565b60008151905060006a636f6e736f6c652e6c6f679050602083016000808483855afa5050505050565b505050565b6137488383613930565b6137556000848484613799565b613794576040517f08c379a000000000000000000000000000000000000000000000000000000000815260040161378b9061521a565b60405180910390fd5b505050565b60006137ba8473ffffffffffffffffffffffffffffffffffffffff16613afe565b15613923578373ffffffffffffffffffffffffffffffffffffffff1663150b7a026137e3612bd4565b8786866040518563ffffffff1660e01b81526004016138059493929190614ef9565b602060405180830381600087803b15801561381f57600080fd5b505af192505050801561385057506040513d601f19601f8201168201806040525081019061384d9190613f47565b60015b6138d3573d8060008114613880576040519150601f19603f3d011682016040523d82523d6000602084013e613885565b606091505b506000815114156138cb576040517f08c379a00000000000000000000000000000000000000000000000000000000081526004016138c29061521a565b60405180910390fd5b805181602001fd5b63150b7a0260e01b7bffffffffffffffffffffffffffffffffffffffffffffffffffffffff1916817bffffffffffffffffffffffffffffffffffffffffffffffffffffffff191614915050613928565b600190505b949350505050565b600073ffffffffffffffffffffffffffffffffffffffff168273ffffffffffffffffffffffffffffffffffffffff1614156139a0576040517f08c379a00000000000000000000000000000000000000000000000000000000081526004016139979061537a565b60405180910390fd5b6139a981612b68565b156139e9576040517f08c379a00000000000000000000000000000000000000000000000000000000081526004016139e09061523a565b60405180910390fd5b6139f560008383613739565b6001600360008473ffffffffffffffffffffffffffffffffffffffff1673ffffffffffffffffffffffffffffffffffffffff1681526020019081526020016000206000828254613a45919061562f565b92505081905550816002600083815260200190815260200160002060006101000a81548173ffffffffffffffffffffffffffffffffffffffff021916908373ffffffffffffffffffffffffffffffffffffffff160217905550808273ffffffffffffffffffffffffffffffffffffffff16600073ffffffffffffffffffffffffffffffffffffffff167fddf252ad1be2c89b69c2b068fc378daa952ba7f163c4a11628f55a4df523b3ef60405160405180910390a45050565b600080823b905060008111915050919050565b6040518060a0016040528060608152602001606081526020016000815260200160008152602001600081525090565b828054613b4c906157fa565b90600052602060002090601f016020900481019282613b6e5760008555613bb5565b82601f10613b8757805160ff1916838001178555613bb5565b82800160010185558215613bb5579182015b82811115613bb4578251825591602001919060010190613b99565b5b509050613bc29190613c89565b5090565b828054613bd2906157fa565b90600052602060002090601f016020900481019282613bf45760008555613c42565b82601f10613c055780548555613c42565b82800160010185558215613c4257600052602060002091601f016020900482015b82811115613c41578254825591600101919060010190613c26565b5b509050613c4f9190613c89565b5090565b6040518060c001604052806000815260200160608152602001606081526020016000815260200160008152602001600081525090565b5b80821115613ca2576000816000905550600101613c8a565b5090565b6000613cb9613cb484615539565b615508565b905082815260208101848484011115613cd157600080fd5b613cdc8482856157b8565b509392505050565b600081359050613cf381615973565b92915050565b600081359050613d088161598a565b92915050565b600081359050613d1d816159a1565b92915050565b600081519050613d32816159a1565b92915050565b600082601f830112613d4957600080fd5b8135613d59848260208601613ca6565b91505092915050565b600081359050613d71816159b8565b92915050565b600060208284031215613d8957600080fd5b6000613d9784828501613ce4565b91505092915050565b60008060408385031215613db357600080fd5b6000613dc185828601613ce4565b9250506020613dd285828601613ce4565b9150509250929050565b600080600060608486031215613df157600080fd5b6000613dff86828701613ce4565b9350506020613e1086828701613ce4565b9250506040613e2186828701613d62565b9150509250925092565b60008060008060808587031215613e4157600080fd5b6000613e4f87828801613ce4565b9450506020613e6087828801613ce4565b9350506040613e7187828801613d62565b925050606085013567ffffffffffffffff811115613e8e57600080fd5b613e9a87828801613d38565b91505092959194509250565b60008060408385031215613eb957600080fd5b6000613ec785828601613ce4565b9250506020613ed885828601613cf9565b9150509250929050565b60008060408385031215613ef557600080fd5b6000613f0385828601613ce4565b9250506020613f1485828601613d62565b9150509250929050565b600060208284031215613f3057600080fd5b6000613f3e84828501613d0e565b91505092915050565b600060208284031215613f5957600080fd5b6000613f6784828501613d23565b91505092915050565b600060208284031215613f8257600080fd5b6000613f9084828501613d62565b91505092915050565b6000613fa58383614cad565b905092915050565b6000613fb98383614dcd565b60208301905092915050565b613fce81615744565b82525050565b6000613fdf82615589565b613fe981856155cf565b935083602082028501613ffb85615569565b8060005b8581101561403757848403895281516140188582613f99565b9450614023836155b5565b925060208a01995050600181019050613fff565b50829750879550505050505092915050565b600061405482615594565b61405e81856155e0565b935061406983615579565b8060005b8381101561409a5781516140818882613fad565b975061408c836155c2565b92505060018101905061406d565b5085935050505092915050565b6140b081615756565b82525050565b60006140c18261559f565b6140cb81856155f1565b93506140db8185602086016157c7565b6140e481615962565b840191505092915050565b60006140fa826155aa565b6141048185615602565b93506141148185602086016157c7565b61411d81615962565b840191505092915050565b6000614133826155aa565b61413d8185615613565b935061414d8185602086016157c7565b61415681615962565b840191505092915050565b600061416c826155aa565b6141768185615624565b93506141868185602086016157c7565b80840191505092915050565b600061419f600283615624565b91507f7d2c0000000000000000000000000000000000000000000000000000000000006000830152600282019050919050565b60006141df600b83615624565b91507f202d2d204e465420233a200000000000000000000000000000000000000000006000830152600b82019050919050565b600061421f602283615613565b91507f4572726f723a2063686172616374657220686173206e6f2048502e20522e492e60008301527f502e0000000000000000000000000000000000000000000000000000000000006020830152604082019050919050565b6000614285600d83615624565b91507f2c226d61785f76616c7565223a000000000000000000000000000000000000006000830152600d82019050919050565b60006142c5600983615624565b91507f7b226e616d65223a2200000000000000000000000000000000000000000000006000830152600982019050919050565b6000614305602783615613565b91507f596f75206861766520616c7265616479206d696e74656420746869732063686160008301527f7261637465722e000000000000000000000000000000000000000000000000006020830152604082019050919050565b600061436b603283615613565b91507f4552433732313a207472616e7366657220746f206e6f6e20455243373231526560008301527f63656976657220696d706c656d656e74657200000000000000000000000000006020830152604082019050919050565b60006143d1602683615624565b91507f7b2274726169745f74797065223a2241747461636b2044616d616765222c227660008301527f616c7565223a00000000000000000000000000000000000000000000000000006020830152602682019050919050565b6000614437600283615624565b91507f222c0000000000000000000000000000000000000000000000000000000000006000830152600282019050919050565b6000614477601c83615613565b91507f4552433732313a20746f6b656e20616c7265616479206d696e746564000000006000830152602082019050919050565b60006144b7605083615613565b91507f4572726f723a204c6f6f6b73206c696b65207468652062696720626f7373206960008301527f73206f757420666f7220676f6f642e2048616e6720796f75722068617420616e60208301527f64206869742074686520626561636821000000000000000000000000000000006040830152606082019050919050565b6000614543602683615613565b91507f4f6e6c7920746865206f776e6572206f662074686973204e46542063616e207560008301527f73652069742e00000000000000000000000000000000000000000000000000006020830152604082019050919050565b60006145a9602483615613565b91507f4552433732313a207472616e7366657220746f20746865207a65726f2061646460008301527f72657373000000000000000000000000000000000000000000000000000000006020830152604082019050919050565b600061460f601983615613565b91507f4552433732313a20617070726f766520746f2063616c6c6572000000000000006000830152602082019050919050565b600061464f602c83615613565b91507f4552433732313a206f70657261746f7220717565727920666f72206e6f6e657860008301527f697374656e7420746f6b656e00000000000000000000000000000000000000006020830152604082019050919050565b60006146b5603483615613565b91507f596f752063616e2073717565657a652061206c6974746c65206d6f726520667260008301527f6f6d2074686973206368617261637465722e2e2e0000000000000000000000006020830152604082019050919050565b600061471b607a83615624565b91507f226465736372697074696f6e223a224a6f696e205465616d20416d657269636160008301527f20616e6420736176652074686520776f726c642120426174746c65207468652060208301527f66696572636520626f737320616e6420676574206e6f7468696e6720666f722060408301527f69742c206d617962652061207468756d62732075702e2e2e222c0000000000006060830152607a82019050919050565b60006147cd603883615613565b91507f4552433732313a20617070726f76652063616c6c6572206973206e6f74206f7760008301527f6e6572206e6f7220617070726f76656420666f7220616c6c00000000000000006020830152604082019050919050565b6000614833602a83615613565b91507f4552433732313a2062616c616e636520717565727920666f7220746865207a6560008301527f726f2061646472657373000000000000000000000000000000000000000000006020830152604082019050919050565b6000614899602983615613565b91507f4552433732313a206f776e657220717565727920666f72206e6f6e657869737460008301527f656e7420746f6b656e00000000000000000000000000000000000000000000006020830152604082019050919050565b60006148ff600983615624565b91507f22696d616765223a2200000000000000000000000000000000000000000000006000830152600982019050919050565b600061493f602083615613565b91507f4552433732313a206d696e7420746f20746865207a65726f20616464726573736000830152602082019050919050565b600061497f600383615624565b91507f7d5d7d00000000000000000000000000000000000000000000000000000000006000830152600382019050919050565b60006149bf602c83615613565b91507f4552433732313a20617070726f76656420717565727920666f72206e6f6e657860008301527f697374656e7420746f6b656e00000000000000000000000000000000000000006020830152604082019050919050565b6000614a25602983615613565b91507f4552433732313a207472616e73666572206f6620746f6b656e2074686174206960008301527f73206e6f74206f776e00000000000000000000000000000000000000000000006020830152604082019050919050565b6000614a8b602183615613565b91507f4552433732313a20617070726f76616c20746f2063757272656e74206f776e6560008301527f72000000000000000000000000000000000000000000000000000000000000006020830152604082019050919050565b6000614af1601d83615624565b91507f646174613a6170706c69636174696f6e2f6a736f6e3b6261736536342c0000006000830152601d82019050919050565b6000614b31603583615624565b91507f2261747472696275746573223a5b7b2274726169745f74797065223a2248656160008301527f6c746820506f696e7473222c202276616c7565223a00000000000000000000006020830152603582019050919050565b6000614b97603183615613565b91507f4552433732313a207472616e736665722063616c6c6572206973206e6f74206f60008301527f776e6572206e6f7220617070726f7665640000000000000000000000000000006020830152604082019050919050565b6000614bfd601e83615613565b91507f596f7520646f206e6f74206f776e2074686973206368617261637465722100006000830152602082019050919050565b600060a0830160008301518482036000860152614c4d82826140ef565b91505060208301518482036020860152614c6782826140ef565b9150506040830151614c7c6040860182614dcd565b506060830151614c8f6060860182614dcd565b506080830151614ca26080860182614dcd565b508091505092915050565b600060c083016000830151614cc56000860182614dcd565b5060208301518482036020860152614cdd82826140ef565b91505060408301518482036040860152614cf782826140ef565b9150506060830151614d0c6060860182614dcd565b506080830151614d1f6080860182614dcd565b5060a0830151614d3260a0860182614dcd565b508091505092915050565b600060c083016000830151614d556000860182614dcd565b5060208301518482036020860152614d6d82826140ef565b91505060408301518482036040860152614d8782826140ef565b9150506060830151614d9c6060860182614dcd565b506080830151614daf6080860182614dcd565b5060a0830151614dc260a0860182614dcd565b508091505092915050565b614dd6816157ae565b82525050565b614de5816157ae565b82525050565b6000614df6826142b8565b9150614e028289614161565b9150614e0d826141d2565b9150614e198288614161565b9150614e248261442a565b9150614e2f8261470e565b9150614e3a826148f2565b9150614e468287614161565b9150614e518261442a565b9150614e5c82614b24565b9150614e688286614161565b9150614e7382614278565b9150614e7f8285614161565b9150614e8a82614192565b9150614e95826143c4565b9150614ea18284614161565b9150614eac82614972565b9150819050979650505050505050565b6000614ec782614ae4565b9150614ed38284614161565b915081905092915050565b6000602082019050614ef36000830184613fc5565b92915050565b6000608082019050614f0e6000830187613fc5565b614f1b6020830186613fc5565b614f286040830185614ddc565b8181036060830152614f3a81846140b6565b905095945050505050565b6000606082019050614f5a6000830186613fc5565b614f676020830185614ddc565b614f746040830184614ddc565b949350505050565b60006020820190508181036000830152614f968184613fd4565b905092915050565b60006020820190508181036000830152614fb88184614049565b905092915050565b6000602082019050614fd560008301846140a7565b92915050565b60006020820190508181036000830152614ff58184614128565b905092915050565b600060608201905081810360008301526150178186614128565b9050818103602083015261502b8185614128565b9050818103604083015261503f8184614128565b9050949350505050565b600060608201905081810360008301526150638186614128565b905081810360208301526150778185614128565b90506150866040830184614ddc565b949350505050565b600060808201905081810360008301526150a88187614128565b905081810360208301526150bc8186614128565b90506150cb6040830185614ddc565b6150d86060830184614ddc565b95945050505050565b600060a08201905081810360008301526150fb8188614128565b9050818103602083015261510f8187614128565b905061511e6040830186614ddc565b61512b6060830185614ddc565b6151386080830184614ddc565b9695505050505050565b6000606082019050818103600083015261515c8186614128565b905061516b6020830185614ddc565b818103604083015261517d8184614128565b9050949350505050565b600060808201905081810360008301526151a18187614128565b90506151b06020830186614ddc565b81810360408301526151c28185614128565b90506151d16060830184614ddc565b95945050505050565b600060208201905081810360008301526151f381614212565b9050919050565b60006020820190508181036000830152615213816142f8565b9050919050565b600060208201905081810360008301526152338161435e565b9050919050565b600060208201905081810360008301526152538161446a565b9050919050565b60006020820190508181036000830152615273816144aa565b9050919050565b6000602082019050818103600083015261529381614536565b9050919050565b600060208201905081810360008301526152b38161459c565b9050919050565b600060208201905081810360008301526152d381614602565b9050919050565b600060208201905081810360008301526152f381614642565b9050919050565b60006020820190508181036000830152615313816146a8565b9050919050565b60006020820190508181036000830152615333816147c0565b9050919050565b6000602082019050818103600083015261535381614826565b9050919050565b600060208201905081810360008301526153738161488c565b9050919050565b6000602082019050818103600083015261539381614932565b9050919050565b600060208201905081810360008301526153b3816149b2565b9050919050565b600060208201905081810360008301526153d381614a18565b9050919050565b600060208201905081810360008301526153f381614a7e565b9050919050565b6000602082019050818103600083015261541381614b8a565b9050919050565b6000602082019050818103600083015261543381614bf0565b9050919050565b600060208201905081810360008301526154548184614c30565b905092915050565b600060208201905081810360008301526154768184614d3d565b905092915050565b60006020820190506154936000830184614ddc565b92915050565b600060c0820190506154ae6000830189614ddc565b81810360208301526154c08188614128565b905081810360408301526154d48187614128565b90506154e36060830186614ddc565b6154f06080830185614ddc565b6154fd60a0830184614ddc565b979650505050505050565b6000604051905081810181811067ffffffffffffffff8211171561552f5761552e615933565b5b8060405250919050565b600067ffffffffffffffff82111561555457615553615933565b5b601f19601f8301169050602081019050919050565b6000819050602082019050919050565b6000819050602082019050919050565b600081519050919050565b600081519050919050565b600081519050919050565b600081519050919050565b6000602082019050919050565b6000602082019050919050565b600082825260208201905092915050565b600082825260208201905092915050565b600082825260208201905092915050565b600082825260208201905092915050565b600082825260208201905092915050565b600081905092915050565b600061563a826157ae565b9150615645836157ae565b9250827fffffffffffffffffffffffffffffffffffffffffffffffffffffffffffffffff0382111561567a576156796158a6565b5b828201905092915050565b6000615690826157ae565b915061569b836157ae565b9250826156ab576156aa6158d5565b5b828204905092915050565b60006156c1826157ae565b91506156cc836157ae565b9250817fffffffffffffffffffffffffffffffffffffffffffffffffffffffffffffffff0483118215151615615705576157046158a6565b5b828202905092915050565b600061571b826157ae565b9150615726836157ae565b925082821015615739576157386158a6565b5b828203905092915050565b600061574f8261578e565b9050919050565b60008115159050919050565b60007fffffffff0000000000000000000000000000000000000000000000000000000082169050919050565b600073ffffffffffffffffffffffffffffffffffffffff82169050919050565b6000819050919050565b82818337600083830152505050565b60005b838110156157e55780820151818401526020810190506157ca565b838111156157f4576000848401525b50505050565b6000600282049050600182168061581257607f821691505b6020821081141561582657615825615904565b5b50919050565b6000615837826157ae565b91507fffffffffffffffffffffffffffffffffffffffffffffffffffffffffffffffff82141561586a576158696158a6565b5b600182019050919050565b6000615880826157ae565b915061588b836157ae565b92508261589b5761589a6158d5565b5b828206905092915050565b7f4e487b7100000000000000000000000000000000000000000000000000000000600052601160045260246000fd5b7f4e487b7100000000000000000000000000000000000000000000000000000000600052601260045260246000fd5b7f4e487b7100000000000000000000000000000000000000000000000000000000600052602260045260246000fd5b7f4e487b7100000000000000000000000000000000000000000000000000000000600052604160045260246000fd5b6000601f19601f8301169050919050565b61597c81615744565b811461598757600080fd5b50565b61599381615756565b811461599e57600080fd5b50565b6159aa81615762565b81146159b557600080fd5b50565b6159c1816157ae565b81146159cc57600080fd5b5056fe4e4f494345212121202573206a7573742064656665617465642025732e2054686520776f726c64206973207361666520616761696e2e2e2e206f722069732069743f4f4f4621202573206a75737420676f742052454b542062792025732e204747732e4d696e746564204e465420772f20546f6b656e4964202573207573696e67202573206368617261637465722e4142434445464748494a4b4c4d4e4f505152535455565758595a6162636465666768696a6b6c6d6e6f707172737475767778797a303132333435363738392b2f0a506c6179657220772f206368617261637465722025732069732061626f757420746f2061747461636b207769746820257320485020616e642025732041442e200a4772616220736f6d6520706f70636f726e2157686f616f2e2e2e20626f7468206f6620746865736520666f6f6c73206a75737420666c6f6f7265642065616368206f746865722e2047616d65206f76657220666f7220257320616e64202573426174746c6520726573756c74732061726520696e2e2e2e20426f737320485020697320257320616e642025732048502069732025732e200a54686174207761732061206e61696c626974657221204e61682c206e6f74207265616c6c792e2e2e54686520426f73732025732068617320257320485020616e642025732041442e2e2ea2646970667358221220079b75ad34aa41cf91ab1e442a4a3b8b967a5a6cab8552f284309ae7c8ab2a6d64736f6c6343000800003354686520697320746865205465616d20416d657269636120536c61796572732047616d6521426f737320257320696e697469616c697a656420776974682025732048502e20596f75206265747465722072756e21",
  "linkReferences": {},
  "deployedLinkReferences": {}
}