{
  "_format": "hh-sol-artifact-1",
  "contractName": "TeamAmericaSlayers",
  "sourceName": "contracts/TeamAmericaSlayers.sol",
  "abi": [
    {
      "inputs": [
        {
          "internalType": "string[]",
          "name": "characterNames",
          "type": "string[]"
        },
        {
          "internalType": "string[]",
          "name": "chacterImageURIs",
          "type": "string[]"
        },
        {
          "internalType": "uint256[]",
          "name": "characterHP",
          "type": "uint256[]"
        },
        {
          "internalType": "uint256[]",
          "name": "characterAttackDmg",
          "type": "uint256[]"
        },
        {
          "internalType": "string",
          "name": "bossName",
          "type": "string"
        },
        {
          "internalType": "string",
          "name": "bossImageURI",
          "type": "string"
        },
        {
          "internalType": "uint256",
          "name": "bossHp",
          "type": "uint256"
        },
        {
          "internalType": "uint256",
          "name": "bossAttackDamage",
          "type": "uint256"
        }
      ],
      "stateMutability": "nonpayable",
      "type": "constructor"
    },
    {
      "anonymous": false,
      "inputs": [
        {
          "indexed": true,
          "internalType": "address",
          "name": "owner",
          "type": "address"
        },
        {
          "indexed": true,
          "internalType": "address",
          "name": "approved",
          "type": "address"
        },
        {
          "indexed": true,
          "internalType": "uint256",
          "name": "tokenId",
          "type": "uint256"
        }
      ],
      "name": "Approval",
      "type": "event"
    },
    {
      "anonymous": false,
      "inputs": [
        {
          "indexed": true,
          "internalType": "address",
          "name": "owner",
          "type": "address"
        },
        {
          "indexed": true,
          "internalType": "address",
          "name": "operator",
          "type": "address"
        },
        {
          "indexed": false,
          "internalType": "bool",
          "name": "approved",
          "type": "bool"
        }
      ],
      "name": "ApprovalForAll",
      "type": "event"
    },
    {
      "anonymous": false,
      "inputs": [
        {
          "indexed": false,
          "internalType": "uint256",
          "name": "newBossHp",
          "type": "uint256"
        },
        {
          "indexed": false,
          "internalType": "uint256",
          "name": "newPlayerHp",
          "type": "uint256"
        }
      ],
      "name": "AttackComplete",
      "type": "event"
    },
    {
      "anonymous": false,
      "inputs": [
        {
          "indexed": false,
          "internalType": "address",
          "name": "minter",
          "type": "address"
        },
        {
          "indexed": false,
          "internalType": "uint256",
          "name": "tokenId",
          "type": "uint256"
        },
        {
          "indexed": false,
          "internalType": "uint256",
          "name": "characterIndex",
          "type": "uint256"
        }
      ],
      "name": "CharacterMinted",
      "type": "event"
    },
    {
      "anonymous": false,
      "inputs": [
        {
          "indexed": true,
          "internalType": "address",
          "name": "from",
          "type": "address"
        },
        {
          "indexed": true,
          "internalType": "address",
          "name": "to",
          "type": "address"
        },
        {
          "indexed": true,
          "internalType": "uint256",
          "name": "tokenId",
          "type": "uint256"
        }
      ],
      "name": "Transfer",
      "type": "event"
    },
    {
      "inputs": [
        {
          "internalType": "address",
          "name": "to",
          "type": "address"
        },
        {
          "internalType": "uint256",
          "name": "tokenId",
          "type": "uint256"
        }
      ],
      "name": "approve",
      "outputs": [],
      "stateMutability": "nonpayable",
      "type": "function"
    },
    {
      "inputs": [
        {
          "internalType": "uint256",
          "name": "",
          "type": "uint256"
        }
      ],
      "name": "assetToOwner",
      "outputs": [
        {
          "internalType": "address",
          "name": "",
          "type": "address"
        }
      ],
      "stateMutability": "view",
      "type": "function"
    },
    {
      "inputs": [
        {
          "internalType": "uint256",
          "name": "_tokenId",
          "type": "uint256"
        }
      ],
      "name": "attackBoss",
      "outputs": [],
      "stateMutability": "nonpayable",
      "type": "function"
    },
    {
      "inputs": [
        {
          "internalType": "address",
          "name": "owner",
          "type": "address"
        }
      ],
      "name": "balanceOf",
      "outputs": [
        {
          "internalType": "uint256",
          "name": "",
          "type": "uint256"
        }
      ],
      "stateMutability": "view",
      "type": "function"
    },
    {
      "inputs": [],
      "name": "bigBoss",
      "outputs": [
        {
          "internalType": "string",
          "name": "name",
          "type": "string"
        },
        {
          "internalType": "string",
          "name": "imageURI",
          "type": "string"
        },
        {
          "internalType": "uint256",
          "name": "hp",
          "type": "uint256"
        },
        {
          "internalType": "uint256",
          "name": "maxHp",
          "type": "uint256"
        },
        {
          "internalType": "uint256",
          "name": "attackDamage",
          "type": "uint256"
        }
      ],
      "stateMutability": "view",
      "type": "function"
    },
    {
      "inputs": [],
      "name": "getAllDefaultCharacters",
      "outputs": [
        {
          "components": [
            {
              "internalType": "uint256",
              "name": "characterIndex",
              "type": "uint256"
            },
            {
              "internalType": "string",
              "name": "name",
              "type": "string"
            },
            {
              "internalType": "string",
              "name": "imageURI",
              "type": "string"
            },
            {
              "internalType": "uint256",
              "name": "hp",
              "type": "uint256"
            },
            {
              "internalType": "uint256",
              "name": "maxHP",
              "type": "uint256"
            },
            {
              "internalType": "uint256",
              "name": "attackDamage",
              "type": "uint256"
            },
            {
              "internalType": "uint256",
              "name": "powerFactor",
              "type": "uint256"
            },
            {
              "internalType": "uint256",
              "name": "daysOff",
              "type": "uint256"
            },
            {
              "internalType": "uint256",
              "name": "lunchHour",
              "type": "uint256"
            }
          ],
          "internalType": "struct TeamAmericaSlayers.Character[]",
          "name": "",
          "type": "tuple[]"
        }
      ],
      "stateMutability": "view",
      "type": "function"
    },
    {
      "inputs": [
        {
          "internalType": "uint256",
          "name": "tokenId",
          "type": "uint256"
        }
      ],
      "name": "getApproved",
      "outputs": [
        {
          "internalType": "address",
          "name": "",
          "type": "address"
        }
      ],
      "stateMutability": "view",
      "type": "function"
    },
    {
      "inputs": [],
      "name": "getBigBoss",
      "outputs": [
        {
          "components": [
            {
              "internalType": "string",
              "name": "name",
              "type": "string"
            },
            {
              "internalType": "string",
              "name": "imageURI",
              "type": "string"
            },
            {
              "internalType": "uint256",
              "name": "hp",
              "type": "uint256"
            },
            {
              "internalType": "uint256",
              "name": "maxHp",
              "type": "uint256"
            },
            {
              "internalType": "uint256",
              "name": "attackDamage",
              "type": "uint256"
            }
          ],
          "internalType": "struct TeamAmericaSlayers.BigBoss",
          "name": "",
          "type": "tuple"
        }
      ],
      "stateMutability": "view",
      "type": "function"
    },
    {
      "inputs": [
        {
          "internalType": "uint256",
          "name": "_id",
          "type": "uint256"
        }
      ],
      "name": "getCharacter",
      "outputs": [
        {
          "components": [
            {
              "internalType": "uint256",
              "name": "characterIndex",
              "type": "uint256"
            },
            {
              "internalType": "string",
              "name": "name",
              "type": "string"
            },
            {
              "internalType": "string",
              "name": "imageURI",
              "type": "string"
            },
            {
              "internalType": "uint256",
              "name": "hp",
              "type": "uint256"
            },
            {
              "internalType": "uint256",
              "name": "maxHP",
              "type": "uint256"
            },
            {
              "internalType": "uint256",
              "name": "attackDamage",
              "type": "uint256"
            },
            {
              "internalType": "uint256",
              "name": "powerFactor",
              "type": "uint256"
            },
            {
              "internalType": "uint256",
              "name": "daysOff",
              "type": "uint256"
            },
            {
              "internalType": "uint256",
              "name": "lunchHour",
              "type": "uint256"
            }
          ],
          "internalType": "struct TeamAmericaSlayers.Character",
          "name": "",
          "type": "tuple"
        }
      ],
      "stateMutability": "view",
      "type": "function"
    },
    {
      "inputs": [
        {
          "internalType": "address",
          "name": "_owner",
          "type": "address"
        }
      ],
      "name": "getListOfOwnedCharacters",
      "outputs": [
        {
          "internalType": "uint256[]",
          "name": "",
          "type": "uint256[]"
        }
      ],
      "stateMutability": "view",
      "type": "function"
    },
    {
      "inputs": [
        {
          "internalType": "address",
          "name": "owner",
          "type": "address"
        },
        {
          "internalType": "address",
          "name": "operator",
          "type": "address"
        }
      ],
      "name": "isApprovedForAll",
      "outputs": [
        {
          "internalType": "bool",
          "name": "",
          "type": "bool"
        }
      ],
      "stateMutability": "view",
      "type": "function"
    },
    {
      "inputs": [
        {
          "internalType": "uint256",
          "name": "_characterIndex",
          "type": "uint256"
        }
      ],
      "name": "mintNewCharacterNFT",
      "outputs": [],
      "stateMutability": "nonpayable",
      "type": "function"
    },
    {
      "inputs": [],
      "name": "name",
      "outputs": [
        {
          "internalType": "string",
          "name": "",
          "type": "string"
        }
      ],
      "stateMutability": "view",
      "type": "function"
    },
    {
      "inputs": [
        {
          "internalType": "uint256",
          "name": "",
          "type": "uint256"
        }
      ],
      "name": "nftCharacterAttributes",
      "outputs": [
        {
          "internalType": "uint256",
          "name": "characterIndex",
          "type": "uint256"
        },
        {
          "internalType": "string",
          "name": "name",
          "type": "string"
        },
        {
          "internalType": "string",
          "name": "imageURI",
          "type": "string"
        },
        {
          "internalType": "uint256",
          "name": "hp",
          "type": "uint256"
        },
        {
          "internalType": "uint256",
          "name": "maxHP",
          "type": "uint256"
        },
        {
          "internalType": "uint256",
          "name": "attackDamage",
          "type": "uint256"
        },
        {
          "internalType": "uint256",
          "name": "powerFactor",
          "type": "uint256"
        },
        {
          "internalType": "uint256",
          "name": "daysOff",
          "type": "uint256"
        },
        {
          "internalType": "uint256",
          "name": "lunchHour",
          "type": "uint256"
        }
      ],
      "stateMutability": "view",
      "type": "function"
    },
    {
      "inputs": [
        {
          "internalType": "uint256",
          "name": "tokenId",
          "type": "uint256"
        }
      ],
      "name": "ownerOf",
      "outputs": [
        {
          "internalType": "address",
          "name": "",
          "type": "address"
        }
      ],
      "stateMutability": "view",
      "type": "function"
    },
    {
      "inputs": [
        {
          "internalType": "address",
          "name": "from",
          "type": "address"
        },
        {
          "internalType": "address",
          "name": "to",
          "type": "address"
        },
        {
          "internalType": "uint256",
          "name": "tokenId",
          "type": "uint256"
        }
      ],
      "name": "safeTransferFrom",
      "outputs": [],
      "stateMutability": "nonpayable",
      "type": "function"
    },
    {
      "inputs": [
        {
          "internalType": "address",
          "name": "from",
          "type": "address"
        },
        {
          "internalType": "address",
          "name": "to",
          "type": "address"
        },
        {
          "internalType": "uint256",
          "name": "tokenId",
          "type": "uint256"
        },
        {
          "internalType": "bytes",
          "name": "_data",
          "type": "bytes"
        }
      ],
      "name": "safeTransferFrom",
      "outputs": [],
      "stateMutability": "nonpayable",
      "type": "function"
    },
    {
      "inputs": [
        {
          "internalType": "address",
          "name": "operator",
          "type": "address"
        },
        {
          "internalType": "bool",
          "name": "approved",
          "type": "bool"
        }
      ],
      "name": "setApprovalForAll",
      "outputs": [],
      "stateMutability": "nonpayable",
      "type": "function"
    },
    {
      "inputs": [
        {
          "internalType": "bytes4",
          "name": "interfaceId",
          "type": "bytes4"
        }
      ],
      "name": "supportsInterface",
      "outputs": [
        {
          "internalType": "bool",
          "name": "",
          "type": "bool"
        }
      ],
      "stateMutability": "view",
      "type": "function"
    },
    {
      "inputs": [],
      "name": "symbol",
      "outputs": [
        {
          "internalType": "string",
          "name": "",
          "type": "string"
        }
      ],
      "stateMutability": "view",
      "type": "function"
    },
    {
      "inputs": [
        {
          "internalType": "uint256",
          "name": "_tokenId",
          "type": "uint256"
        }
      ],
      "name": "tokenURI",
      "outputs": [
        {
          "internalType": "string",
          "name": "",
          "type": "string"
        }
      ],
      "stateMutability": "view",
      "type": "function"
    },
    {
      "inputs": [
        {
          "internalType": "address",
          "name": "from",
          "type": "address"
        },
        {
          "internalType": "address",
          "name": "to",
          "type": "address"
        },
        {
          "internalType": "uint256",
          "name": "tokenId",
          "type": "uint256"
        }
      ],
      "name": "transferFrom",
      "outputs": [],
      "stateMutability": "nonpayable",
      "type": "function"
    }
  ],
  "bytecode": "0x60806040523480156200001157600080fd5b5060405162006a1a38038062006a1a833981810160405281019062000037919062000afe565b6040518060400160405280601981526020017f5465616d20416d657269636120536c61796572732042657461000000000000008152506040518060400160405280600381526020017f54415300000000000000000000000000000000000000000000000000000000008152508160009080519060200190620000bb92919062000891565b508060019080519060200190620000d492919062000891565b50505062000106604051806060016040528060258152602001620069c6602591396200070660201b620027a41760201c565b6040518060a0016040528085815260200184815260200183815260200183815260200182815250600660008201518160000190805190602001906200014d92919062000891565b5060208201518160010190805190602001906200016c92919062000891565b50604082015181600201556060820151816003015560808201518160040155905050620002596040518060600160405280602f8152602001620069eb602f913960066000018054620001be9062000e96565b80601f0160208091040260200160405190810160405280929190818152602001828054620001ec9062000e96565b80156200023d5780601f1062000211576101008083540402835291602001916200023d565b820191906000526020600020905b8154815290600101906020018083116200021f57829003601f168201915b5050505050600660020154620007a960201b6200283d1760201c565b60005b8851811015620006e057600c6040518061012001604052808381526020018b8481518110620002b4577f4e487b7100000000000000000000000000000000000000000000000000000000600052603260045260246000fd5b602002602001015181526020018a8481518110620002fb577f4e487b7100000000000000000000000000000000000000000000000000000000600052603260045260246000fd5b6020026020010151815260200189848151811062000342577f4e487b7100000000000000000000000000000000000000000000000000000000600052603260045260246000fd5b6020026020010151815260200189848151811062000389577f4e487b7100000000000000000000000000000000000000000000000000000000600052603260045260246000fd5b60200260200101518152602001888481518110620003d0577f4e487b7100000000000000000000000000000000000000000000000000000000600052603260045260246000fd5b602002602001015181526020016000815260200160008152602001600081525090806001815401808255809150506001900390600052602060002090600902016000909190919091506000820151816000015560208201518160010190805190602001906200044192919062000891565b5060408201518160020190805190602001906200046092919062000891565b50606082015181600301556080820151816004015560a0820151816005015560c0820151816006015560e08201518160070155610100820151816008015550506000600c8281548110620004dd577f4e487b7100000000000000000000000000000000000000000000000000000000600052603260045260246000fd5b90600052602060002090600902016040518061012001604052908160008201548152602001600182018054620005139062000e96565b80601f0160208091040260200160405190810160405280929190818152602001828054620005419062000e96565b8015620005925780601f10620005665761010080835404028352916020019162000592565b820191906000526020600020905b8154815290600101906020018083116200057457829003601f168201915b50505050508152602001600282018054620005ad9062000e96565b80601f0160208091040260200160405190810160405280929190818152602001828054620005db9062000e96565b80156200062c5780601f1062000600576101008083540402835291602001916200062c565b820191906000526020600020905b8154815290600101906020018083116200060e57829003601f168201915b5050505050815260200160038201548152602001600482015481526020016005820154815260200160068201548152602001600782015481526020016008820154815250509050620006c86040518060400160405280601781526020017f496e697469616c697a656420257320772f20257320485000000000000000000081525082602001518360600151620007a960201b6200283d1760201c565b50600181620006d8919062000df9565b90506200025c565b50620006f8600b6200085260201b620028dc1760201c565b505050505050505062000f84565b620007a6816040516024016200071d919062000ca9565b6040516020818303038152906040527f41304fac000000000000000000000000000000000000000000000000000000007bffffffffffffffffffffffffffffffffffffffffffffffffffffffff19166020820180517bffffffffffffffffffffffffffffffffffffffffffffffffffffffff83818316178352505050506200086860201b60201c565b50565b6200084d838383604051602401620007c49392919062000ccd565b6040516020818303038152906040527ff362ca59000000000000000000000000000000000000000000000000000000007bffffffffffffffffffffffffffffffffffffffffffffffffffffffff19166020820180517bffffffffffffffffffffffffffffffffffffffffffffffffffffffff83818316178352505050506200086860201b60201c565b505050565b6001816000016000828254019250508190555050565b60008151905060006a636f6e736f6c652e6c6f679050602083016000808483855afa5050505050565b8280546200089f9062000e96565b90600052602060002090601f016020900481019282620008c357600085556200090f565b82601f10620008de57805160ff19168380011785556200090f565b828001600101855582156200090f579182015b828111156200090e578251825591602001919060010190620008f1565b5b5090506200091e919062000922565b5090565b5b808211156200093d57600081600090555060010162000923565b5090565b600062000958620009528462000d4c565b62000d18565b9050808382526020820190508260005b858110156200099c578151850162000981888262000aba565b84526020840193506020830192505060018101905062000968565b5050509392505050565b6000620009bd620009b78462000d7b565b62000d18565b90508083825260208201905082856020860282011115620009dd57600080fd5b60005b8581101562000a115781620009f6888262000ae7565b845260208401935060208301925050600181019050620009e0565b5050509392505050565b600062000a3262000a2c8462000daa565b62000d18565b90508281526020810184848401111562000a4b57600080fd5b62000a5884828562000e60565b509392505050565b600082601f83011262000a7257600080fd5b815162000a8484826020860162000941565b91505092915050565b600082601f83011262000a9f57600080fd5b815162000ab1848260208601620009a6565b91505092915050565b600082601f83011262000acc57600080fd5b815162000ade84826020860162000a1b565b91505092915050565b60008151905062000af88162000f6a565b92915050565b600080600080600080600080610100898b03121562000b1c57600080fd5b600089015167ffffffffffffffff81111562000b3757600080fd5b62000b458b828c0162000a60565b985050602089015167ffffffffffffffff81111562000b6357600080fd5b62000b718b828c0162000a60565b975050604089015167ffffffffffffffff81111562000b8f57600080fd5b62000b9d8b828c0162000a8d565b965050606089015167ffffffffffffffff81111562000bbb57600080fd5b62000bc98b828c0162000a8d565b955050608089015167ffffffffffffffff81111562000be757600080fd5b62000bf58b828c0162000aba565b94505060a089015167ffffffffffffffff81111562000c1357600080fd5b62000c218b828c0162000aba565b93505060c062000c348b828c0162000ae7565b92505060e062000c478b828c0162000ae7565b9150509295985092959890939650565b600062000c648262000ddd565b62000c70818562000de8565b935062000c8281856020860162000e60565b62000c8d8162000f59565b840191505092915050565b62000ca38162000e56565b82525050565b6000602082019050818103600083015262000cc5818462000c57565b905092915050565b6000606082019050818103600083015262000ce9818662000c57565b9050818103602083015262000cff818562000c57565b905062000d10604083018462000c98565b949350505050565b6000604051905081810181811067ffffffffffffffff8211171562000d425762000d4162000f2a565b5b8060405250919050565b600067ffffffffffffffff82111562000d6a5762000d6962000f2a565b5b602082029050602081019050919050565b600067ffffffffffffffff82111562000d995762000d9862000f2a565b5b602082029050602081019050919050565b600067ffffffffffffffff82111562000dc85762000dc762000f2a565b5b601f19601f8301169050602081019050919050565b600081519050919050565b600082825260208201905092915050565b600062000e068262000e56565b915062000e138362000e56565b9250827fffffffffffffffffffffffffffffffffffffffffffffffffffffffffffffffff0382111562000e4b5762000e4a62000ecc565b5b828201905092915050565b6000819050919050565b60005b8381101562000e8057808201518184015260208101905062000e63565b8381111562000e90576000848401525b50505050565b6000600282049050600182168062000eaf57607f821691505b6020821081141562000ec65762000ec562000efb565b5b50919050565b7f4e487b7100000000000000000000000000000000000000000000000000000000600052601160045260246000fd5b7f4e487b7100000000000000000000000000000000000000000000000000000000600052602260045260246000fd5b7f4e487b7100000000000000000000000000000000000000000000000000000000600052604160045260246000fd5b6000601f19601f8301169050919050565b62000f758162000e56565b811462000f8157600080fd5b50565b615a328062000f946000396000f3fe608060405234801561001057600080fd5b50600436106101425760003560e01c806370a08231116100b8578063a9c326791161007c578063a9c32679146103a1578063b88d4fde146103c3578063b953084e146103df578063c87b56dd146103fd578063dabb05311461042d578063e985e9c51461045d57610142565b806370a08231146102cf57806385fd678c146102ff57806395d89b411461032f5780639a40e1991461034d578063a22cb4651461038557610142565b8063095ea7b31161010a578063095ea7b3146101ff57806318e594a61461021b57806323b872dd1461024b578063381ed0b81461026757806342842e0e146102835780636352211e1461029f57610142565b806301ffc9a7146101475780630619f932146101775780630665f9611461019357806306fdde03146101b1578063081812fc146101cf575b600080fd5b610161600480360381019061015c9190613c72565b61048d565b60405161016e9190614e05565b60405180910390f35b610191600480360381019061018c9190613cc4565b61056f565b005b61019b610da5565b6040516101a8919061521f565b60405180910390f35b6101b9610f01565b6040516101c69190614e20565b60405180910390f35b6101e960048036038101906101e49190613cc4565b610f93565b6040516101f69190614d23565b60405180910390f35b61021960048036038101906102149190613c36565b611018565b005b61023560048036038101906102309190613acb565b611130565b6040516102429190614de3565b60405180910390f35b61026560048036038101906102609190613b30565b6112cf565b005b610281600480360381019061027c9190613cc4565b61132f565b005b61029d60048036038101906102989190613b30565b611a73565b005b6102b960048036038101906102b49190613cc4565b611a93565b6040516102c69190614d23565b60405180910390f35b6102e960048036038101906102e49190613acb565b611b45565b6040516102f69190615263565b60405180910390f35b61031960048036038101906103149190613cc4565b611bfd565b6040516103269190614d23565b60405180910390f35b610337611c30565b6040516103449190614e20565b60405180910390f35b61036760048036038101906103629190613cc4565b611cc2565b60405161037c9998979695949392919061527e565b60405180910390f35b61039f600480360381019061039a9190613bfa565b611e20565b005b6103a9611fa1565b6040516103ba959493929190614f26565b60405180910390f35b6103dd60048036038101906103d89190613b7f565b6120d5565b005b6103e7612137565b6040516103f49190614dc1565b60405180910390f35b61041760048036038101906104129190613cc4565b612301565b6040516104249190614e20565b60405180910390f35b61044760048036038101906104429190613cc4565b612578565b6040516104549190615241565b60405180910390f35b61047760048036038101906104729190613af4565b612710565b6040516104849190614e05565b60405180910390f35b60007f80ac58cd000000000000000000000000000000000000000000000000000000007bffffffffffffffffffffffffffffffffffffffffffffffffffffffff1916827bffffffffffffffffffffffffffffffffffffffffffffffffffffffff1916148061055857507f5b5e139f000000000000000000000000000000000000000000000000000000007bffffffffffffffffffffffffffffffffffffffffffffffffffffffff1916827bffffffffffffffffffffffffffffffffffffffffffffffffffffffff1916145b806105685750610567826128f2565b5b9050919050565b3373ffffffffffffffffffffffffffffffffffffffff166010600083815260200190815260200160002060009054906101000a900473ffffffffffffffffffffffffffffffffffffffff1673ffffffffffffffffffffffffffffffffffffffff1614610610576040517f08c379a00000000000000000000000000000000000000000000000000000000081526004016106079061509f565b60405180910390fd5b6000600f600083815260200190815260200160002090506106df6040518060800160405280605481526020016158d96054913982600101805461065290615634565b80601f016020809104026020016040519081016040528092919081815260200182805461067e90615634565b80156106cb5780601f106106a0576101008083540402835291602001916106cb565b820191906000526020600020905b8154815290600101906020018083116106ae57829003601f168201915b50505050508360030154846005015461295c565b61079a6040518060600160405280602281526020016159db602291396006600001805461070b90615634565b80601f016020809104026020016040519081016040528092919081815260200182805461073790615634565b80156107845780601f1061075957610100808354040283529160200191610784565b820191906000526020600020905b81548152906001019060200180831161076757829003601f168201915b505050505060066002015460066004015461295c565b60008160030154116107e1576040517f08c379a00000000000000000000000000000000000000000000000000000000081526004016107d89061501f565b60405180910390fd5b600060066002015411610829576040517f08c379a00000000000000000000000000000000000000000000000000000000081526004016108209061507f565b60405180910390fd5b8060050154600660020154101561084a576000600660020181905550610869565b806005015460066002015461085f919061554a565b6006600201819055505b6006600401548160030154101561088957600081600301819055506108a7565b600660040154816003015461089e919061554a565b81600301819055505b6000816003015414156109f5576109f060405180606001604052806021815260200161584c602191398260010180546108df90615634565b80601f016020809104026020016040519081016040528092919081815260200182805461090b90615634565b80156109585780601f1061092d57610100808354040283529160200191610958565b820191906000526020600020905b81548152906001019060200180831161093b57829003601f168201915b50505050506006600001805461096d90615634565b80601f016020809104026020016040519081016040528092919081815260200182805461099990615634565b80156109e65780601f106109bb576101008083540402835291602001916109e6565b820191906000526020600020905b8154815290600101906020018083116109c957829003601f168201915b50505050506129fe565b610d5f565b60006006600201541415610b4457610b3f60405180608001604052806042815260200161580a60429139826001018054610a2e90615634565b80601f0160208091040260200160405190810160405280929190818152602001828054610a5a90615634565b8015610aa75780601f10610a7c57610100808354040283529160200191610aa7565b820191906000526020600020905b815481529060010190602001808311610a8a57829003601f168201915b505050505060066000018054610abc90615634565b80601f0160208091040260200160405190810160405280929190818152602001828054610ae890615634565b8015610b355780601f10610b0a57610100808354040283529160200191610b35565b820191906000526020600020905b815481529060010190602001808311610b1857829003601f168201915b50505050506129fe565b610d5e565b6000600660020154148015610b5d575060008160030154145b15610ca357610c9e6040518060800160405280604d815260200161592d604d913960066000018054610b8e90615634565b80601f0160208091040260200160405190810160405280929190818152602001828054610bba90615634565b8015610c075780601f10610bdc57610100808354040283529160200191610c07565b820191906000526020600020905b815481529060010190602001808311610bea57829003601f168201915b5050505050836001018054610c1b90615634565b80601f0160208091040260200160405190810160405280929190818152602001828054610c4790615634565b8015610c945780601f10610c6957610100808354040283529160200191610c94565b820191906000526020600020905b815481529060010190602001808311610c7757829003601f168201915b50505050506129fe565b610d5d565b610d5c6040518060a001604052806061815260200161597a60619139600660020154836001018054610cd490615634565b80601f0160208091040260200160405190810160405280929190818152602001828054610d0090615634565b8015610d4d5780601f10610d2257610100808354040283529160200191610d4d565b820191906000526020600020905b815481529060010190602001808311610d3057829003601f168201915b50505050508460030154612a9d565b5b5b5b7f838ab28464562786a6c4ab2311964b82fa60bd9b14aa7e856af1f3f18d41a4146006600201548260030154604051610d99929190615319565b60405180910390a15050565b610dad61384f565b60066040518060a0016040529081600082018054610dca90615634565b80601f0160208091040260200160405190810160405280929190818152602001828054610df690615634565b8015610e435780601f10610e1857610100808354040283529160200191610e43565b820191906000526020600020905b815481529060010190602001808311610e2657829003601f168201915b50505050508152602001600182018054610e5c90615634565b80601f0160208091040260200160405190810160405280929190818152602001828054610e8890615634565b8015610ed55780601f10610eaa57610100808354040283529160200191610ed5565b820191906000526020600020905b815481529060010190602001808311610eb857829003601f168201915b505050505081526020016002820154815260200160038201548152602001600482015481525050905090565b606060008054610f1090615634565b80601f0160208091040260200160405190810160405280929190818152602001828054610f3c90615634565b8015610f895780601f10610f5e57610100808354040283529160200191610f89565b820191906000526020600020905b815481529060010190602001808311610f6c57829003601f168201915b5050505050905090565b6000610f9e82612b3f565b610fdd576040517f08c379a0000000000000000000000000000000000000000000000000000000008152600401610fd49061519f565b60405180910390fd5b6004600083815260200190815260200160002060009054906101000a900473ffffffffffffffffffffffffffffffffffffffff169050919050565b600061102382611a93565b90508073ffffffffffffffffffffffffffffffffffffffff168373ffffffffffffffffffffffffffffffffffffffff161415611094576040517f08c379a000000000000000000000000000000000000000000000000000000000815260040161108b906151df565b60405180910390fd5b8073ffffffffffffffffffffffffffffffffffffffff166110b3612bab565b73ffffffffffffffffffffffffffffffffffffffff1614806110e257506110e1816110dc612bab565b612710565b5b611121576040517f08c379a00000000000000000000000000000000000000000000000000000000081526004016111189061511f565b60405180910390fd5b61112b8383612bb3565b505050565b60606000601160008473ffffffffffffffffffffffffffffffffffffffff1673ffffffffffffffffffffffffffffffffffffffff1681526020019081526020016000205467ffffffffffffffff8111156111b3577f4e487b7100000000000000000000000000000000000000000000000000000000600052604160045260246000fd5b6040519080825280602002602001820160405280156111e15781602001602082028036833780820191505090505b5090506000805b600d805490508110156112c4578473ffffffffffffffffffffffffffffffffffffffff166010600083815260200190815260200160002060009054906101000a900473ffffffffffffffffffffffffffffffffffffffff1673ffffffffffffffffffffffffffffffffffffffff1614156112b15780838381518110611296577f4e487b7100000000000000000000000000000000000000000000000000000000600052603260045260246000fd5b60200260200101818152505081806112ad90615666565b9250505b80806112bc90615666565b9150506111e8565b508192505050919050565b6112e06112da612bab565b82612c6c565b61131f576040517f08c379a0000000000000000000000000000000000000000000000000000000008152600401611316906151ff565b60405180910390fd5b61132a838383612d4a565b505050565b600061133b600b612fa6565b90506113473382612fb4565b604051806101200160405280838152602001600c8481548110611393577f4e487b7100000000000000000000000000000000000000000000000000000000600052603260045260246000fd5b906000526020600020906009020160010180546113af90615634565b80601f01602080910402602001604051908101604052809291908181526020018280546113db90615634565b80156114285780601f106113fd57610100808354040283529160200191611428565b820191906000526020600020905b81548152906001019060200180831161140b57829003601f168201915b50505050508152602001600c848154811061146c577f4e487b7100000000000000000000000000000000000000000000000000000000600052603260045260246000fd5b9060005260206000209060090201600201805461148890615634565b80601f01602080910402602001604051908101604052809291908181526020018280546114b490615634565b80156115015780601f106114d657610100808354040283529160200191611501565b820191906000526020600020905b8154815290600101906020018083116114e457829003601f168201915b50505050508152602001600c8481548110611545577f4e487b7100000000000000000000000000000000000000000000000000000000600052603260045260246000fd5b9060005260206000209060090201600301548152602001600c8481548110611596577f4e487b7100000000000000000000000000000000000000000000000000000000600052603260045260246000fd5b9060005260206000209060090201600401548152602001600c84815481106115e7577f4e487b7100000000000000000000000000000000000000000000000000000000600052603260045260246000fd5b9060005260206000209060090201600501548152602001600c8481548110611638577f4e487b7100000000000000000000000000000000000000000000000000000000600052603260045260246000fd5b9060005260206000209060090201600601548152602001600c8481548110611689577f4e487b7100000000000000000000000000000000000000000000000000000000600052603260045260246000fd5b9060005260206000209060090201600701548152602001600c84815481106116da577f4e487b7100000000000000000000000000000000000000000000000000000000600052603260045260246000fd5b906000526020600020906009020160080154815250600f600083815260200190815260200160002060008201518160000155602082015181600101908051906020019061172892919061387e565b50604082015181600201908051906020019061174592919061387e565b50606082015181600301556080820151816004015560a0820151816005015560c0820151816006015560e08201518160070155610100820151816008015590505061187c6040518060600160405280602c815260200161586d602c913982600c85815481106117dd577f4e487b7100000000000000000000000000000000000000000000000000000000600052603260045260246000fd5b906000526020600020906009020160010180546117f990615634565b80601f016020809104026020016040519081016040528092919081815260200182805461182590615634565b80156118725780601f1061184757610100808354040283529160200191611872565b820191906000526020600020905b81548152906001019060200180831161185557829003601f168201915b5050505050612fd2565b336010600083815260200190815260200160002060006101000a81548173ffffffffffffffffffffffffffffffffffffffff021916908373ffffffffffffffffffffffffffffffffffffffff1602179055506119216001601160003373ffffffffffffffffffffffffffffffffffffffff1673ffffffffffffffffffffffffffffffffffffffff1681526020019081526020016000205461307190919063ffffffff16565b601160003373ffffffffffffffffffffffffffffffffffffffff1673ffffffffffffffffffffffffffffffffffffffff16815260200190815260200160002081905550600d600f600083815260200190815260200160002090806001815401808255809150506001900390600052602060002090600902016000909190919091506000820154816000015560018201816001019080546119c090615634565b6119cb929190613904565b5060028201816002019080546119e090615634565b6119eb929190613904565b506003820154816003015560048201548160040155600582015481600501556006820154816006015560078201548160070155600882015481600801555050611a34600b6128dc565b7f9ebada08c3c21c172cc2a10a368461cde692195ac0db54584007867b48b68b1b338284604051611a6793929190614d8a565b60405180910390a15050565b611a8e838383604051806020016040528060008152506120d5565b505050565b6000806002600084815260200190815260200160002060009054906101000a900473ffffffffffffffffffffffffffffffffffffffff169050600073ffffffffffffffffffffffffffffffffffffffff168173ffffffffffffffffffffffffffffffffffffffff161415611b3c576040517f08c379a0000000000000000000000000000000000000000000000000000000008152600401611b339061515f565b60405180910390fd5b80915050919050565b60008073ffffffffffffffffffffffffffffffffffffffff168273ffffffffffffffffffffffffffffffffffffffff161415611bb6576040517f08c379a0000000000000000000000000000000000000000000000000000000008152600401611bad9061513f565b60405180910390fd5b600360008373ffffffffffffffffffffffffffffffffffffffff1673ffffffffffffffffffffffffffffffffffffffff168152602001908152602001600020549050919050565b60106020528060005260406000206000915054906101000a900473ffffffffffffffffffffffffffffffffffffffff1681565b606060018054611c3f90615634565b80601f0160208091040260200160405190810160405280929190818152602001828054611c6b90615634565b8015611cb85780601f10611c8d57610100808354040283529160200191611cb8565b820191906000526020600020905b815481529060010190602001808311611c9b57829003601f168201915b5050505050905090565b600f602052806000526040600020600091509050806000015490806001018054611ceb90615634565b80601f0160208091040260200160405190810160405280929190818152602001828054611d1790615634565b8015611d645780601f10611d3957610100808354040283529160200191611d64565b820191906000526020600020905b815481529060010190602001808311611d4757829003601f168201915b505050505090806002018054611d7990615634565b80601f0160208091040260200160405190810160405280929190818152602001828054611da590615634565b8015611df25780601f10611dc757610100808354040283529160200191611df2565b820191906000526020600020905b815481529060010190602001808311611dd557829003601f168201915b5050505050908060030154908060040154908060050154908060060154908060070154908060080154905089565b611e28612bab565b73ffffffffffffffffffffffffffffffffffffffff168273ffffffffffffffffffffffffffffffffffffffff161415611e96576040517f08c379a0000000000000000000000000000000000000000000000000000000008152600401611e8d906150df565b60405180910390fd5b8060056000611ea3612bab565b73ffffffffffffffffffffffffffffffffffffffff1673ffffffffffffffffffffffffffffffffffffffff16815260200190815260200160002060008473ffffffffffffffffffffffffffffffffffffffff1673ffffffffffffffffffffffffffffffffffffffff16815260200190815260200160002060006101000a81548160ff0219169083151502179055508173ffffffffffffffffffffffffffffffffffffffff16611f50612bab565b73ffffffffffffffffffffffffffffffffffffffff167f17307eab39ab6107e8899845ad3d59bd9653f200f220920489ca2b5937696c3183604051611f959190614e05565b60405180910390a35050565b6006806000018054611fb290615634565b80601f0160208091040260200160405190810160405280929190818152602001828054611fde90615634565b801561202b5780601f106120005761010080835404028352916020019161202b565b820191906000526020600020905b81548152906001019060200180831161200e57829003601f168201915b50505050509080600101805461204090615634565b80601f016020809104026020016040519081016040528092919081815260200182805461206c90615634565b80156120b95780601f1061208e576101008083540402835291602001916120b9565b820191906000526020600020905b81548152906001019060200180831161209c57829003601f168201915b5050505050908060020154908060030154908060040154905085565b6120e66120e0612bab565b83612c6c565b612125576040517f08c379a000000000000000000000000000000000000000000000000000000000815260040161211c906151ff565b60405180910390fd5b61213184848484613087565b50505050565b6060600c805480602002602001604051908101604052809291908181526020016000905b828210156122f85783829060005260206000209060090201604051806101200160405290816000820154815260200160018201805461219990615634565b80601f01602080910402602001604051908101604052809291908181526020018280546121c590615634565b80156122125780601f106121e757610100808354040283529160200191612212565b820191906000526020600020905b8154815290600101906020018083116121f557829003601f168201915b5050505050815260200160028201805461222b90615634565b80601f016020809104026020016040519081016040528092919081815260200182805461225790615634565b80156122a45780601f10612279576101008083540402835291602001916122a4565b820191906000526020600020905b81548152906001019060200180831161228757829003601f168201915b5050505050815260200160038201548152602001600482015481526020016005820154815260200160068201548152602001600782015481526020016008820154815250508152602001906001019061215b565b50505050905090565b60606000600f6000848152602001908152602001600020604051806101200160405290816000820154815260200160018201805461233e90615634565b80601f016020809104026020016040519081016040528092919081815260200182805461236a90615634565b80156123b75780601f1061238c576101008083540402835291602001916123b7565b820191906000526020600020905b81548152906001019060200180831161239a57829003601f168201915b505050505081526020016002820180546123d090615634565b80601f01602080910402602001604051908101604052809291908181526020018280546123fc90615634565b80156124495780601f1061241e57610100808354040283529160200191612449565b820191906000526020600020905b81548152906001019060200180831161242c57829003601f168201915b5050505050815260200160038201548152602001600482015481526020016005820154815260200160068201548152602001600782015481526020016008820154815250509050600061249f82606001516130e3565b905060006124b083608001516130e3565b905060006124c18460a001516130e3565b905060006124d28560c001516130e3565b905060006124e38660e001516130e3565b905060006124f58761010001516130e3565b90506000612541886020015161250a8c6130e3565b8a604001518a8a8a8a8a8a60405160200161252d99989796959493929190614bdd565b604051602081830303815290604052613290565b90506000816040516020016125569190614d01565b6040516020818303038152906040529050809950505050505050505050919050565b612580613991565b600f600083815260200190815260200160002060405180610120016040529081600082015481526020016001820180546125b990615634565b80601f01602080910402602001604051908101604052809291908181526020018280546125e590615634565b80156126325780601f1061260757610100808354040283529160200191612632565b820191906000526020600020905b81548152906001019060200180831161261557829003601f168201915b5050505050815260200160028201805461264b90615634565b80601f016020809104026020016040519081016040528092919081815260200182805461267790615634565b80156126c45780601f10612699576101008083540402835291602001916126c4565b820191906000526020600020905b8154815290600101906020018083116126a757829003601f168201915b5050505050815260200160038201548152602001600482015481526020016005820154815260200160068201548152602001600782015481526020016008820154815250509050919050565b6000600560008473ffffffffffffffffffffffffffffffffffffffff1673ffffffffffffffffffffffffffffffffffffffff16815260200190815260200160002060008373ffffffffffffffffffffffffffffffffffffffff1673ffffffffffffffffffffffffffffffffffffffff16815260200190815260200160002060009054906101000a900460ff16905092915050565b61283a816040516024016127b89190614e20565b6040516020818303038152906040527f41304fac000000000000000000000000000000000000000000000000000000007bffffffffffffffffffffffffffffffffffffffffffffffffffffffff19166020820180517bffffffffffffffffffffffffffffffffffffffffffffffffffffffff838183161783525050505061344e565b50565b6128d783838360405160240161285593929190614e8e565b6040516020818303038152906040527ff362ca59000000000000000000000000000000000000000000000000000000007bffffffffffffffffffffffffffffffffffffffffffffffffffffffff19166020820180517bffffffffffffffffffffffffffffffffffffffffffffffffffffffff838183161783525050505061344e565b505050565b6001816000016000828254019250508190555050565b60007f01ffc9a7000000000000000000000000000000000000000000000000000000007bffffffffffffffffffffffffffffffffffffffffffffffffffffffff1916827bffffffffffffffffffffffffffffffffffffffffffffffffffffffff1916149050919050565b6129f8848484846040516024016129769493929190614ed3565b6040516020818303038152906040527fd5cf17d0000000000000000000000000000000000000000000000000000000007bffffffffffffffffffffffffffffffffffffffffffffffffffffffff19166020820180517bffffffffffffffffffffffffffffffffffffffffffffffffffffffff838183161783525050505061344e565b50505050565b612a98838383604051602401612a1693929190614e42565b6040516020818303038152906040527f2ced7cef000000000000000000000000000000000000000000000000000000007bffffffffffffffffffffffffffffffffffffffffffffffffffffffff19166020820180517bffffffffffffffffffffffffffffffffffffffffffffffffffffffff838183161783525050505061344e565b505050565b612b3984848484604051602401612ab79493929190614fcc565b6040516020818303038152906040527fa0c4b225000000000000000000000000000000000000000000000000000000007bffffffffffffffffffffffffffffffffffffffffffffffffffffffff19166020820180517bffffffffffffffffffffffffffffffffffffffffffffffffffffffff838183161783525050505061344e565b50505050565b60008073ffffffffffffffffffffffffffffffffffffffff166002600084815260200190815260200160002060009054906101000a900473ffffffffffffffffffffffffffffffffffffffff1673ffffffffffffffffffffffffffffffffffffffff1614159050919050565b600033905090565b816004600083815260200190815260200160002060006101000a81548173ffffffffffffffffffffffffffffffffffffffff021916908373ffffffffffffffffffffffffffffffffffffffff160217905550808273ffffffffffffffffffffffffffffffffffffffff16612c2683611a93565b73ffffffffffffffffffffffffffffffffffffffff167f8c5be1e5ebec7d5bd14f71427d1e84f3dd0314c0f7b2291e5b200ac8c7c3b92560405160405180910390a45050565b6000612c7782612b3f565b612cb6576040517f08c379a0000000000000000000000000000000000000000000000000000000008152600401612cad906150ff565b60405180910390fd5b6000612cc183611a93565b90508073ffffffffffffffffffffffffffffffffffffffff168473ffffffffffffffffffffffffffffffffffffffff161480612d3057508373ffffffffffffffffffffffffffffffffffffffff16612d1884610f93565b73ffffffffffffffffffffffffffffffffffffffff16145b80612d415750612d408185612710565b5b91505092915050565b8273ffffffffffffffffffffffffffffffffffffffff16612d6a82611a93565b73ffffffffffffffffffffffffffffffffffffffff1614612dc0576040517f08c379a0000000000000000000000000000000000000000000000000000000008152600401612db7906151bf565b60405180910390fd5b600073ffffffffffffffffffffffffffffffffffffffff168273ffffffffffffffffffffffffffffffffffffffff161415612e30576040517f08c379a0000000000000000000000000000000000000000000000000000000008152600401612e27906150bf565b60405180910390fd5b612e3b838383613477565b612e46600082612bb3565b6001600360008573ffffffffffffffffffffffffffffffffffffffff1673ffffffffffffffffffffffffffffffffffffffff1681526020019081526020016000206000828254612e96919061554a565b925050819055506001600360008473ffffffffffffffffffffffffffffffffffffffff1673ffffffffffffffffffffffffffffffffffffffff1681526020019081526020016000206000828254612eed9190615469565b92505081905550816002600083815260200190815260200160002060006101000a81548173ffffffffffffffffffffffffffffffffffffffff021916908373ffffffffffffffffffffffffffffffffffffffff160217905550808273ffffffffffffffffffffffffffffffffffffffff168473ffffffffffffffffffffffffffffffffffffffff167fddf252ad1be2c89b69c2b068fc378daa952ba7f163c4a11628f55a4df523b3ef60405160405180910390a4505050565b600081600001549050919050565b612fce82826040518060200160405280600081525061347c565b5050565b61306c838383604051602401612fea93929190614f87565b6040516020818303038152906040527fa3f5c739000000000000000000000000000000000000000000000000000000007bffffffffffffffffffffffffffffffffffffffffffffffffffffffff19166020820180517bffffffffffffffffffffffffffffffffffffffffffffffffffffffff838183161783525050505061344e565b505050565b6000818361307f9190615469565b905092915050565b613092848484612d4a565b61309e848484846134d7565b6130dd576040517f08c379a00000000000000000000000000000000000000000000000000000000081526004016130d49061503f565b60405180910390fd5b50505050565b6060600082141561312b576040518060400160405280600181526020017f3000000000000000000000000000000000000000000000000000000000000000815250905061328b565b600082905060005b6000821461315d57808061314690615666565b915050600a8261315691906154bf565b9150613133565b60008167ffffffffffffffff81111561319f577f4e487b7100000000000000000000000000000000000000000000000000000000600052604160045260246000fd5b6040519080825280601f01601f1916602001820160405280156131d15781602001600182028036833780820191505090505b5090505b60008514613284576001826131ea919061554a565b9150600a856131f991906156af565b60306132059190615469565b60f81b818381518110613241577f4e487b7100000000000000000000000000000000000000000000000000000000600052603260045260246000fd5b60200101907effffffffffffffffffffffffffffffffffffffffffffffffffffffffffffff1916908160001a905350600a8561327d91906154bf565b94506131d5565b8093505050505b919050565b606060008251905060008114156132b95760405180602001604052806000815250915050613449565b600060036002836132ca9190615469565b6132d491906154bf565b60046132e091906154f0565b905060006020826132f19190615469565b67ffffffffffffffff811115613330577f4e487b7100000000000000000000000000000000000000000000000000000000600052604160045260246000fd5b6040519080825280601f01601f1916602001820160405280156133625781602001600182028036833780820191505090505b5090506000604051806060016040528060408152602001615899604091399050600181016020830160005b868110156134065760038101905062ffffff818a015116603f8160121c168401518060081b905060ff603f83600c1c1686015116810190508060081b905060ff603f8360061c1686015116810190508060081b905060ff603f831686015116810190508060e01b9050808452600484019350505061338d565b50600386066001811461342057600281146134305761343b565b613d3d60f01b600283035261343b565b603d60f81b60018303525b508484525050819450505050505b919050565b60008151905060006a636f6e736f6c652e6c6f679050602083016000808483855afa5050505050565b505050565b613486838361366e565b61349360008484846134d7565b6134d2576040517f08c379a00000000000000000000000000000000000000000000000000000000081526004016134c99061503f565b60405180910390fd5b505050565b60006134f88473ffffffffffffffffffffffffffffffffffffffff1661383c565b15613661578373ffffffffffffffffffffffffffffffffffffffff1663150b7a02613521612bab565b8786866040518563ffffffff1660e01b81526004016135439493929190614d3e565b602060405180830381600087803b15801561355d57600080fd5b505af192505050801561358e57506040513d601f19601f8201168201806040525081019061358b9190613c9b565b60015b613611573d80600081146135be576040519150601f19603f3d011682016040523d82523d6000602084013e6135c3565b606091505b50600081511415613609576040517f08c379a00000000000000000000000000000000000000000000000000000000081526004016136009061503f565b60405180910390fd5b805181602001fd5b63150b7a0260e01b7bffffffffffffffffffffffffffffffffffffffffffffffffffffffff1916817bffffffffffffffffffffffffffffffffffffffffffffffffffffffff191614915050613666565b600190505b949350505050565b600073ffffffffffffffffffffffffffffffffffffffff168273ffffffffffffffffffffffffffffffffffffffff1614156136de576040517f08c379a00000000000000000000000000000000000000000000000000000000081526004016136d59061517f565b60405180910390fd5b6136e781612b3f565b15613727576040517f08c379a000000000000000000000000000000000000000000000000000000000815260040161371e9061505f565b60405180910390fd5b61373360008383613477565b6001600360008473ffffffffffffffffffffffffffffffffffffffff1673ffffffffffffffffffffffffffffffffffffffff16815260200190815260200160002060008282546137839190615469565b92505081905550816002600083815260200190815260200160002060006101000a81548173ffffffffffffffffffffffffffffffffffffffff021916908373ffffffffffffffffffffffffffffffffffffffff160217905550808273ffffffffffffffffffffffffffffffffffffffff16600073ffffffffffffffffffffffffffffffffffffffff167fddf252ad1be2c89b69c2b068fc378daa952ba7f163c4a11628f55a4df523b3ef60405160405180910390a45050565b600080823b905060008111915050919050565b6040518060a0016040528060608152602001606081526020016000815260200160008152602001600081525090565b82805461388a90615634565b90600052602060002090601f0160209004810192826138ac57600085556138f3565b82601f106138c557805160ff19168380011785556138f3565b828001600101855582156138f3579182015b828111156138f25782518255916020019190600101906138d7565b5b50905061390091906139dd565b5090565b82805461391090615634565b90600052602060002090601f0160209004810192826139325760008555613980565b82601f106139435780548555613980565b8280016001018555821561398057600052602060002091601f016020900482015b8281111561397f578254825591600101919060010190613964565b5b50905061398d91906139dd565b5090565b6040518061012001604052806000815260200160608152602001606081526020016000815260200160008152602001600081526020016000815260200160008152602001600081525090565b5b808211156139f65760008160009055506001016139de565b5090565b6000613a0d613a0884615373565b615342565b905082815260208101848484011115613a2557600080fd5b613a308482856155f2565b509392505050565b600081359050613a47816157ad565b92915050565b600081359050613a5c816157c4565b92915050565b600081359050613a71816157db565b92915050565b600081519050613a86816157db565b92915050565b600082601f830112613a9d57600080fd5b8135613aad8482602086016139fa565b91505092915050565b600081359050613ac5816157f2565b92915050565b600060208284031215613add57600080fd5b6000613aeb84828501613a38565b91505092915050565b60008060408385031215613b0757600080fd5b6000613b1585828601613a38565b9250506020613b2685828601613a38565b9150509250929050565b600080600060608486031215613b4557600080fd5b6000613b5386828701613a38565b9350506020613b6486828701613a38565b9250506040613b7586828701613ab6565b9150509250925092565b60008060008060808587031215613b9557600080fd5b6000613ba387828801613a38565b9450506020613bb487828801613a38565b9350506040613bc587828801613ab6565b925050606085013567ffffffffffffffff811115613be257600080fd5b613bee87828801613a8c565b91505092959194509250565b60008060408385031215613c0d57600080fd5b6000613c1b85828601613a38565b9250506020613c2c85828601613a4d565b9150509250929050565b60008060408385031215613c4957600080fd5b6000613c5785828601613a38565b9250506020613c6885828601613ab6565b9150509250929050565b600060208284031215613c8457600080fd5b6000613c9284828501613a62565b91505092915050565b600060208284031215613cad57600080fd5b6000613cbb84828501613a77565b91505092915050565b600060208284031215613cd657600080fd5b6000613ce484828501613ab6565b91505092915050565b6000613cf98383614a27565b905092915050565b6000613d0d8383614bbf565b60208301905092915050565b613d228161557e565b82525050565b6000613d33826153c3565b613d3d8185615409565b935083602082028501613d4f856153a3565b8060005b85811015613d8b5784840389528151613d6c8582613ced565b9450613d77836153ef565b925060208a01995050600181019050613d53565b50829750879550505050505092915050565b6000613da8826153ce565b613db2818561541a565b9350613dbd836153b3565b8060005b83811015613dee578151613dd58882613d01565b9750613de0836153fc565b925050600181019050613dc1565b5085935050505092915050565b613e0481615590565b82525050565b6000613e15826153d9565b613e1f818561542b565b9350613e2f818560208601615601565b613e388161579c565b840191505092915050565b6000613e4e826153e4565b613e58818561543c565b9350613e68818560208601615601565b613e718161579c565b840191505092915050565b6000613e87826153e4565b613e91818561544d565b9350613ea1818560208601615601565b613eaa8161579c565b840191505092915050565b6000613ec0826153e4565b613eca818561545e565b9350613eda818560208601615601565b80840191505092915050565b6000613ef360028361545e565b91507f7d2c0000000000000000000000000000000000000000000000000000000000006000830152600282019050919050565b6000613f33600b8361545e565b91507f202d2d204e465420233a200000000000000000000000000000000000000000006000830152600b82019050919050565b6000613f7360228361544d565b91507f4572726f723a2063686172616374657220686173206e6f2048502e20522e492e60008301527f502e0000000000000000000000000000000000000000000000000000000000006020830152604082019050919050565b6000613fd9600d8361545e565b91507f2c226d61785f76616c7565223a000000000000000000000000000000000000006000830152600d82019050919050565b600061401960098361545e565b91507f7b226e616d65223a2200000000000000000000000000000000000000000000006000830152600982019050919050565b600061405960328361544d565b91507f4552433732313a207472616e7366657220746f206e6f6e20455243373231526560008301527f63656976657220696d706c656d656e74657200000000000000000000000000006020830152604082019050919050565b60006140bf60268361545e565b91507f7b2274726169745f74797065223a2241747461636b2044616d616765222c227660008301527f616c7565223a00000000000000000000000000000000000000000000000000006020830152602682019050919050565b600061412560028361545e565b91507f222c0000000000000000000000000000000000000000000000000000000000006000830152600282019050919050565b6000614165601c8361544d565b91507f4552433732313a20746f6b656e20616c7265616479206d696e746564000000006000830152602082019050919050565b60006141a560218361545e565b91507f7b2274726169745f74797065223a2244617973204f6666222c2276616c75652260008301527f3a000000000000000000000000000000000000000000000000000000000000006020830152602182019050919050565b600061420b60508361544d565b91507f4572726f723a204c6f6f6b73206c696b65207468652062696720626f7373206960008301527f73206f757420666f7220676f6f642e2048616e6720796f75722068617420616e60208301527f64206869742074686520626561636821000000000000000000000000000000006040830152606082019050919050565b600061429760268361544d565b91507f4f6e6c7920746865206f776e6572206f662074686973204e46542063616e207560008301527f73652069742e00000000000000000000000000000000000000000000000000006020830152604082019050919050565b60006142fd60248361544d565b91507f4552433732313a207472616e7366657220746f20746865207a65726f2061646460008301527f72657373000000000000000000000000000000000000000000000000000000006020830152604082019050919050565b600061436360198361544d565b91507f4552433732313a20617070726f766520746f2063616c6c6572000000000000006000830152602082019050919050565b60006143a360288361545e565b91507f7d2c7b2274726169745f74797065223a2022506f77657220466163746f72222c60008301527f2276616c7565223a0000000000000000000000000000000000000000000000006020830152602882019050919050565b600061440960258361545e565b91507f7d2c7b2274726169745f74797065223a224c756e636820486f7572222c22766160008301527f6c7565223a0000000000000000000000000000000000000000000000000000006020830152602582019050919050565b600061446f602c8361544d565b91507f4552433732313a206f70657261746f7220717565727920666f72206e6f6e657860008301527f697374656e7420746f6b656e00000000000000000000000000000000000000006020830152604082019050919050565b60006144d5607a8361545e565b91507f226465736372697074696f6e223a224a6f696e205465616d20416d657269636160008301527f20616e6420736176652074686520776f726c642120426174746c65207468652060208301527f66696572636520626f737320616e6420676574206e6f7468696e6720666f722060408301527f69742c206d617962652061207468756d62732075702e2e2e222c0000000000006060830152607a82019050919050565b600061458760388361544d565b91507f4552433732313a20617070726f76652063616c6c6572206973206e6f74206f7760008301527f6e6572206e6f7220617070726f76656420666f7220616c6c00000000000000006020830152604082019050919050565b60006145ed602a8361544d565b91507f4552433732313a2062616c616e636520717565727920666f7220746865207a6560008301527f726f2061646472657373000000000000000000000000000000000000000000006020830152604082019050919050565b600061465360298361544d565b91507f4552433732313a206f776e657220717565727920666f72206e6f6e657869737460008301527f656e7420746f6b656e00000000000000000000000000000000000000000000006020830152604082019050919050565b60006146b960098361545e565b91507f22696d616765223a2200000000000000000000000000000000000000000000006000830152600982019050919050565b60006146f960208361544d565b91507f4552433732313a206d696e7420746f20746865207a65726f20616464726573736000830152602082019050919050565b600061473960038361545e565b91507f7d5d7d00000000000000000000000000000000000000000000000000000000006000830152600382019050919050565b6000614779602c8361544d565b91507f4552433732313a20617070726f76656420717565727920666f72206e6f6e657860008301527f697374656e7420746f6b656e00000000000000000000000000000000000000006020830152604082019050919050565b60006147df60298361544d565b91507f4552433732313a207472616e73666572206f6620746f6b656e2074686174206960008301527f73206e6f74206f776e00000000000000000000000000000000000000000000006020830152604082019050919050565b600061484560218361544d565b91507f4552433732313a20617070726f76616c20746f2063757272656e74206f776e6560008301527f72000000000000000000000000000000000000000000000000000000000000006020830152604082019050919050565b60006148ab601d8361545e565b91507f646174613a6170706c69636174696f6e2f6a736f6e3b6261736536342c0000006000830152601d82019050919050565b60006148eb60358361545e565b91507f2261747472696275746573223a5b7b2274726169745f74797065223a2248656160008301527f6c746820506f696e7473222c202276616c7565223a00000000000000000000006020830152603582019050919050565b600061495160318361544d565b91507f4552433732313a207472616e736665722063616c6c6572206973206e6f74206f60008301527f776e6572206e6f7220617070726f7665640000000000000000000000000000006020830152604082019050919050565b600060a08301600083015184820360008601526149c78282613e43565b915050602083015184820360208601526149e18282613e43565b91505060408301516149f66040860182614bbf565b506060830151614a096060860182614bbf565b506080830151614a1c6080860182614bbf565b508091505092915050565b600061012083016000830151614a406000860182614bbf565b5060208301518482036020860152614a588282613e43565b91505060408301518482036040860152614a728282613e43565b9150506060830151614a876060860182614bbf565b506080830151614a9a6080860182614bbf565b5060a0830151614aad60a0860182614bbf565b5060c0830151614ac060c0860182614bbf565b5060e0830151614ad360e0860182614bbf565b50610100830151614ae8610100860182614bbf565b508091505092915050565b600061012083016000830151614b0c6000860182614bbf565b5060208301518482036020860152614b248282613e43565b91505060408301518482036040860152614b3e8282613e43565b9150506060830151614b536060860182614bbf565b506080830151614b666080860182614bbf565b5060a0830151614b7960a0860182614bbf565b5060c0830151614b8c60c0860182614bbf565b5060e0830151614b9f60e0860182614bbf565b50610100830151614bb4610100860182614bbf565b508091505092915050565b614bc8816155e8565b82525050565b614bd7816155e8565b82525050565b6000614be88261400c565b9150614bf4828c613eb5565b9150614bff82613f26565b9150614c0b828b613eb5565b9150614c1682614118565b9150614c21826144c8565b9150614c2c826146ac565b9150614c38828a613eb5565b9150614c4382614118565b9150614c4e826148de565b9150614c5a8289613eb5565b9150614c6582613fcc565b9150614c718288613eb5565b9150614c7c82613ee6565b9150614c87826140b2565b9150614c938287613eb5565b9150614c9e82614396565b9150614caa8286613eb5565b9150614cb582613ee6565b9150614cc082614198565b9150614ccc8285613eb5565b9150614cd7826143fc565b9150614ce38284613eb5565b9150614cee8261472c565b91508190509a9950505050505050505050565b6000614d0c8261489e565b9150614d188284613eb5565b915081905092915050565b6000602082019050614d386000830184613d19565b92915050565b6000608082019050614d536000830187613d19565b614d606020830186613d19565b614d6d6040830185614bce565b8181036060830152614d7f8184613e0a565b905095945050505050565b6000606082019050614d9f6000830186613d19565b614dac6020830185614bce565b614db96040830184614bce565b949350505050565b60006020820190508181036000830152614ddb8184613d28565b905092915050565b60006020820190508181036000830152614dfd8184613d9d565b905092915050565b6000602082019050614e1a6000830184613dfb565b92915050565b60006020820190508181036000830152614e3a8184613e7c565b905092915050565b60006060820190508181036000830152614e5c8186613e7c565b90508181036020830152614e708185613e7c565b90508181036040830152614e848184613e7c565b9050949350505050565b60006060820190508181036000830152614ea88186613e7c565b90508181036020830152614ebc8185613e7c565b9050614ecb6040830184614bce565b949350505050565b60006080820190508181036000830152614eed8187613e7c565b90508181036020830152614f018186613e7c565b9050614f106040830185614bce565b614f1d6060830184614bce565b95945050505050565b600060a0820190508181036000830152614f408188613e7c565b90508181036020830152614f548187613e7c565b9050614f636040830186614bce565b614f706060830185614bce565b614f7d6080830184614bce565b9695505050505050565b60006060820190508181036000830152614fa18186613e7c565b9050614fb06020830185614bce565b8181036040830152614fc28184613e7c565b9050949350505050565b60006080820190508181036000830152614fe68187613e7c565b9050614ff56020830186614bce565b81810360408301526150078185613e7c565b90506150166060830184614bce565b95945050505050565b6000602082019050818103600083015261503881613f66565b9050919050565b600060208201905081810360008301526150588161404c565b9050919050565b6000602082019050818103600083015261507881614158565b9050919050565b60006020820190508181036000830152615098816141fe565b9050919050565b600060208201905081810360008301526150b88161428a565b9050919050565b600060208201905081810360008301526150d8816142f0565b9050919050565b600060208201905081810360008301526150f881614356565b9050919050565b6000602082019050818103600083015261511881614462565b9050919050565b600060208201905081810360008301526151388161457a565b9050919050565b60006020820190508181036000830152615158816145e0565b9050919050565b6000602082019050818103600083015261517881614646565b9050919050565b60006020820190508181036000830152615198816146ec565b9050919050565b600060208201905081810360008301526151b88161476c565b9050919050565b600060208201905081810360008301526151d8816147d2565b9050919050565b600060208201905081810360008301526151f881614838565b9050919050565b6000602082019050818103600083015261521881614944565b9050919050565b6000602082019050818103600083015261523981846149aa565b905092915050565b6000602082019050818103600083015261525b8184614af3565b905092915050565b60006020820190506152786000830184614bce565b92915050565b600061012082019050615294600083018c614bce565b81810360208301526152a6818b613e7c565b905081810360408301526152ba818a613e7c565b90506152c96060830189614bce565b6152d66080830188614bce565b6152e360a0830187614bce565b6152f060c0830186614bce565b6152fd60e0830185614bce565b61530b610100830184614bce565b9a9950505050505050505050565b600060408201905061532e6000830185614bce565b61533b6020830184614bce565b9392505050565b6000604051905081810181811067ffffffffffffffff821117156153695761536861576d565b5b8060405250919050565b600067ffffffffffffffff82111561538e5761538d61576d565b5b601f19601f8301169050602081019050919050565b6000819050602082019050919050565b6000819050602082019050919050565b600081519050919050565b600081519050919050565b600081519050919050565b600081519050919050565b6000602082019050919050565b6000602082019050919050565b600082825260208201905092915050565b600082825260208201905092915050565b600082825260208201905092915050565b600082825260208201905092915050565b600082825260208201905092915050565b600081905092915050565b6000615474826155e8565b915061547f836155e8565b9250827fffffffffffffffffffffffffffffffffffffffffffffffffffffffffffffffff038211156154b4576154b36156e0565b5b828201905092915050565b60006154ca826155e8565b91506154d5836155e8565b9250826154e5576154e461570f565b5b828204905092915050565b60006154fb826155e8565b9150615506836155e8565b9250817fffffffffffffffffffffffffffffffffffffffffffffffffffffffffffffffff048311821515161561553f5761553e6156e0565b5b828202905092915050565b6000615555826155e8565b9150615560836155e8565b925082821015615573576155726156e0565b5b828203905092915050565b6000615589826155c8565b9050919050565b60008115159050919050565b60007fffffffff0000000000000000000000000000000000000000000000000000000082169050919050565b600073ffffffffffffffffffffffffffffffffffffffff82169050919050565b6000819050919050565b82818337600083830152505050565b60005b8381101561561f578082015181840152602081019050615604565b8381111561562e576000848401525b50505050565b6000600282049050600182168061564c57607f821691505b602082108114156156605761565f61573e565b5b50919050565b6000615671826155e8565b91507fffffffffffffffffffffffffffffffffffffffffffffffffffffffffffffffff8214156156a4576156a36156e0565b5b600182019050919050565b60006156ba826155e8565b91506156c5836155e8565b9250826156d5576156d461570f565b5b828206905092915050565b7f4e487b7100000000000000000000000000000000000000000000000000000000600052601160045260246000fd5b7f4e487b7100000000000000000000000000000000000000000000000000000000600052601260045260246000fd5b7f4e487b7100000000000000000000000000000000000000000000000000000000600052602260045260246000fd5b7f4e487b7100000000000000000000000000000000000000000000000000000000600052604160045260246000fd5b6000601f19601f8301169050919050565b6157b68161557e565b81146157c157600080fd5b50565b6157cd81615590565b81146157d857600080fd5b50565b6157e48161559c565b81146157ef57600080fd5b50565b6157fb816155e8565b811461580657600080fd5b5056fe4e4f494345212121202573206a7573742064656665617465642025732e2054686520776f726c64206973207361666520616761696e2e2e2e206f722069732069743f4f4f4621202573206a75737420676f742052454b542062792025732e204747732e4d696e746564204e465420772f20546f6b656e4964202573207573696e67202573206368617261637465722e4142434445464748494a4b4c4d4e4f505152535455565758595a6162636465666768696a6b6c6d6e6f707172737475767778797a303132333435363738392b2f0a506c6179657220772f206368617261637465722025732069732061626f757420746f2061747461636b207769746820257320485020616e642025732041442e200a4772616220736f6d6520706f70636f726e2157686f616f2e2e2e20626f7468206f6620746865736520666f6f6c73206a75737420666c6f6f7265642065616368206f746865722e2047616d65206f76657220666f7220257320616e64202573426174746c6520726573756c74732061726520696e2e2e2e20426f737320485020697320257320616e642025732048502069732025732e200a54686174207761732061206e61696c626974657221204e61682c206e6f74207265616c6c792e2e2e54686520426f73732025732068617320257320485020616e642025732041442e2e2ea26469706673582212204df436bb633517832c79f5b9a18025c20ebe1745b993b7b20d97160366194e6664736f6c6343000800003354686520697320746865205465616d20416d657269636120536c61796572732047616d6521426f737320257320696e697469616c697a656420776974682025732048502e20596f75206265747465722072756e21",
  "linkReferences": {},
  "deployedLinkReferences": {}
}