{
  "_format": "hh-sol-artifact-1",
  "contractName": "TeamAmericaSlayers",
  "sourceName": "contracts/TeamAmericaSlayers.sol",
  "abi": [
    {
      "inputs": [
        {
          "internalType": "string[]",
          "name": "characterNames",
          "type": "string[]"
        },
        {
          "internalType": "string[]",
          "name": "chacterImageURIs",
          "type": "string[]"
        },
        {
          "internalType": "uint256[]",
          "name": "characterHP",
          "type": "uint256[]"
        },
        {
          "internalType": "uint256[]",
          "name": "characterAttackDmg",
          "type": "uint256[]"
        },
        {
          "internalType": "string",
          "name": "bossName",
          "type": "string"
        },
        {
          "internalType": "string",
          "name": "bossImageURI",
          "type": "string"
        },
        {
          "internalType": "uint256",
          "name": "bossHp",
          "type": "uint256"
        },
        {
          "internalType": "uint256",
          "name": "bossAttackDamage",
          "type": "uint256"
        }
      ],
      "stateMutability": "nonpayable",
      "type": "constructor"
    },
    {
      "anonymous": false,
      "inputs": [
        {
          "indexed": true,
          "internalType": "address",
          "name": "owner",
          "type": "address"
        },
        {
          "indexed": true,
          "internalType": "address",
          "name": "approved",
          "type": "address"
        },
        {
          "indexed": true,
          "internalType": "uint256",
          "name": "tokenId",
          "type": "uint256"
        }
      ],
      "name": "Approval",
      "type": "event"
    },
    {
      "anonymous": false,
      "inputs": [
        {
          "indexed": true,
          "internalType": "address",
          "name": "owner",
          "type": "address"
        },
        {
          "indexed": true,
          "internalType": "address",
          "name": "operator",
          "type": "address"
        },
        {
          "indexed": false,
          "internalType": "bool",
          "name": "approved",
          "type": "bool"
        }
      ],
      "name": "ApprovalForAll",
      "type": "event"
    },
    {
      "anonymous": false,
      "inputs": [
        {
          "indexed": false,
          "internalType": "uint256",
          "name": "newBossHp",
          "type": "uint256"
        },
        {
          "indexed": false,
          "internalType": "uint256",
          "name": "newPlayerHp",
          "type": "uint256"
        }
      ],
      "name": "AttackComplete",
      "type": "event"
    },
    {
      "anonymous": false,
      "inputs": [
        {
          "indexed": false,
          "internalType": "address",
          "name": "minter",
          "type": "address"
        },
        {
          "indexed": false,
          "internalType": "uint256",
          "name": "tokenId",
          "type": "uint256"
        },
        {
          "indexed": false,
          "internalType": "uint256",
          "name": "characterIndex",
          "type": "uint256"
        }
      ],
      "name": "CharacterMinted",
      "type": "event"
    },
    {
      "anonymous": false,
      "inputs": [
        {
          "indexed": true,
          "internalType": "address",
          "name": "from",
          "type": "address"
        },
        {
          "indexed": true,
          "internalType": "address",
          "name": "to",
          "type": "address"
        },
        {
          "indexed": true,
          "internalType": "uint256",
          "name": "tokenId",
          "type": "uint256"
        }
      ],
      "name": "Transfer",
      "type": "event"
    },
    {
      "inputs": [
        {
          "internalType": "address",
          "name": "to",
          "type": "address"
        },
        {
          "internalType": "uint256",
          "name": "tokenId",
          "type": "uint256"
        }
      ],
      "name": "approve",
      "outputs": [],
      "stateMutability": "nonpayable",
      "type": "function"
    },
    {
      "inputs": [
        {
          "internalType": "uint256",
          "name": "_tokenId",
          "type": "uint256"
        }
      ],
      "name": "attackBoss",
      "outputs": [],
      "stateMutability": "nonpayable",
      "type": "function"
    },
    {
      "inputs": [
        {
          "internalType": "address",
          "name": "owner",
          "type": "address"
        }
      ],
      "name": "balanceOf",
      "outputs": [
        {
          "internalType": "uint256",
          "name": "",
          "type": "uint256"
        }
      ],
      "stateMutability": "view",
      "type": "function"
    },
    {
      "inputs": [],
      "name": "bigBoss",
      "outputs": [
        {
          "internalType": "string",
          "name": "name",
          "type": "string"
        },
        {
          "internalType": "string",
          "name": "imageURI",
          "type": "string"
        },
        {
          "internalType": "uint256",
          "name": "hp",
          "type": "uint256"
        },
        {
          "internalType": "uint256",
          "name": "maxHp",
          "type": "uint256"
        },
        {
          "internalType": "uint256",
          "name": "attackDamage",
          "type": "uint256"
        }
      ],
      "stateMutability": "view",
      "type": "function"
    },
    {
      "inputs": [],
      "name": "getAllDefaultCharacters",
      "outputs": [
        {
          "components": [
            {
              "internalType": "uint256",
              "name": "characterIndex",
              "type": "uint256"
            },
            {
              "internalType": "string",
              "name": "name",
              "type": "string"
            },
            {
              "internalType": "string",
              "name": "imageURI",
              "type": "string"
            },
            {
              "internalType": "uint256",
              "name": "hp",
              "type": "uint256"
            },
            {
              "internalType": "uint256",
              "name": "maxHP",
              "type": "uint256"
            },
            {
              "internalType": "uint256",
              "name": "attackDamage",
              "type": "uint256"
            },
            {
              "internalType": "uint256",
              "name": "powerFactor",
              "type": "uint256"
            },
            {
              "internalType": "uint256",
              "name": "daysOff",
              "type": "uint256"
            },
            {
              "internalType": "uint256",
              "name": "lunchHour",
              "type": "uint256"
            }
          ],
          "internalType": "struct TeamAmericaSlayers.CharacterAttributes[]",
          "name": "",
          "type": "tuple[]"
        }
      ],
      "stateMutability": "view",
      "type": "function"
    },
    {
      "inputs": [
        {
          "internalType": "uint256",
          "name": "tokenId",
          "type": "uint256"
        }
      ],
      "name": "getApproved",
      "outputs": [
        {
          "internalType": "address",
          "name": "",
          "type": "address"
        }
      ],
      "stateMutability": "view",
      "type": "function"
    },
    {
      "inputs": [],
      "name": "getBigBoss",
      "outputs": [
        {
          "components": [
            {
              "internalType": "string",
              "name": "name",
              "type": "string"
            },
            {
              "internalType": "string",
              "name": "imageURI",
              "type": "string"
            },
            {
              "internalType": "uint256",
              "name": "hp",
              "type": "uint256"
            },
            {
              "internalType": "uint256",
              "name": "maxHp",
              "type": "uint256"
            },
            {
              "internalType": "uint256",
              "name": "attackDamage",
              "type": "uint256"
            }
          ],
          "internalType": "struct TeamAmericaSlayers.BigBoss",
          "name": "",
          "type": "tuple"
        }
      ],
      "stateMutability": "view",
      "type": "function"
    },
    {
      "inputs": [
        {
          "internalType": "address",
          "name": "owner",
          "type": "address"
        },
        {
          "internalType": "address",
          "name": "operator",
          "type": "address"
        }
      ],
      "name": "isApprovedForAll",
      "outputs": [
        {
          "internalType": "bool",
          "name": "",
          "type": "bool"
        }
      ],
      "stateMutability": "view",
      "type": "function"
    },
    {
      "inputs": [
        {
          "internalType": "uint256",
          "name": "_characterIndex",
          "type": "uint256"
        }
      ],
      "name": "mintNewCharacterNFT",
      "outputs": [],
      "stateMutability": "nonpayable",
      "type": "function"
    },
    {
      "inputs": [],
      "name": "name",
      "outputs": [
        {
          "internalType": "string",
          "name": "",
          "type": "string"
        }
      ],
      "stateMutability": "view",
      "type": "function"
    },
    {
      "inputs": [
        {
          "internalType": "uint256",
          "name": "",
          "type": "uint256"
        }
      ],
      "name": "nftCharacterAttributes",
      "outputs": [
        {
          "internalType": "uint256",
          "name": "characterIndex",
          "type": "uint256"
        },
        {
          "internalType": "string",
          "name": "name",
          "type": "string"
        },
        {
          "internalType": "string",
          "name": "imageURI",
          "type": "string"
        },
        {
          "internalType": "uint256",
          "name": "hp",
          "type": "uint256"
        },
        {
          "internalType": "uint256",
          "name": "maxHP",
          "type": "uint256"
        },
        {
          "internalType": "uint256",
          "name": "attackDamage",
          "type": "uint256"
        },
        {
          "internalType": "uint256",
          "name": "powerFactor",
          "type": "uint256"
        },
        {
          "internalType": "uint256",
          "name": "daysOff",
          "type": "uint256"
        },
        {
          "internalType": "uint256",
          "name": "lunchHour",
          "type": "uint256"
        }
      ],
      "stateMutability": "view",
      "type": "function"
    },
    {
      "inputs": [
        {
          "internalType": "uint256",
          "name": "",
          "type": "uint256"
        }
      ],
      "name": "nftHolders",
      "outputs": [
        {
          "internalType": "address",
          "name": "",
          "type": "address"
        }
      ],
      "stateMutability": "view",
      "type": "function"
    },
    {
      "inputs": [
        {
          "internalType": "uint256",
          "name": "tokenId",
          "type": "uint256"
        }
      ],
      "name": "ownerOf",
      "outputs": [
        {
          "internalType": "address",
          "name": "",
          "type": "address"
        }
      ],
      "stateMutability": "view",
      "type": "function"
    },
    {
      "inputs": [
        {
          "internalType": "address",
          "name": "from",
          "type": "address"
        },
        {
          "internalType": "address",
          "name": "to",
          "type": "address"
        },
        {
          "internalType": "uint256",
          "name": "tokenId",
          "type": "uint256"
        }
      ],
      "name": "safeTransferFrom",
      "outputs": [],
      "stateMutability": "nonpayable",
      "type": "function"
    },
    {
      "inputs": [
        {
          "internalType": "address",
          "name": "from",
          "type": "address"
        },
        {
          "internalType": "address",
          "name": "to",
          "type": "address"
        },
        {
          "internalType": "uint256",
          "name": "tokenId",
          "type": "uint256"
        },
        {
          "internalType": "bytes",
          "name": "_data",
          "type": "bytes"
        }
      ],
      "name": "safeTransferFrom",
      "outputs": [],
      "stateMutability": "nonpayable",
      "type": "function"
    },
    {
      "inputs": [
        {
          "internalType": "address",
          "name": "operator",
          "type": "address"
        },
        {
          "internalType": "bool",
          "name": "approved",
          "type": "bool"
        }
      ],
      "name": "setApprovalForAll",
      "outputs": [],
      "stateMutability": "nonpayable",
      "type": "function"
    },
    {
      "inputs": [
        {
          "internalType": "bytes4",
          "name": "interfaceId",
          "type": "bytes4"
        }
      ],
      "name": "supportsInterface",
      "outputs": [
        {
          "internalType": "bool",
          "name": "",
          "type": "bool"
        }
      ],
      "stateMutability": "view",
      "type": "function"
    },
    {
      "inputs": [],
      "name": "symbol",
      "outputs": [
        {
          "internalType": "string",
          "name": "",
          "type": "string"
        }
      ],
      "stateMutability": "view",
      "type": "function"
    },
    {
      "inputs": [
        {
          "internalType": "uint256",
          "name": "_tokenId",
          "type": "uint256"
        }
      ],
      "name": "tokenURI",
      "outputs": [
        {
          "internalType": "string",
          "name": "",
          "type": "string"
        }
      ],
      "stateMutability": "view",
      "type": "function"
    },
    {
      "inputs": [
        {
          "internalType": "address",
          "name": "from",
          "type": "address"
        },
        {
          "internalType": "address",
          "name": "to",
          "type": "address"
        },
        {
          "internalType": "uint256",
          "name": "tokenId",
          "type": "uint256"
        }
      ],
      "name": "transferFrom",
      "outputs": [],
      "stateMutability": "nonpayable",
      "type": "function"
    }
  ],
  "bytecode": "0x60806040523480156200001157600080fd5b506040516200626338038062006263833981810160405281019062000037919062000afe565b6040518060400160405280601981526020017f5465616d20416d657269636120536c61796572732042657461000000000000008152506040518060400160405280600381526020017f54415300000000000000000000000000000000000000000000000000000000008152508160009080519060200190620000bb92919062000891565b508060019080519060200190620000d492919062000891565b505050620001066040518060600160405280602581526020016200620f602591396200070660201b6200229b1760201c565b6040518060a0016040528085815260200184815260200183815260200183815260200182815250600660008201518160000190805190602001906200014d92919062000891565b5060208201518160010190805190602001906200016c92919062000891565b50604082015181600201556060820151816003015560808201518160040155905050620002596040518060600160405280602f815260200162006234602f913960066000018054620001be9062000e96565b80601f0160208091040260200160405190810160405280929190818152602001828054620001ec9062000e96565b80156200023d5780601f1062000211576101008083540402835291602001916200023d565b820191906000526020600020905b8154815290600101906020018083116200021f57829003601f168201915b5050505050600660020154620007a960201b620023341760201c565b60005b8851811015620006e057600c6040518061012001604052808381526020018b8481518110620002b4577f4e487b7100000000000000000000000000000000000000000000000000000000600052603260045260246000fd5b602002602001015181526020018a8481518110620002fb577f4e487b7100000000000000000000000000000000000000000000000000000000600052603260045260246000fd5b6020026020010151815260200189848151811062000342577f4e487b7100000000000000000000000000000000000000000000000000000000600052603260045260246000fd5b6020026020010151815260200189848151811062000389577f4e487b7100000000000000000000000000000000000000000000000000000000600052603260045260246000fd5b60200260200101518152602001888481518110620003d0577f4e487b7100000000000000000000000000000000000000000000000000000000600052603260045260246000fd5b602002602001015181526020016000815260200160008152602001600081525090806001815401808255809150506001900390600052602060002090600902016000909190919091506000820151816000015560208201518160010190805190602001906200044192919062000891565b5060408201518160020190805190602001906200046092919062000891565b50606082015181600301556080820151816004015560a0820151816005015560c0820151816006015560e08201518160070155610100820151816008015550506000600c8281548110620004dd577f4e487b7100000000000000000000000000000000000000000000000000000000600052603260045260246000fd5b90600052602060002090600902016040518061012001604052908160008201548152602001600182018054620005139062000e96565b80601f0160208091040260200160405190810160405280929190818152602001828054620005419062000e96565b8015620005925780601f10620005665761010080835404028352916020019162000592565b820191906000526020600020905b8154815290600101906020018083116200057457829003601f168201915b50505050508152602001600282018054620005ad9062000e96565b80601f0160208091040260200160405190810160405280929190818152602001828054620005db9062000e96565b80156200062c5780601f1062000600576101008083540402835291602001916200062c565b820191906000526020600020905b8154815290600101906020018083116200060e57829003601f168201915b5050505050815260200160038201548152602001600482015481526020016005820154815260200160068201548152602001600782015481526020016008820154815250509050620006c86040518060400160405280601781526020017f496e697469616c697a656420257320772f20257320485000000000000000000081525082602001518360600151620007a960201b620023341760201c565b50600181620006d8919062000df9565b90506200025c565b50620006f8600b6200085260201b620023d31760201c565b505050505050505062000f84565b620007a6816040516024016200071d919062000ca9565b6040516020818303038152906040527f41304fac000000000000000000000000000000000000000000000000000000007bffffffffffffffffffffffffffffffffffffffffffffffffffffffff19166020820180517bffffffffffffffffffffffffffffffffffffffffffffffffffffffff83818316178352505050506200086860201b60201c565b50565b6200084d838383604051602401620007c49392919062000ccd565b6040516020818303038152906040527ff362ca59000000000000000000000000000000000000000000000000000000007bffffffffffffffffffffffffffffffffffffffffffffffffffffffff19166020820180517bffffffffffffffffffffffffffffffffffffffffffffffffffffffff83818316178352505050506200086860201b60201c565b505050565b6001816000016000828254019250508190555050565b60008151905060006a636f6e736f6c652e6c6f679050602083016000808483855afa5050505050565b8280546200089f9062000e96565b90600052602060002090601f016020900481019282620008c357600085556200090f565b82601f10620008de57805160ff19168380011785556200090f565b828001600101855582156200090f579182015b828111156200090e578251825591602001919060010190620008f1565b5b5090506200091e919062000922565b5090565b5b808211156200093d57600081600090555060010162000923565b5090565b600062000958620009528462000d4c565b62000d18565b9050808382526020820190508260005b858110156200099c578151850162000981888262000aba565b84526020840193506020830192505060018101905062000968565b5050509392505050565b6000620009bd620009b78462000d7b565b62000d18565b90508083825260208201905082856020860282011115620009dd57600080fd5b60005b8581101562000a115781620009f6888262000ae7565b845260208401935060208301925050600181019050620009e0565b5050509392505050565b600062000a3262000a2c8462000daa565b62000d18565b90508281526020810184848401111562000a4b57600080fd5b62000a5884828562000e60565b509392505050565b600082601f83011262000a7257600080fd5b815162000a8484826020860162000941565b91505092915050565b600082601f83011262000a9f57600080fd5b815162000ab1848260208601620009a6565b91505092915050565b600082601f83011262000acc57600080fd5b815162000ade84826020860162000a1b565b91505092915050565b60008151905062000af88162000f6a565b92915050565b600080600080600080600080610100898b03121562000b1c57600080fd5b600089015167ffffffffffffffff81111562000b3757600080fd5b62000b458b828c0162000a60565b985050602089015167ffffffffffffffff81111562000b6357600080fd5b62000b718b828c0162000a60565b975050604089015167ffffffffffffffff81111562000b8f57600080fd5b62000b9d8b828c0162000a8d565b965050606089015167ffffffffffffffff81111562000bbb57600080fd5b62000bc98b828c0162000a8d565b955050608089015167ffffffffffffffff81111562000be757600080fd5b62000bf58b828c0162000aba565b94505060a089015167ffffffffffffffff81111562000c1357600080fd5b62000c218b828c0162000aba565b93505060c062000c348b828c0162000ae7565b92505060e062000c478b828c0162000ae7565b9150509295985092959890939650565b600062000c648262000ddd565b62000c70818562000de8565b935062000c8281856020860162000e60565b62000c8d8162000f59565b840191505092915050565b62000ca38162000e56565b82525050565b6000602082019050818103600083015262000cc5818462000c57565b905092915050565b6000606082019050818103600083015262000ce9818662000c57565b9050818103602083015262000cff818562000c57565b905062000d10604083018462000c98565b949350505050565b6000604051905081810181811067ffffffffffffffff8211171562000d425762000d4162000f2a565b5b8060405250919050565b600067ffffffffffffffff82111562000d6a5762000d6962000f2a565b5b602082029050602081019050919050565b600067ffffffffffffffff82111562000d995762000d9862000f2a565b5b602082029050602081019050919050565b600067ffffffffffffffff82111562000dc85762000dc762000f2a565b5b601f19601f8301169050602081019050919050565b600081519050919050565b600082825260208201905092915050565b600062000e068262000e56565b915062000e138362000e56565b9250827fffffffffffffffffffffffffffffffffffffffffffffffffffffffffffffffff0382111562000e4b5762000e4a62000ecc565b5b828201905092915050565b6000819050919050565b60005b8381101562000e8057808201518184015260208101905062000e63565b8381111562000e90576000848401525b50505050565b6000600282049050600182168062000eaf57607f821691505b6020821081141562000ec65762000ec562000efb565b5b50919050565b7f4e487b7100000000000000000000000000000000000000000000000000000000600052601160045260246000fd5b7f4e487b7100000000000000000000000000000000000000000000000000000000600052602260045260246000fd5b7f4e487b7100000000000000000000000000000000000000000000000000000000600052604160045260246000fd5b6000601f19601f8301169050919050565b62000f758162000e56565b811462000f8157600080fd5b50565b61527b8062000f946000396000f3fe608060405234801561001057600080fd5b506004361061012c5760003560e01c806370a08231116100ad578063b88d4fde11610071578063b88d4fde1461034d578063b953084e14610369578063c87b56dd14610387578063e985e9c5146103b7578063fd32dd9e146103e75761012c565b806370a082311461028957806395d89b41146102b95780639a40e199146102d7578063a22cb4651461030f578063a9c326791461032b5761012c565b8063095ea7b3116100f4578063095ea7b3146101e957806323b872dd14610205578063381ed0b81461022157806342842e0e1461023d5780636352211e146102595761012c565b806301ffc9a7146101315780630619f932146101615780630665f9611461017d57806306fdde031461019b578063081812fc146101b9575b600080fd5b61014b6004803603810190610146919061367a565b610417565b60405161015891906146a9565b60405180910390f35b61017b600480360381019061017691906136cc565b6104f9565b005b610185610d2f565b6040516101929190614ac3565b60405180910390f35b6101a3610e8b565b6040516101b091906146c4565b60405180910390f35b6101d360048036038101906101ce91906136cc565b610f1d565b6040516101e091906145e9565b60405180910390f35b61020360048036038101906101fe919061363e565b610fa2565b005b61021f600480360381019061021a9190613538565b6110ba565b005b61023b600480360381019061023691906136cc565b61111a565b005b61025760048036038101906102529190613538565b611702565b005b610273600480360381019061026e91906136cc565b611722565b60405161028091906145e9565b60405180910390f35b6102a3600480360381019061029e91906134d3565b6117d4565b6040516102b09190614ae5565b60405180910390f35b6102c161188c565b6040516102ce91906146c4565b60405180910390f35b6102f160048036038101906102ec91906136cc565b61191e565b60405161030699989796959493929190614b00565b60405180910390f35b61032960048036038101906103249190613602565b611a7c565b005b610333611bfd565b6040516103449594939291906147ca565b60405180910390f35b61036760048036038101906103629190613587565b611d31565b005b610371611d93565b60405161037e9190614687565b60405180910390f35b6103a1600480360381019061039c91906136cc565b611f5d565b6040516103ae91906146c4565b60405180910390f35b6103d160048036038101906103cc91906134fc565b6121d4565b6040516103de91906146a9565b60405180910390f35b61040160048036038101906103fc91906136cc565b612268565b60405161040e91906145e9565b60405180910390f35b60007f80ac58cd000000000000000000000000000000000000000000000000000000007bffffffffffffffffffffffffffffffffffffffffffffffffffffffff1916827bffffffffffffffffffffffffffffffffffffffffffffffffffffffff191614806104e257507f5b5e139f000000000000000000000000000000000000000000000000000000007bffffffffffffffffffffffffffffffffffffffffffffffffffffffff1916827bffffffffffffffffffffffffffffffffffffffffffffffffffffffff1916145b806104f257506104f1826123e9565b5b9050919050565b3373ffffffffffffffffffffffffffffffffffffffff16600e600083815260200190815260200160002060009054906101000a900473ffffffffffffffffffffffffffffffffffffffff1673ffffffffffffffffffffffffffffffffffffffff161461059a576040517f08c379a000000000000000000000000000000000000000000000000000000000815260040161059190614943565b60405180910390fd5b6000600d60008381526020019081526020016000209050610669604051806080016040528060548152602001615122605491398260010180546105dc90614e7d565b80601f016020809104026020016040519081016040528092919081815260200182805461060890614e7d565b80156106555780601f1061062a57610100808354040283529160200191610655565b820191906000526020600020905b81548152906001019060200180831161063857829003601f168201915b505050505083600301548460050154612453565b610724604051806060016040528060228152602001615224602291396006600001805461069590614e7d565b80601f01602080910402602001604051908101604052809291908181526020018280546106c190614e7d565b801561070e5780601f106106e35761010080835404028352916020019161070e565b820191906000526020600020905b8154815290600101906020018083116106f157829003601f168201915b5050505050600660020154600660040154612453565b600081600301541161076b576040517f08c379a0000000000000000000000000000000000000000000000000000000008152600401610762906148c3565b60405180910390fd5b6000600660020154116107b3576040517f08c379a00000000000000000000000000000000000000000000000000000000081526004016107aa90614923565b60405180910390fd5b806005015460066002015410156107d45760006006600201819055506107f3565b80600501546006600201546107e99190614d93565b6006600201819055505b600660040154816003015410156108135760008160030181905550610831565b60066004015481600301546108289190614d93565b81600301819055505b60008160030154141561097f5761097a6040518060600160405280602181526020016150956021913982600101805461086990614e7d565b80601f016020809104026020016040519081016040528092919081815260200182805461089590614e7d565b80156108e25780601f106108b7576101008083540402835291602001916108e2565b820191906000526020600020905b8154815290600101906020018083116108c557829003601f168201915b5050505050600660000180546108f790614e7d565b80601f016020809104026020016040519081016040528092919081815260200182805461092390614e7d565b80156109705780601f1061094557610100808354040283529160200191610970565b820191906000526020600020905b81548152906001019060200180831161095357829003601f168201915b50505050506124f5565b610ce9565b60006006600201541415610ace57610ac9604051806080016040528060428152602001615053604291398260010180546109b890614e7d565b80601f01602080910402602001604051908101604052809291908181526020018280546109e490614e7d565b8015610a315780601f10610a0657610100808354040283529160200191610a31565b820191906000526020600020905b815481529060010190602001808311610a1457829003601f168201915b505050505060066000018054610a4690614e7d565b80601f0160208091040260200160405190810160405280929190818152602001828054610a7290614e7d565b8015610abf5780601f10610a9457610100808354040283529160200191610abf565b820191906000526020600020905b815481529060010190602001808311610aa257829003601f168201915b50505050506124f5565b610ce8565b6000600660020154148015610ae7575060008160030154145b15610c2d57610c286040518060800160405280604d8152602001615176604d913960066000018054610b1890614e7d565b80601f0160208091040260200160405190810160405280929190818152602001828054610b4490614e7d565b8015610b915780601f10610b6657610100808354040283529160200191610b91565b820191906000526020600020905b815481529060010190602001808311610b7457829003601f168201915b5050505050836001018054610ba590614e7d565b80601f0160208091040260200160405190810160405280929190818152602001828054610bd190614e7d565b8015610c1e5780601f10610bf357610100808354040283529160200191610c1e565b820191906000526020600020905b815481529060010190602001808311610c0157829003601f168201915b50505050506124f5565b610ce7565b610ce66040518060a00160405280606181526020016151c360619139600660020154836001018054610c5e90614e7d565b80601f0160208091040260200160405190810160405280929190818152602001828054610c8a90614e7d565b8015610cd75780601f10610cac57610100808354040283529160200191610cd7565b820191906000526020600020905b815481529060010190602001808311610cba57829003601f168201915b50505050508460030154612594565b5b5b5b7f838ab28464562786a6c4ab2311964b82fa60bd9b14aa7e856af1f3f18d41a4146006600201548260030154604051610d23929190614b9b565b60405180910390a15050565b610d37613330565b60066040518060a0016040529081600082018054610d5490614e7d565b80601f0160208091040260200160405190810160405280929190818152602001828054610d8090614e7d565b8015610dcd5780601f10610da257610100808354040283529160200191610dcd565b820191906000526020600020905b815481529060010190602001808311610db057829003601f168201915b50505050508152602001600182018054610de690614e7d565b80601f0160208091040260200160405190810160405280929190818152602001828054610e1290614e7d565b8015610e5f5780601f10610e3457610100808354040283529160200191610e5f565b820191906000526020600020905b815481529060010190602001808311610e4257829003601f168201915b505050505081526020016002820154815260200160038201548152602001600482015481525050905090565b606060008054610e9a90614e7d565b80601f0160208091040260200160405190810160405280929190818152602001828054610ec690614e7d565b8015610f135780601f10610ee857610100808354040283529160200191610f13565b820191906000526020600020905b815481529060010190602001808311610ef657829003601f168201915b5050505050905090565b6000610f2882612636565b610f67576040517f08c379a0000000000000000000000000000000000000000000000000000000008152600401610f5e90614a43565b60405180910390fd5b6004600083815260200190815260200160002060009054906101000a900473ffffffffffffffffffffffffffffffffffffffff169050919050565b6000610fad82611722565b90508073ffffffffffffffffffffffffffffffffffffffff168373ffffffffffffffffffffffffffffffffffffffff16141561101e576040517f08c379a000000000000000000000000000000000000000000000000000000000815260040161101590614a83565b60405180910390fd5b8073ffffffffffffffffffffffffffffffffffffffff1661103d6126a2565b73ffffffffffffffffffffffffffffffffffffffff16148061106c575061106b816110666126a2565b6121d4565b5b6110ab576040517f08c379a00000000000000000000000000000000000000000000000000000000081526004016110a2906149c3565b60405180910390fd5b6110b583836126aa565b505050565b6110cb6110c56126a2565b82612763565b61110a576040517f08c379a000000000000000000000000000000000000000000000000000000000815260040161110190614aa3565b60405180910390fd5b611115838383612841565b505050565b6000611126600b612a9d565b90506111323382612aab565b604051806101200160405280838152602001600c848154811061117e577f4e487b7100000000000000000000000000000000000000000000000000000000600052603260045260246000fd5b9060005260206000209060090201600101805461119a90614e7d565b80601f01602080910402602001604051908101604052809291908181526020018280546111c690614e7d565b80156112135780601f106111e857610100808354040283529160200191611213565b820191906000526020600020905b8154815290600101906020018083116111f657829003601f168201915b50505050508152602001600c8481548110611257577f4e487b7100000000000000000000000000000000000000000000000000000000600052603260045260246000fd5b9060005260206000209060090201600201805461127390614e7d565b80601f016020809104026020016040519081016040528092919081815260200182805461129f90614e7d565b80156112ec5780601f106112c1576101008083540402835291602001916112ec565b820191906000526020600020905b8154815290600101906020018083116112cf57829003601f168201915b50505050508152602001600c8481548110611330577f4e487b7100000000000000000000000000000000000000000000000000000000600052603260045260246000fd5b9060005260206000209060090201600301548152602001600c8481548110611381577f4e487b7100000000000000000000000000000000000000000000000000000000600052603260045260246000fd5b9060005260206000209060090201600401548152602001600c84815481106113d2577f4e487b7100000000000000000000000000000000000000000000000000000000600052603260045260246000fd5b9060005260206000209060090201600501548152602001600c8481548110611423577f4e487b7100000000000000000000000000000000000000000000000000000000600052603260045260246000fd5b9060005260206000209060090201600601548152602001600c8481548110611474577f4e487b7100000000000000000000000000000000000000000000000000000000600052603260045260246000fd5b9060005260206000209060090201600701548152602001600c84815481106114c5577f4e487b7100000000000000000000000000000000000000000000000000000000600052603260045260246000fd5b906000526020600020906009020160080154815250600d600083815260200190815260200160002060008201518160000155602082015181600101908051906020019061151392919061335f565b50604082015181600201908051906020019061153092919061335f565b50606082015181600301556080820151816004015560a0820151816005015560c0820151816006015560e0820151816007015561010082015181600801559050506116676040518060600160405280602c81526020016150b6602c913982600c85815481106115c8577f4e487b7100000000000000000000000000000000000000000000000000000000600052603260045260246000fd5b906000526020600020906009020160010180546115e490614e7d565b80601f016020809104026020016040519081016040528092919081815260200182805461161090614e7d565b801561165d5780601f106116325761010080835404028352916020019161165d565b820191906000526020600020905b81548152906001019060200180831161164057829003601f168201915b5050505050612ac9565b33600e600083815260200190815260200160002060006101000a81548173ffffffffffffffffffffffffffffffffffffffff021916908373ffffffffffffffffffffffffffffffffffffffff1602179055506116c3600b6123d3565b7f9ebada08c3c21c172cc2a10a368461cde692195ac0db54584007867b48b68b1b3382846040516116f693929190614650565b60405180910390a15050565b61171d83838360405180602001604052806000815250611d31565b505050565b6000806002600084815260200190815260200160002060009054906101000a900473ffffffffffffffffffffffffffffffffffffffff169050600073ffffffffffffffffffffffffffffffffffffffff168173ffffffffffffffffffffffffffffffffffffffff1614156117cb576040517f08c379a00000000000000000000000000000000000000000000000000000000081526004016117c290614a03565b60405180910390fd5b80915050919050565b60008073ffffffffffffffffffffffffffffffffffffffff168273ffffffffffffffffffffffffffffffffffffffff161415611845576040517f08c379a000000000000000000000000000000000000000000000000000000000815260040161183c906149e3565b60405180910390fd5b600360008373ffffffffffffffffffffffffffffffffffffffff1673ffffffffffffffffffffffffffffffffffffffff168152602001908152602001600020549050919050565b60606001805461189b90614e7d565b80601f01602080910402602001604051908101604052809291908181526020018280546118c790614e7d565b80156119145780601f106118e957610100808354040283529160200191611914565b820191906000526020600020905b8154815290600101906020018083116118f757829003601f168201915b5050505050905090565b600d60205280600052604060002060009150905080600001549080600101805461194790614e7d565b80601f016020809104026020016040519081016040528092919081815260200182805461197390614e7d565b80156119c05780601f10611995576101008083540402835291602001916119c0565b820191906000526020600020905b8154815290600101906020018083116119a357829003601f168201915b5050505050908060020180546119d590614e7d565b80601f0160208091040260200160405190810160405280929190818152602001828054611a0190614e7d565b8015611a4e5780601f10611a2357610100808354040283529160200191611a4e565b820191906000526020600020905b815481529060010190602001808311611a3157829003601f168201915b5050505050908060030154908060040154908060050154908060060154908060070154908060080154905089565b611a846126a2565b73ffffffffffffffffffffffffffffffffffffffff168273ffffffffffffffffffffffffffffffffffffffff161415611af2576040517f08c379a0000000000000000000000000000000000000000000000000000000008152600401611ae990614983565b60405180910390fd5b8060056000611aff6126a2565b73ffffffffffffffffffffffffffffffffffffffff1673ffffffffffffffffffffffffffffffffffffffff16815260200190815260200160002060008473ffffffffffffffffffffffffffffffffffffffff1673ffffffffffffffffffffffffffffffffffffffff16815260200190815260200160002060006101000a81548160ff0219169083151502179055508173ffffffffffffffffffffffffffffffffffffffff16611bac6126a2565b73ffffffffffffffffffffffffffffffffffffffff167f17307eab39ab6107e8899845ad3d59bd9653f200f220920489ca2b5937696c3183604051611bf191906146a9565b60405180910390a35050565b6006806000018054611c0e90614e7d565b80601f0160208091040260200160405190810160405280929190818152602001828054611c3a90614e7d565b8015611c875780601f10611c5c57610100808354040283529160200191611c87565b820191906000526020600020905b815481529060010190602001808311611c6a57829003601f168201915b505050505090806001018054611c9c90614e7d565b80601f0160208091040260200160405190810160405280929190818152602001828054611cc890614e7d565b8015611d155780601f10611cea57610100808354040283529160200191611d15565b820191906000526020600020905b815481529060010190602001808311611cf857829003601f168201915b5050505050908060020154908060030154908060040154905085565b611d42611d3c6126a2565b83612763565b611d81576040517f08c379a0000000000000000000000000000000000000000000000000000000008152600401611d7890614aa3565b60405180910390fd5b611d8d84848484612b68565b50505050565b6060600c805480602002602001604051908101604052809291908181526020016000905b82821015611f5457838290600052602060002090600902016040518061012001604052908160008201548152602001600182018054611df590614e7d565b80601f0160208091040260200160405190810160405280929190818152602001828054611e2190614e7d565b8015611e6e5780601f10611e4357610100808354040283529160200191611e6e565b820191906000526020600020905b815481529060010190602001808311611e5157829003601f168201915b50505050508152602001600282018054611e8790614e7d565b80601f0160208091040260200160405190810160405280929190818152602001828054611eb390614e7d565b8015611f005780601f10611ed557610100808354040283529160200191611f00565b820191906000526020600020905b815481529060010190602001808311611ee357829003601f168201915b50505050508152602001600382015481526020016004820154815260200160058201548152602001600682015481526020016007820154815260200160088201548152505081526020019060010190611db7565b50505050905090565b60606000600d60008481526020019081526020016000206040518061012001604052908160008201548152602001600182018054611f9a90614e7d565b80601f0160208091040260200160405190810160405280929190818152602001828054611fc690614e7d565b80156120135780601f10611fe857610100808354040283529160200191612013565b820191906000526020600020905b815481529060010190602001808311611ff657829003601f168201915b5050505050815260200160028201805461202c90614e7d565b80601f016020809104026020016040519081016040528092919081815260200182805461205890614e7d565b80156120a55780601f1061207a576101008083540402835291602001916120a5565b820191906000526020600020905b81548152906001019060200180831161208857829003601f168201915b505050505081526020016003820154815260200160048201548152602001600582015481526020016006820154815260200160078201548152602001600882015481525050905060006120fb8260600151612bc4565b9050600061210c8360800151612bc4565b9050600061211d8460a00151612bc4565b9050600061212e8560c00151612bc4565b9050600061213f8660e00151612bc4565b90506000612151876101000151612bc4565b9050600061219d88602001516121668c612bc4565b8a604001518a8a8a8a8a8a604051602001612189999897969594939291906144a3565b604051602081830303815290604052612d71565b90506000816040516020016121b291906145c7565b6040516020818303038152906040529050809950505050505050505050919050565b6000600560008473ffffffffffffffffffffffffffffffffffffffff1673ffffffffffffffffffffffffffffffffffffffff16815260200190815260200160002060008373ffffffffffffffffffffffffffffffffffffffff1673ffffffffffffffffffffffffffffffffffffffff16815260200190815260200160002060009054906101000a900460ff16905092915050565b600e6020528060005260406000206000915054906101000a900473ffffffffffffffffffffffffffffffffffffffff1681565b612331816040516024016122af91906146c4565b6040516020818303038152906040527f41304fac000000000000000000000000000000000000000000000000000000007bffffffffffffffffffffffffffffffffffffffffffffffffffffffff19166020820180517bffffffffffffffffffffffffffffffffffffffffffffffffffffffff8381831617835250505050612f2f565b50565b6123ce83838360405160240161234c93929190614732565b6040516020818303038152906040527ff362ca59000000000000000000000000000000000000000000000000000000007bffffffffffffffffffffffffffffffffffffffffffffffffffffffff19166020820180517bffffffffffffffffffffffffffffffffffffffffffffffffffffffff8381831617835250505050612f2f565b505050565b6001816000016000828254019250508190555050565b60007f01ffc9a7000000000000000000000000000000000000000000000000000000007bffffffffffffffffffffffffffffffffffffffffffffffffffffffff1916827bffffffffffffffffffffffffffffffffffffffffffffffffffffffff1916149050919050565b6124ef8484848460405160240161246d9493929190614777565b6040516020818303038152906040527fd5cf17d0000000000000000000000000000000000000000000000000000000007bffffffffffffffffffffffffffffffffffffffffffffffffffffffff19166020820180517bffffffffffffffffffffffffffffffffffffffffffffffffffffffff8381831617835250505050612f2f565b50505050565b61258f83838360405160240161250d939291906146e6565b6040516020818303038152906040527f2ced7cef000000000000000000000000000000000000000000000000000000007bffffffffffffffffffffffffffffffffffffffffffffffffffffffff19166020820180517bffffffffffffffffffffffffffffffffffffffffffffffffffffffff8381831617835250505050612f2f565b505050565b612630848484846040516024016125ae9493929190614870565b6040516020818303038152906040527fa0c4b225000000000000000000000000000000000000000000000000000000007bffffffffffffffffffffffffffffffffffffffffffffffffffffffff19166020820180517bffffffffffffffffffffffffffffffffffffffffffffffffffffffff8381831617835250505050612f2f565b50505050565b60008073ffffffffffffffffffffffffffffffffffffffff166002600084815260200190815260200160002060009054906101000a900473ffffffffffffffffffffffffffffffffffffffff1673ffffffffffffffffffffffffffffffffffffffff1614159050919050565b600033905090565b816004600083815260200190815260200160002060006101000a81548173ffffffffffffffffffffffffffffffffffffffff021916908373ffffffffffffffffffffffffffffffffffffffff160217905550808273ffffffffffffffffffffffffffffffffffffffff1661271d83611722565b73ffffffffffffffffffffffffffffffffffffffff167f8c5be1e5ebec7d5bd14f71427d1e84f3dd0314c0f7b2291e5b200ac8c7c3b92560405160405180910390a45050565b600061276e82612636565b6127ad576040517f08c379a00000000000000000000000000000000000000000000000000000000081526004016127a4906149a3565b60405180910390fd5b60006127b883611722565b90508073ffffffffffffffffffffffffffffffffffffffff168473ffffffffffffffffffffffffffffffffffffffff16148061282757508373ffffffffffffffffffffffffffffffffffffffff1661280f84610f1d565b73ffffffffffffffffffffffffffffffffffffffff16145b80612838575061283781856121d4565b5b91505092915050565b8273ffffffffffffffffffffffffffffffffffffffff1661286182611722565b73ffffffffffffffffffffffffffffffffffffffff16146128b7576040517f08c379a00000000000000000000000000000000000000000000000000000000081526004016128ae90614a63565b60405180910390fd5b600073ffffffffffffffffffffffffffffffffffffffff168273ffffffffffffffffffffffffffffffffffffffff161415612927576040517f08c379a000000000000000000000000000000000000000000000000000000000815260040161291e90614963565b60405180910390fd5b612932838383612f58565b61293d6000826126aa565b6001600360008573ffffffffffffffffffffffffffffffffffffffff1673ffffffffffffffffffffffffffffffffffffffff168152602001908152602001600020600082825461298d9190614d93565b925050819055506001600360008473ffffffffffffffffffffffffffffffffffffffff1673ffffffffffffffffffffffffffffffffffffffff16815260200190815260200160002060008282546129e49190614cb2565b92505081905550816002600083815260200190815260200160002060006101000a81548173ffffffffffffffffffffffffffffffffffffffff021916908373ffffffffffffffffffffffffffffffffffffffff160217905550808273ffffffffffffffffffffffffffffffffffffffff168473ffffffffffffffffffffffffffffffffffffffff167fddf252ad1be2c89b69c2b068fc378daa952ba7f163c4a11628f55a4df523b3ef60405160405180910390a4505050565b600081600001549050919050565b612ac5828260405180602001604052806000815250612f5d565b5050565b612b63838383604051602401612ae19392919061482b565b6040516020818303038152906040527fa3f5c739000000000000000000000000000000000000000000000000000000007bffffffffffffffffffffffffffffffffffffffffffffffffffffffff19166020820180517bffffffffffffffffffffffffffffffffffffffffffffffffffffffff8381831617835250505050612f2f565b505050565b612b73848484612841565b612b7f84848484612fb8565b612bbe576040517f08c379a0000000000000000000000000000000000000000000000000000000008152600401612bb5906148e3565b60405180910390fd5b50505050565b60606000821415612c0c576040518060400160405280600181526020017f30000000000000000000000000000000000000000000000000000000000000008152509050612d6c565b600082905060005b60008214612c3e578080612c2790614eaf565b915050600a82612c379190614d08565b9150612c14565b60008167ffffffffffffffff811115612c80577f4e487b7100000000000000000000000000000000000000000000000000000000600052604160045260246000fd5b6040519080825280601f01601f191660200182016040528015612cb25781602001600182028036833780820191505090505b5090505b60008514612d6557600182612ccb9190614d93565b9150600a85612cda9190614ef8565b6030612ce69190614cb2565b60f81b818381518110612d22577f4e487b7100000000000000000000000000000000000000000000000000000000600052603260045260246000fd5b60200101907effffffffffffffffffffffffffffffffffffffffffffffffffffffffffffff1916908160001a905350600a85612d5e9190614d08565b9450612cb6565b8093505050505b919050565b60606000825190506000811415612d9a5760405180602001604052806000815250915050612f2a565b60006003600283612dab9190614cb2565b612db59190614d08565b6004612dc19190614d39565b90506000602082612dd29190614cb2565b67ffffffffffffffff811115612e11577f4e487b7100000000000000000000000000000000000000000000000000000000600052604160045260246000fd5b6040519080825280601f01601f191660200182016040528015612e435781602001600182028036833780820191505090505b50905060006040518060600160405280604081526020016150e2604091399050600181016020830160005b86811015612ee75760038101905062ffffff818a015116603f8160121c168401518060081b905060ff603f83600c1c1686015116810190508060081b905060ff603f8360061c1686015116810190508060081b905060ff603f831686015116810190508060e01b90508084526004840193505050612e6e565b506003860660018114612f015760028114612f1157612f1c565b613d3d60f01b6002830352612f1c565b603d60f81b60018303525b508484525050819450505050505b919050565b60008151905060006a636f6e736f6c652e6c6f679050602083016000808483855afa5050505050565b505050565b612f67838361314f565b612f746000848484612fb8565b612fb3576040517f08c379a0000000000000000000000000000000000000000000000000000000008152600401612faa906148e3565b60405180910390fd5b505050565b6000612fd98473ffffffffffffffffffffffffffffffffffffffff1661331d565b15613142578373ffffffffffffffffffffffffffffffffffffffff1663150b7a026130026126a2565b8786866040518563ffffffff1660e01b81526004016130249493929190614604565b602060405180830381600087803b15801561303e57600080fd5b505af192505050801561306f57506040513d601f19601f8201168201806040525081019061306c91906136a3565b60015b6130f2573d806000811461309f576040519150601f19603f3d011682016040523d82523d6000602084013e6130a4565b606091505b506000815114156130ea576040517f08c379a00000000000000000000000000000000000000000000000000000000081526004016130e1906148e3565b60405180910390fd5b805181602001fd5b63150b7a0260e01b7bffffffffffffffffffffffffffffffffffffffffffffffffffffffff1916817bffffffffffffffffffffffffffffffffffffffffffffffffffffffff191614915050613147565b600190505b949350505050565b600073ffffffffffffffffffffffffffffffffffffffff168273ffffffffffffffffffffffffffffffffffffffff1614156131bf576040517f08c379a00000000000000000000000000000000000000000000000000000000081526004016131b690614a23565b60405180910390fd5b6131c881612636565b15613208576040517f08c379a00000000000000000000000000000000000000000000000000000000081526004016131ff90614903565b60405180910390fd5b61321460008383612f58565b6001600360008473ffffffffffffffffffffffffffffffffffffffff1673ffffffffffffffffffffffffffffffffffffffff16815260200190815260200160002060008282546132649190614cb2565b92505081905550816002600083815260200190815260200160002060006101000a81548173ffffffffffffffffffffffffffffffffffffffff021916908373ffffffffffffffffffffffffffffffffffffffff160217905550808273ffffffffffffffffffffffffffffffffffffffff16600073ffffffffffffffffffffffffffffffffffffffff167fddf252ad1be2c89b69c2b068fc378daa952ba7f163c4a11628f55a4df523b3ef60405160405180910390a45050565b600080823b905060008111915050919050565b6040518060a0016040528060608152602001606081526020016000815260200160008152602001600081525090565b82805461336b90614e7d565b90600052602060002090601f01602090048101928261338d57600085556133d4565b82601f106133a657805160ff19168380011785556133d4565b828001600101855582156133d4579182015b828111156133d35782518255916020019190600101906133b8565b5b5090506133e191906133e5565b5090565b5b808211156133fe5760008160009055506001016133e6565b5090565b600061341561341084614bf5565b614bc4565b90508281526020810184848401111561342d57600080fd5b613438848285614e3b565b509392505050565b60008135905061344f81614ff6565b92915050565b6000813590506134648161500d565b92915050565b60008135905061347981615024565b92915050565b60008151905061348e81615024565b92915050565b600082601f8301126134a557600080fd5b81356134b5848260208601613402565b91505092915050565b6000813590506134cd8161503b565b92915050565b6000602082840312156134e557600080fd5b60006134f384828501613440565b91505092915050565b6000806040838503121561350f57600080fd5b600061351d85828601613440565b925050602061352e85828601613440565b9150509250929050565b60008060006060848603121561354d57600080fd5b600061355b86828701613440565b935050602061356c86828701613440565b925050604061357d868287016134be565b9150509250925092565b6000806000806080858703121561359d57600080fd5b60006135ab87828801613440565b94505060206135bc87828801613440565b93505060406135cd878288016134be565b925050606085013567ffffffffffffffff8111156135ea57600080fd5b6135f687828801613494565b91505092959194509250565b6000806040838503121561361557600080fd5b600061362385828601613440565b925050602061363485828601613455565b9150509250929050565b6000806040838503121561365157600080fd5b600061365f85828601613440565b9250506020613670858286016134be565b9150509250929050565b60006020828403121561368c57600080fd5b600061369a8482850161346a565b91505092915050565b6000602082840312156136b557600080fd5b60006136c38482850161347f565b91505092915050565b6000602082840312156136de57600080fd5b60006136ec848285016134be565b91505092915050565b600061370183836143b9565b905092915050565b61371281614dc7565b82525050565b600061372382614c35565b61372d8185614c63565b93508360208202850161373f85614c25565b8060005b8581101561377b578484038952815161375c85826136f5565b945061376783614c56565b925060208a01995050600181019050613743565b50829750879550505050505092915050565b61379681614dd9565b82525050565b60006137a782614c40565b6137b18185614c74565b93506137c1818560208601614e4a565b6137ca81614fe5565b840191505092915050565b60006137e082614c4b565b6137ea8185614c85565b93506137fa818560208601614e4a565b61380381614fe5565b840191505092915050565b600061381982614c4b565b6138238185614c96565b9350613833818560208601614e4a565b61383c81614fe5565b840191505092915050565b600061385282614c4b565b61385c8185614ca7565b935061386c818560208601614e4a565b80840191505092915050565b6000613885600283614ca7565b91507f7d2c0000000000000000000000000000000000000000000000000000000000006000830152600282019050919050565b60006138c5600b83614ca7565b91507f202d2d204e465420233a200000000000000000000000000000000000000000006000830152600b82019050919050565b6000613905602283614c96565b91507f4572726f723a2063686172616374657220686173206e6f2048502e20522e492e60008301527f502e0000000000000000000000000000000000000000000000000000000000006020830152604082019050919050565b600061396b600d83614ca7565b91507f2c226d61785f76616c7565223a000000000000000000000000000000000000006000830152600d82019050919050565b60006139ab600983614ca7565b91507f7b226e616d65223a2200000000000000000000000000000000000000000000006000830152600982019050919050565b60006139eb603283614c96565b91507f4552433732313a207472616e7366657220746f206e6f6e20455243373231526560008301527f63656976657220696d706c656d656e74657200000000000000000000000000006020830152604082019050919050565b6000613a51602683614ca7565b91507f7b2274726169745f74797065223a2241747461636b2044616d616765222c227660008301527f616c7565223a00000000000000000000000000000000000000000000000000006020830152602682019050919050565b6000613ab7600283614ca7565b91507f222c0000000000000000000000000000000000000000000000000000000000006000830152600282019050919050565b6000613af7601c83614c96565b91507f4552433732313a20746f6b656e20616c7265616479206d696e746564000000006000830152602082019050919050565b6000613b37602183614ca7565b91507f7b2274726169745f74797065223a2244617973204f6666222c2276616c75652260008301527f3a000000000000000000000000000000000000000000000000000000000000006020830152602182019050919050565b6000613b9d605083614c96565b91507f4572726f723a204c6f6f6b73206c696b65207468652062696720626f7373206960008301527f73206f757420666f7220676f6f642e2048616e6720796f75722068617420616e60208301527f64206869742074686520626561636821000000000000000000000000000000006040830152606082019050919050565b6000613c29602683614c96565b91507f4f6e6c7920746865206f776e6572206f662074686973204e46542063616e207560008301527f73652069742e00000000000000000000000000000000000000000000000000006020830152604082019050919050565b6000613c8f602483614c96565b91507f4552433732313a207472616e7366657220746f20746865207a65726f2061646460008301527f72657373000000000000000000000000000000000000000000000000000000006020830152604082019050919050565b6000613cf5601983614c96565b91507f4552433732313a20617070726f766520746f2063616c6c6572000000000000006000830152602082019050919050565b6000613d35602883614ca7565b91507f7d2c7b2274726169745f74797065223a2022506f77657220466163746f72222c60008301527f2276616c7565223a0000000000000000000000000000000000000000000000006020830152602882019050919050565b6000613d9b602583614ca7565b91507f7d2c7b2274726169745f74797065223a224c756e636820486f7572222c22766160008301527f6c7565223a0000000000000000000000000000000000000000000000000000006020830152602582019050919050565b6000613e01602c83614c96565b91507f4552433732313a206f70657261746f7220717565727920666f72206e6f6e657860008301527f697374656e7420746f6b656e00000000000000000000000000000000000000006020830152604082019050919050565b6000613e67607a83614ca7565b91507f226465736372697074696f6e223a224a6f696e205465616d20416d657269636160008301527f20616e6420736176652074686520776f726c642120426174746c65207468652060208301527f66696572636520626f737320616e6420676574206e6f7468696e6720666f722060408301527f69742c206d617962652061207468756d62732075702e2e2e222c0000000000006060830152607a82019050919050565b6000613f19603883614c96565b91507f4552433732313a20617070726f76652063616c6c6572206973206e6f74206f7760008301527f6e6572206e6f7220617070726f76656420666f7220616c6c00000000000000006020830152604082019050919050565b6000613f7f602a83614c96565b91507f4552433732313a2062616c616e636520717565727920666f7220746865207a6560008301527f726f2061646472657373000000000000000000000000000000000000000000006020830152604082019050919050565b6000613fe5602983614c96565b91507f4552433732313a206f776e657220717565727920666f72206e6f6e657869737460008301527f656e7420746f6b656e00000000000000000000000000000000000000000000006020830152604082019050919050565b600061404b600983614ca7565b91507f22696d616765223a2200000000000000000000000000000000000000000000006000830152600982019050919050565b600061408b602083614c96565b91507f4552433732313a206d696e7420746f20746865207a65726f20616464726573736000830152602082019050919050565b60006140cb600383614ca7565b91507f7d5d7d00000000000000000000000000000000000000000000000000000000006000830152600382019050919050565b600061410b602c83614c96565b91507f4552433732313a20617070726f76656420717565727920666f72206e6f6e657860008301527f697374656e7420746f6b656e00000000000000000000000000000000000000006020830152604082019050919050565b6000614171602983614c96565b91507f4552433732313a207472616e73666572206f6620746f6b656e2074686174206960008301527f73206e6f74206f776e00000000000000000000000000000000000000000000006020830152604082019050919050565b60006141d7602183614c96565b91507f4552433732313a20617070726f76616c20746f2063757272656e74206f776e6560008301527f72000000000000000000000000000000000000000000000000000000000000006020830152604082019050919050565b600061423d601d83614ca7565b91507f646174613a6170706c69636174696f6e2f6a736f6e3b6261736536342c0000006000830152601d82019050919050565b600061427d603583614ca7565b91507f2261747472696275746573223a5b7b2274726169745f74797065223a2248656160008301527f6c746820506f696e7473222c202276616c7565223a00000000000000000000006020830152603582019050919050565b60006142e3603183614c96565b91507f4552433732313a207472616e736665722063616c6c6572206973206e6f74206f60008301527f776e6572206e6f7220617070726f7665640000000000000000000000000000006020830152604082019050919050565b600060a083016000830151848203600086015261435982826137d5565b9150506020830151848203602086015261437382826137d5565b91505060408301516143886040860182614485565b50606083015161439b6060860182614485565b5060808301516143ae6080860182614485565b508091505092915050565b6000610120830160008301516143d26000860182614485565b50602083015184820360208601526143ea82826137d5565b9150506040830151848203604086015261440482826137d5565b91505060608301516144196060860182614485565b50608083015161442c6080860182614485565b5060a083015161443f60a0860182614485565b5060c083015161445260c0860182614485565b5060e083015161446560e0860182614485565b5061010083015161447a610100860182614485565b508091505092915050565b61448e81614e31565b82525050565b61449d81614e31565b82525050565b60006144ae8261399e565b91506144ba828c613847565b91506144c5826138b8565b91506144d1828b613847565b91506144dc82613aaa565b91506144e782613e5a565b91506144f28261403e565b91506144fe828a613847565b915061450982613aaa565b915061451482614270565b91506145208289613847565b915061452b8261395e565b91506145378288613847565b915061454282613878565b915061454d82613a44565b91506145598287613847565b915061456482613d28565b91506145708286613847565b915061457b82613878565b915061458682613b2a565b91506145928285613847565b915061459d82613d8e565b91506145a98284613847565b91506145b4826140be565b91508190509a9950505050505050505050565b60006145d282614230565b91506145de8284613847565b915081905092915050565b60006020820190506145fe6000830184613709565b92915050565b60006080820190506146196000830187613709565b6146266020830186613709565b6146336040830185614494565b8181036060830152614645818461379c565b905095945050505050565b60006060820190506146656000830186613709565b6146726020830185614494565b61467f6040830184614494565b949350505050565b600060208201905081810360008301526146a18184613718565b905092915050565b60006020820190506146be600083018461378d565b92915050565b600060208201905081810360008301526146de818461380e565b905092915050565b60006060820190508181036000830152614700818661380e565b90508181036020830152614714818561380e565b90508181036040830152614728818461380e565b9050949350505050565b6000606082019050818103600083015261474c818661380e565b90508181036020830152614760818561380e565b905061476f6040830184614494565b949350505050565b60006080820190508181036000830152614791818761380e565b905081810360208301526147a5818661380e565b90506147b46040830185614494565b6147c16060830184614494565b95945050505050565b600060a08201905081810360008301526147e4818861380e565b905081810360208301526147f8818761380e565b90506148076040830186614494565b6148146060830185614494565b6148216080830184614494565b9695505050505050565b60006060820190508181036000830152614845818661380e565b90506148546020830185614494565b8181036040830152614866818461380e565b9050949350505050565b6000608082019050818103600083015261488a818761380e565b90506148996020830186614494565b81810360408301526148ab818561380e565b90506148ba6060830184614494565b95945050505050565b600060208201905081810360008301526148dc816138f8565b9050919050565b600060208201905081810360008301526148fc816139de565b9050919050565b6000602082019050818103600083015261491c81613aea565b9050919050565b6000602082019050818103600083015261493c81613b90565b9050919050565b6000602082019050818103600083015261495c81613c1c565b9050919050565b6000602082019050818103600083015261497c81613c82565b9050919050565b6000602082019050818103600083015261499c81613ce8565b9050919050565b600060208201905081810360008301526149bc81613df4565b9050919050565b600060208201905081810360008301526149dc81613f0c565b9050919050565b600060208201905081810360008301526149fc81613f72565b9050919050565b60006020820190508181036000830152614a1c81613fd8565b9050919050565b60006020820190508181036000830152614a3c8161407e565b9050919050565b60006020820190508181036000830152614a5c816140fe565b9050919050565b60006020820190508181036000830152614a7c81614164565b9050919050565b60006020820190508181036000830152614a9c816141ca565b9050919050565b60006020820190508181036000830152614abc816142d6565b9050919050565b60006020820190508181036000830152614add818461433c565b905092915050565b6000602082019050614afa6000830184614494565b92915050565b600061012082019050614b16600083018c614494565b8181036020830152614b28818b61380e565b90508181036040830152614b3c818a61380e565b9050614b4b6060830189614494565b614b586080830188614494565b614b6560a0830187614494565b614b7260c0830186614494565b614b7f60e0830185614494565b614b8d610100830184614494565b9a9950505050505050505050565b6000604082019050614bb06000830185614494565b614bbd6020830184614494565b9392505050565b6000604051905081810181811067ffffffffffffffff82111715614beb57614bea614fb6565b5b8060405250919050565b600067ffffffffffffffff821115614c1057614c0f614fb6565b5b601f19601f8301169050602081019050919050565b6000819050602082019050919050565b600081519050919050565b600081519050919050565b600081519050919050565b6000602082019050919050565b600082825260208201905092915050565b600082825260208201905092915050565b600082825260208201905092915050565b600082825260208201905092915050565b600081905092915050565b6000614cbd82614e31565b9150614cc883614e31565b9250827fffffffffffffffffffffffffffffffffffffffffffffffffffffffffffffffff03821115614cfd57614cfc614f29565b5b828201905092915050565b6000614d1382614e31565b9150614d1e83614e31565b925082614d2e57614d2d614f58565b5b828204905092915050565b6000614d4482614e31565b9150614d4f83614e31565b9250817fffffffffffffffffffffffffffffffffffffffffffffffffffffffffffffffff0483118215151615614d8857614d87614f29565b5b828202905092915050565b6000614d9e82614e31565b9150614da983614e31565b925082821015614dbc57614dbb614f29565b5b828203905092915050565b6000614dd282614e11565b9050919050565b60008115159050919050565b60007fffffffff0000000000000000000000000000000000000000000000000000000082169050919050565b600073ffffffffffffffffffffffffffffffffffffffff82169050919050565b6000819050919050565b82818337600083830152505050565b60005b83811015614e68578082015181840152602081019050614e4d565b83811115614e77576000848401525b50505050565b60006002820490506001821680614e9557607f821691505b60208210811415614ea957614ea8614f87565b5b50919050565b6000614eba82614e31565b91507fffffffffffffffffffffffffffffffffffffffffffffffffffffffffffffffff821415614eed57614eec614f29565b5b600182019050919050565b6000614f0382614e31565b9150614f0e83614e31565b925082614f1e57614f1d614f58565b5b828206905092915050565b7f4e487b7100000000000000000000000000000000000000000000000000000000600052601160045260246000fd5b7f4e487b7100000000000000000000000000000000000000000000000000000000600052601260045260246000fd5b7f4e487b7100000000000000000000000000000000000000000000000000000000600052602260045260246000fd5b7f4e487b7100000000000000000000000000000000000000000000000000000000600052604160045260246000fd5b6000601f19601f8301169050919050565b614fff81614dc7565b811461500a57600080fd5b50565b61501681614dd9565b811461502157600080fd5b50565b61502d81614de5565b811461503857600080fd5b50565b61504481614e31565b811461504f57600080fd5b5056fe4e4f494345212121202573206a7573742064656665617465642025732e2054686520776f726c64206973207361666520616761696e2e2e2e206f722069732069743f4f4f4621202573206a75737420676f742052454b542062792025732e204747732e4d696e746564204e465420772f20546f6b656e4964202573207573696e67202573206368617261637465722e4142434445464748494a4b4c4d4e4f505152535455565758595a6162636465666768696a6b6c6d6e6f707172737475767778797a303132333435363738392b2f0a506c6179657220772f206368617261637465722025732069732061626f757420746f2061747461636b207769746820257320485020616e642025732041442e200a4772616220736f6d6520706f70636f726e2157686f616f2e2e2e20626f7468206f6620746865736520666f6f6c73206a75737420666c6f6f7265642065616368206f746865722e2047616d65206f76657220666f7220257320616e64202573426174746c6520726573756c74732061726520696e2e2e2e20426f737320485020697320257320616e642025732048502069732025732e200a54686174207761732061206e61696c626974657221204e61682c206e6f74207265616c6c792e2e2e54686520426f73732025732068617320257320485020616e642025732041442e2e2ea2646970667358221220fab8ee90f262f89bf7a0e3954fe86de3ad0a4f70392200acef74ccd36590a8ce64736f6c6343000800003354686520697320746865205465616d20416d657269636120536c61796572732047616d6521426f737320257320696e697469616c697a656420776974682025732048502e20596f75206265747465722072756e21",
  "linkReferences": {},
  "deployedLinkReferences": {}
}