{
  "_format": "hh-sol-artifact-1",
  "contractName": "TeamAmericaSlayers",
  "sourceName": "contracts/TeamAmericaSlayers.sol",
  "abi": [
    {
      "inputs": [
        {
          "internalType": "string[]",
          "name": "characterNames",
          "type": "string[]"
        },
        {
          "internalType": "string[]",
          "name": "chacterImageURIs",
          "type": "string[]"
        },
        {
          "internalType": "uint256[]",
          "name": "characterHP",
          "type": "uint256[]"
        },
        {
          "internalType": "uint256[]",
          "name": "characterAttackDmg",
          "type": "uint256[]"
        },
        {
          "internalType": "string",
          "name": "bossName",
          "type": "string"
        },
        {
          "internalType": "string",
          "name": "bossImageURI",
          "type": "string"
        },
        {
          "internalType": "uint256",
          "name": "bossHp",
          "type": "uint256"
        },
        {
          "internalType": "uint256",
          "name": "bossAttackDamage",
          "type": "uint256"
        }
      ],
      "stateMutability": "nonpayable",
      "type": "constructor"
    },
    {
      "anonymous": false,
      "inputs": [
        {
          "indexed": true,
          "internalType": "address",
          "name": "owner",
          "type": "address"
        },
        {
          "indexed": true,
          "internalType": "address",
          "name": "approved",
          "type": "address"
        },
        {
          "indexed": true,
          "internalType": "uint256",
          "name": "tokenId",
          "type": "uint256"
        }
      ],
      "name": "Approval",
      "type": "event"
    },
    {
      "anonymous": false,
      "inputs": [
        {
          "indexed": true,
          "internalType": "address",
          "name": "owner",
          "type": "address"
        },
        {
          "indexed": true,
          "internalType": "address",
          "name": "operator",
          "type": "address"
        },
        {
          "indexed": false,
          "internalType": "bool",
          "name": "approved",
          "type": "bool"
        }
      ],
      "name": "ApprovalForAll",
      "type": "event"
    },
    {
      "anonymous": false,
      "inputs": [
        {
          "indexed": false,
          "internalType": "uint256",
          "name": "newBossHp",
          "type": "uint256"
        },
        {
          "indexed": false,
          "internalType": "uint256",
          "name": "newPlayerHp",
          "type": "uint256"
        }
      ],
      "name": "AttackComplete",
      "type": "event"
    },
    {
      "anonymous": false,
      "inputs": [
        {
          "indexed": false,
          "internalType": "address",
          "name": "minter",
          "type": "address"
        },
        {
          "indexed": false,
          "internalType": "uint256",
          "name": "tokenId",
          "type": "uint256"
        },
        {
          "indexed": false,
          "internalType": "uint256",
          "name": "characterIndex",
          "type": "uint256"
        }
      ],
      "name": "CharacterMinted",
      "type": "event"
    },
    {
      "anonymous": false,
      "inputs": [
        {
          "indexed": true,
          "internalType": "address",
          "name": "from",
          "type": "address"
        },
        {
          "indexed": true,
          "internalType": "address",
          "name": "to",
          "type": "address"
        },
        {
          "indexed": true,
          "internalType": "uint256",
          "name": "tokenId",
          "type": "uint256"
        }
      ],
      "name": "Transfer",
      "type": "event"
    },
    {
      "inputs": [
        {
          "internalType": "address",
          "name": "to",
          "type": "address"
        },
        {
          "internalType": "uint256",
          "name": "tokenId",
          "type": "uint256"
        }
      ],
      "name": "approve",
      "outputs": [],
      "stateMutability": "nonpayable",
      "type": "function"
    },
    {
      "inputs": [
        {
          "internalType": "uint256",
          "name": "",
          "type": "uint256"
        }
      ],
      "name": "assetToOwner",
      "outputs": [
        {
          "internalType": "address",
          "name": "",
          "type": "address"
        }
      ],
      "stateMutability": "view",
      "type": "function"
    },
    {
      "inputs": [
        {
          "internalType": "uint256",
          "name": "_tokenId",
          "type": "uint256"
        }
      ],
      "name": "attackBoss",
      "outputs": [],
      "stateMutability": "nonpayable",
      "type": "function"
    },
    {
      "inputs": [
        {
          "internalType": "address",
          "name": "owner",
          "type": "address"
        }
      ],
      "name": "balanceOf",
      "outputs": [
        {
          "internalType": "uint256",
          "name": "",
          "type": "uint256"
        }
      ],
      "stateMutability": "view",
      "type": "function"
    },
    {
      "inputs": [],
      "name": "bigBoss",
      "outputs": [
        {
          "internalType": "string",
          "name": "name",
          "type": "string"
        },
        {
          "internalType": "string",
          "name": "imageURI",
          "type": "string"
        },
        {
          "internalType": "uint256",
          "name": "hp",
          "type": "uint256"
        },
        {
          "internalType": "uint256",
          "name": "maxHp",
          "type": "uint256"
        },
        {
          "internalType": "uint256",
          "name": "attackDamage",
          "type": "uint256"
        }
      ],
      "stateMutability": "view",
      "type": "function"
    },
    {
      "inputs": [],
      "name": "getAllDefaultCharacters",
      "outputs": [
        {
          "components": [
            {
              "internalType": "uint256",
              "name": "characterIndex",
              "type": "uint256"
            },
            {
              "internalType": "string",
              "name": "name",
              "type": "string"
            },
            {
              "internalType": "string",
              "name": "imageURI",
              "type": "string"
            },
            {
              "internalType": "uint256",
              "name": "hp",
              "type": "uint256"
            },
            {
              "internalType": "uint256",
              "name": "maxHP",
              "type": "uint256"
            },
            {
              "internalType": "uint256",
              "name": "attackDamage",
              "type": "uint256"
            },
            {
              "internalType": "uint256",
              "name": "powerFactor",
              "type": "uint256"
            },
            {
              "internalType": "uint256",
              "name": "daysOff",
              "type": "uint256"
            },
            {
              "internalType": "uint256",
              "name": "lunchHour",
              "type": "uint256"
            }
          ],
          "internalType": "struct TeamAmericaSlayers.Character[]",
          "name": "",
          "type": "tuple[]"
        }
      ],
      "stateMutability": "view",
      "type": "function"
    },
    {
      "inputs": [
        {
          "internalType": "uint256",
          "name": "tokenId",
          "type": "uint256"
        }
      ],
      "name": "getApproved",
      "outputs": [
        {
          "internalType": "address",
          "name": "",
          "type": "address"
        }
      ],
      "stateMutability": "view",
      "type": "function"
    },
    {
      "inputs": [],
      "name": "getBigBoss",
      "outputs": [
        {
          "components": [
            {
              "internalType": "string",
              "name": "name",
              "type": "string"
            },
            {
              "internalType": "string",
              "name": "imageURI",
              "type": "string"
            },
            {
              "internalType": "uint256",
              "name": "hp",
              "type": "uint256"
            },
            {
              "internalType": "uint256",
              "name": "maxHp",
              "type": "uint256"
            },
            {
              "internalType": "uint256",
              "name": "attackDamage",
              "type": "uint256"
            }
          ],
          "internalType": "struct TeamAmericaSlayers.BigBoss",
          "name": "",
          "type": "tuple"
        }
      ],
      "stateMutability": "view",
      "type": "function"
    },
    {
      "inputs": [
        {
          "internalType": "uint256",
          "name": "_id",
          "type": "uint256"
        }
      ],
      "name": "getCharacter",
      "outputs": [
        {
          "components": [
            {
              "internalType": "uint256",
              "name": "characterIndex",
              "type": "uint256"
            },
            {
              "internalType": "string",
              "name": "name",
              "type": "string"
            },
            {
              "internalType": "string",
              "name": "imageURI",
              "type": "string"
            },
            {
              "internalType": "uint256",
              "name": "hp",
              "type": "uint256"
            },
            {
              "internalType": "uint256",
              "name": "maxHP",
              "type": "uint256"
            },
            {
              "internalType": "uint256",
              "name": "attackDamage",
              "type": "uint256"
            },
            {
              "internalType": "uint256",
              "name": "powerFactor",
              "type": "uint256"
            },
            {
              "internalType": "uint256",
              "name": "daysOff",
              "type": "uint256"
            },
            {
              "internalType": "uint256",
              "name": "lunchHour",
              "type": "uint256"
            }
          ],
          "internalType": "struct TeamAmericaSlayers.Character",
          "name": "",
          "type": "tuple"
        }
      ],
      "stateMutability": "view",
      "type": "function"
    },
    {
      "inputs": [
        {
          "internalType": "address",
          "name": "_owner",
          "type": "address"
        }
      ],
      "name": "getListOfOwnedCharacters",
      "outputs": [
        {
          "internalType": "uint256[]",
          "name": "",
          "type": "uint256[]"
        }
      ],
      "stateMutability": "view",
      "type": "function"
    },
    {
      "inputs": [
        {
          "internalType": "address",
          "name": "owner",
          "type": "address"
        },
        {
          "internalType": "address",
          "name": "operator",
          "type": "address"
        }
      ],
      "name": "isApprovedForAll",
      "outputs": [
        {
          "internalType": "bool",
          "name": "",
          "type": "bool"
        }
      ],
      "stateMutability": "view",
      "type": "function"
    },
    {
      "inputs": [
        {
          "internalType": "uint256",
          "name": "_characterIndex",
          "type": "uint256"
        }
      ],
      "name": "mintNewCharacterNFT",
      "outputs": [],
      "stateMutability": "nonpayable",
      "type": "function"
    },
    {
      "inputs": [],
      "name": "name",
      "outputs": [
        {
          "internalType": "string",
          "name": "",
          "type": "string"
        }
      ],
      "stateMutability": "view",
      "type": "function"
    },
    {
      "inputs": [
        {
          "internalType": "uint256",
          "name": "",
          "type": "uint256"
        }
      ],
      "name": "nftCharacterAttributes",
      "outputs": [
        {
          "internalType": "uint256",
          "name": "characterIndex",
          "type": "uint256"
        },
        {
          "internalType": "string",
          "name": "name",
          "type": "string"
        },
        {
          "internalType": "string",
          "name": "imageURI",
          "type": "string"
        },
        {
          "internalType": "uint256",
          "name": "hp",
          "type": "uint256"
        },
        {
          "internalType": "uint256",
          "name": "maxHP",
          "type": "uint256"
        },
        {
          "internalType": "uint256",
          "name": "attackDamage",
          "type": "uint256"
        },
        {
          "internalType": "uint256",
          "name": "powerFactor",
          "type": "uint256"
        },
        {
          "internalType": "uint256",
          "name": "daysOff",
          "type": "uint256"
        },
        {
          "internalType": "uint256",
          "name": "lunchHour",
          "type": "uint256"
        }
      ],
      "stateMutability": "view",
      "type": "function"
    },
    {
      "inputs": [
        {
          "internalType": "uint256",
          "name": "tokenId",
          "type": "uint256"
        }
      ],
      "name": "ownerOf",
      "outputs": [
        {
          "internalType": "address",
          "name": "",
          "type": "address"
        }
      ],
      "stateMutability": "view",
      "type": "function"
    },
    {
      "inputs": [
        {
          "internalType": "address",
          "name": "from",
          "type": "address"
        },
        {
          "internalType": "address",
          "name": "to",
          "type": "address"
        },
        {
          "internalType": "uint256",
          "name": "tokenId",
          "type": "uint256"
        }
      ],
      "name": "safeTransferFrom",
      "outputs": [],
      "stateMutability": "nonpayable",
      "type": "function"
    },
    {
      "inputs": [
        {
          "internalType": "address",
          "name": "from",
          "type": "address"
        },
        {
          "internalType": "address",
          "name": "to",
          "type": "address"
        },
        {
          "internalType": "uint256",
          "name": "tokenId",
          "type": "uint256"
        },
        {
          "internalType": "bytes",
          "name": "_data",
          "type": "bytes"
        }
      ],
      "name": "safeTransferFrom",
      "outputs": [],
      "stateMutability": "nonpayable",
      "type": "function"
    },
    {
      "inputs": [
        {
          "internalType": "address",
          "name": "operator",
          "type": "address"
        },
        {
          "internalType": "bool",
          "name": "approved",
          "type": "bool"
        }
      ],
      "name": "setApprovalForAll",
      "outputs": [],
      "stateMutability": "nonpayable",
      "type": "function"
    },
    {
      "inputs": [
        {
          "internalType": "bytes4",
          "name": "interfaceId",
          "type": "bytes4"
        }
      ],
      "name": "supportsInterface",
      "outputs": [
        {
          "internalType": "bool",
          "name": "",
          "type": "bool"
        }
      ],
      "stateMutability": "view",
      "type": "function"
    },
    {
      "inputs": [],
      "name": "symbol",
      "outputs": [
        {
          "internalType": "string",
          "name": "",
          "type": "string"
        }
      ],
      "stateMutability": "view",
      "type": "function"
    },
    {
      "inputs": [
        {
          "internalType": "uint256",
          "name": "_tokenId",
          "type": "uint256"
        }
      ],
      "name": "tokenURI",
      "outputs": [
        {
          "internalType": "string",
          "name": "",
          "type": "string"
        }
      ],
      "stateMutability": "view",
      "type": "function"
    },
    {
      "inputs": [
        {
          "internalType": "address",
          "name": "from",
          "type": "address"
        },
        {
          "internalType": "address",
          "name": "to",
          "type": "address"
        },
        {
          "internalType": "uint256",
          "name": "tokenId",
          "type": "uint256"
        }
      ],
      "name": "transferFrom",
      "outputs": [],
      "stateMutability": "nonpayable",
      "type": "function"
    }
  ],
  "bytecode": "0x60806040523480156200001157600080fd5b5060405162006dd338038062006dd3833981810160405281019062000037919062000afe565b6040518060400160405280601981526020017f5465616d20416d657269636120536c61796572732042657461000000000000008152506040518060400160405280600381526020017f54415300000000000000000000000000000000000000000000000000000000008152508160009080519060200190620000bb92919062000891565b508060019080519060200190620000d492919062000891565b5050506200010660405180606001604052806025815260200162006d7f602591396200070660201b6200281f1760201c565b6040518060a0016040528085815260200184815260200183815260200183815260200182815250600660008201518160000190805190602001906200014d92919062000891565b5060208201518160010190805190602001906200016c92919062000891565b50604082015181600201556060820151816003015560808201518160040155905050620002596040518060600160405280602f815260200162006da4602f913960066000018054620001be9062000e96565b80601f0160208091040260200160405190810160405280929190818152602001828054620001ec9062000e96565b80156200023d5780601f1062000211576101008083540402835291602001916200023d565b820191906000526020600020905b8154815290600101906020018083116200021f57829003601f168201915b5050505050600660020154620007a960201b620028b81760201c565b60005b8851811015620006e057600c6040518061012001604052808381526020018b8481518110620002b4577f4e487b7100000000000000000000000000000000000000000000000000000000600052603260045260246000fd5b602002602001015181526020018a8481518110620002fb577f4e487b7100000000000000000000000000000000000000000000000000000000600052603260045260246000fd5b6020026020010151815260200189848151811062000342577f4e487b7100000000000000000000000000000000000000000000000000000000600052603260045260246000fd5b6020026020010151815260200189848151811062000389577f4e487b7100000000000000000000000000000000000000000000000000000000600052603260045260246000fd5b60200260200101518152602001888481518110620003d0577f4e487b7100000000000000000000000000000000000000000000000000000000600052603260045260246000fd5b602002602001015181526020016000815260200160008152602001600081525090806001815401808255809150506001900390600052602060002090600902016000909190919091506000820151816000015560208201518160010190805190602001906200044192919062000891565b5060408201518160020190805190602001906200046092919062000891565b50606082015181600301556080820151816004015560a0820151816005015560c0820151816006015560e08201518160070155610100820151816008015550506000600c8281548110620004dd577f4e487b7100000000000000000000000000000000000000000000000000000000600052603260045260246000fd5b90600052602060002090600902016040518061012001604052908160008201548152602001600182018054620005139062000e96565b80601f0160208091040260200160405190810160405280929190818152602001828054620005419062000e96565b8015620005925780601f10620005665761010080835404028352916020019162000592565b820191906000526020600020905b8154815290600101906020018083116200057457829003601f168201915b50505050508152602001600282018054620005ad9062000e96565b80601f0160208091040260200160405190810160405280929190818152602001828054620005db9062000e96565b80156200062c5780601f1062000600576101008083540402835291602001916200062c565b820191906000526020600020905b8154815290600101906020018083116200060e57829003601f168201915b5050505050815260200160038201548152602001600482015481526020016005820154815260200160068201548152602001600782015481526020016008820154815250509050620006c86040518060400160405280601781526020017f496e697469616c697a656420257320772f20257320485000000000000000000081525082602001518360600151620007a960201b620028b81760201c565b50600181620006d8919062000df9565b90506200025c565b50620006f8600b6200085260201b620029571760201c565b505050505050505062000f84565b620007a6816040516024016200071d919062000ca9565b6040516020818303038152906040527f41304fac000000000000000000000000000000000000000000000000000000007bffffffffffffffffffffffffffffffffffffffffffffffffffffffff19166020820180517bffffffffffffffffffffffffffffffffffffffffffffffffffffffff83818316178352505050506200086860201b60201c565b50565b6200084d838383604051602401620007c49392919062000ccd565b6040516020818303038152906040527ff362ca59000000000000000000000000000000000000000000000000000000007bffffffffffffffffffffffffffffffffffffffffffffffffffffffff19166020820180517bffffffffffffffffffffffffffffffffffffffffffffffffffffffff83818316178352505050506200086860201b60201c565b505050565b6001816000016000828254019250508190555050565b60008151905060006a636f6e736f6c652e6c6f679050602083016000808483855afa5050505050565b8280546200089f9062000e96565b90600052602060002090601f016020900481019282620008c357600085556200090f565b82601f10620008de57805160ff19168380011785556200090f565b828001600101855582156200090f579182015b828111156200090e578251825591602001919060010190620008f1565b5b5090506200091e919062000922565b5090565b5b808211156200093d57600081600090555060010162000923565b5090565b600062000958620009528462000d4c565b62000d18565b9050808382526020820190508260005b858110156200099c578151850162000981888262000aba565b84526020840193506020830192505060018101905062000968565b5050509392505050565b6000620009bd620009b78462000d7b565b62000d18565b90508083825260208201905082856020860282011115620009dd57600080fd5b60005b8581101562000a115781620009f6888262000ae7565b845260208401935060208301925050600181019050620009e0565b5050509392505050565b600062000a3262000a2c8462000daa565b62000d18565b90508281526020810184848401111562000a4b57600080fd5b62000a5884828562000e60565b509392505050565b600082601f83011262000a7257600080fd5b815162000a8484826020860162000941565b91505092915050565b600082601f83011262000a9f57600080fd5b815162000ab1848260208601620009a6565b91505092915050565b600082601f83011262000acc57600080fd5b815162000ade84826020860162000a1b565b91505092915050565b60008151905062000af88162000f6a565b92915050565b600080600080600080600080610100898b03121562000b1c57600080fd5b600089015167ffffffffffffffff81111562000b3757600080fd5b62000b458b828c0162000a60565b985050602089015167ffffffffffffffff81111562000b6357600080fd5b62000b718b828c0162000a60565b975050604089015167ffffffffffffffff81111562000b8f57600080fd5b62000b9d8b828c0162000a8d565b965050606089015167ffffffffffffffff81111562000bbb57600080fd5b62000bc98b828c0162000a8d565b955050608089015167ffffffffffffffff81111562000be757600080fd5b62000bf58b828c0162000aba565b94505060a089015167ffffffffffffffff81111562000c1357600080fd5b62000c218b828c0162000aba565b93505060c062000c348b828c0162000ae7565b92505060e062000c478b828c0162000ae7565b9150509295985092959890939650565b600062000c648262000ddd565b62000c70818562000de8565b935062000c8281856020860162000e60565b62000c8d8162000f59565b840191505092915050565b62000ca38162000e56565b82525050565b6000602082019050818103600083015262000cc5818462000c57565b905092915050565b6000606082019050818103600083015262000ce9818662000c57565b9050818103602083015262000cff818562000c57565b905062000d10604083018462000c98565b949350505050565b6000604051905081810181811067ffffffffffffffff8211171562000d425762000d4162000f2a565b5b8060405250919050565b600067ffffffffffffffff82111562000d6a5762000d6962000f2a565b5b602082029050602081019050919050565b600067ffffffffffffffff82111562000d995762000d9862000f2a565b5b602082029050602081019050919050565b600067ffffffffffffffff82111562000dc85762000dc762000f2a565b5b601f19601f8301169050602081019050919050565b600081519050919050565b600082825260208201905092915050565b600062000e068262000e56565b915062000e138362000e56565b9250827fffffffffffffffffffffffffffffffffffffffffffffffffffffffffffffffff0382111562000e4b5762000e4a62000ecc565b5b828201905092915050565b6000819050919050565b60005b8381101562000e8057808201518184015260208101905062000e63565b8381111562000e90576000848401525b50505050565b6000600282049050600182168062000eaf57607f821691505b6020821081141562000ec65762000ec562000efb565b5b50919050565b7f4e487b7100000000000000000000000000000000000000000000000000000000600052601160045260246000fd5b7f4e487b7100000000000000000000000000000000000000000000000000000000600052602260045260246000fd5b7f4e487b7100000000000000000000000000000000000000000000000000000000600052604160045260246000fd5b6000601f19601f8301169050919050565b62000f758162000e56565b811462000f8157600080fd5b50565b615deb8062000f946000396000f3fe608060405234801561001057600080fd5b50600436106101425760003560e01c806370a08231116100b8578063a9c326791161007c578063a9c32679146103a1578063b88d4fde146103c3578063b953084e146103df578063c87b56dd146103fd578063dabb05311461042d578063e985e9c51461045d57610142565b806370a08231146102cf57806385fd678c146102ff57806395d89b411461032f5780639a40e1991461034d578063a22cb4651461038557610142565b8063095ea7b31161010a578063095ea7b3146101ff57806318e594a61461021b57806323b872dd1461024b578063381ed0b81461026757806342842e0e146102835780636352211e1461029f57610142565b806301ffc9a7146101475780630619f932146101775780630665f9611461019357806306fdde03146101b1578063081812fc146101cf575b600080fd5b610161600480360381019061015c9190613fa5565b61048d565b60405161016e919061519e565b60405180910390f35b610191600480360381019061018c9190613ff7565b61056f565b005b61019b610da5565b6040516101a891906155d8565b60405180910390f35b6101b9610f01565b6040516101c691906151b9565b60405180910390f35b6101e960048036038101906101e49190613ff7565b610f93565b6040516101f691906150bc565b60405180910390f35b61021960048036038101906102149190613f69565b611018565b005b61023560048036038101906102309190613dfe565b611130565b604051610242919061517c565b60405180910390f35b61026560048036038101906102609190613e63565b6112d2565b005b610281600480360381019061027c9190613ff7565b611332565b005b61029d60048036038101906102989190613e63565b611aee565b005b6102b960048036038101906102b49190613ff7565b611b0e565b6040516102c691906150bc565b60405180910390f35b6102e960048036038101906102e49190613dfe565b611bc0565b6040516102f6919061561c565b60405180910390f35b61031960048036038101906103149190613ff7565b611c78565b60405161032691906150bc565b60405180910390f35b610337611cab565b60405161034491906151b9565b60405180910390f35b61036760048036038101906103629190613ff7565b611d3d565b60405161037c99989796959493929190615637565b60405180910390f35b61039f600480360381019061039a9190613f2d565b611e9b565b005b6103a961201c565b6040516103ba9594939291906152bf565b60405180910390f35b6103dd60048036038101906103d89190613eb2565b612150565b005b6103e76121b2565b6040516103f4919061515a565b60405180910390f35b61041760048036038101906104129190613ff7565b61237c565b60405161042491906151b9565b60405180910390f35b61044760048036038101906104429190613ff7565b6125f3565b60405161045491906155fa565b60405180910390f35b61047760048036038101906104729190613e27565b61278b565b604051610484919061519e565b60405180910390f35b60007f80ac58cd000000000000000000000000000000000000000000000000000000007bffffffffffffffffffffffffffffffffffffffffffffffffffffffff1916827bffffffffffffffffffffffffffffffffffffffffffffffffffffffff1916148061055857507f5b5e139f000000000000000000000000000000000000000000000000000000007bffffffffffffffffffffffffffffffffffffffffffffffffffffffff1916827bffffffffffffffffffffffffffffffffffffffffffffffffffffffff1916145b8061056857506105678261296d565b5b9050919050565b3373ffffffffffffffffffffffffffffffffffffffff166010600083815260200190815260200160002060009054906101000a900473ffffffffffffffffffffffffffffffffffffffff1673ffffffffffffffffffffffffffffffffffffffff1614610610576040517f08c379a000000000000000000000000000000000000000000000000000000000815260040161060790615458565b60405180910390fd5b6000600f600083815260200190815260200160002090506106df604051806080016040528060548152602001615c9260549139826001018054610652906159ed565b80601f016020809104026020016040519081016040528092919081815260200182805461067e906159ed565b80156106cb5780601f106106a0576101008083540402835291602001916106cb565b820191906000526020600020905b8154815290600101906020018083116106ae57829003601f168201915b5050505050836003015484600501546129d7565b61079a604051806060016040528060228152602001615d94602291396006600001805461070b906159ed565b80601f0160208091040260200160405190810160405280929190818152602001828054610737906159ed565b80156107845780601f1061075957610100808354040283529160200191610784565b820191906000526020600020905b81548152906001019060200180831161076757829003601f168201915b50505050506006600201546006600401546129d7565b60008160030154116107e1576040517f08c379a00000000000000000000000000000000000000000000000000000000081526004016107d8906153b8565b60405180910390fd5b600060066002015411610829576040517f08c379a000000000000000000000000000000000000000000000000000000000815260040161082090615438565b60405180910390fd5b8060050154600660020154101561084a576000600660020181905550610869565b806005015460066002015461085f9190615903565b6006600201819055505b6006600401548160030154101561088957600081600301819055506108a7565b600660040154816003015461089e9190615903565b81600301819055505b6000816003015414156109f5576109f0604051806060016040528060218152602001615c05602191398260010180546108df906159ed565b80601f016020809104026020016040519081016040528092919081815260200182805461090b906159ed565b80156109585780601f1061092d57610100808354040283529160200191610958565b820191906000526020600020905b81548152906001019060200180831161093b57829003601f168201915b50505050506006600001805461096d906159ed565b80601f0160208091040260200160405190810160405280929190818152602001828054610999906159ed565b80156109e65780601f106109bb576101008083540402835291602001916109e6565b820191906000526020600020905b8154815290600101906020018083116109c957829003601f168201915b5050505050612a79565b610d5f565b60006006600201541415610b4457610b3f604051806080016040528060428152602001615bc360429139826001018054610a2e906159ed565b80601f0160208091040260200160405190810160405280929190818152602001828054610a5a906159ed565b8015610aa75780601f10610a7c57610100808354040283529160200191610aa7565b820191906000526020600020905b815481529060010190602001808311610a8a57829003601f168201915b505050505060066000018054610abc906159ed565b80601f0160208091040260200160405190810160405280929190818152602001828054610ae8906159ed565b8015610b355780601f10610b0a57610100808354040283529160200191610b35565b820191906000526020600020905b815481529060010190602001808311610b1857829003601f168201915b5050505050612a79565b610d5e565b6000600660020154148015610b5d575060008160030154145b15610ca357610c9e6040518060800160405280604d8152602001615ce6604d913960066000018054610b8e906159ed565b80601f0160208091040260200160405190810160405280929190818152602001828054610bba906159ed565b8015610c075780601f10610bdc57610100808354040283529160200191610c07565b820191906000526020600020905b815481529060010190602001808311610bea57829003601f168201915b5050505050836001018054610c1b906159ed565b80601f0160208091040260200160405190810160405280929190818152602001828054610c47906159ed565b8015610c945780601f10610c6957610100808354040283529160200191610c94565b820191906000526020600020905b815481529060010190602001808311610c7757829003601f168201915b5050505050612a79565b610d5d565b610d5c6040518060a0016040528060618152602001615d3360619139600660020154836001018054610cd4906159ed565b80601f0160208091040260200160405190810160405280929190818152602001828054610d00906159ed565b8015610d4d5780601f10610d2257610100808354040283529160200191610d4d565b820191906000526020600020905b815481529060010190602001808311610d3057829003601f168201915b50505050508460030154612b18565b5b5b5b7f838ab28464562786a6c4ab2311964b82fa60bd9b14aa7e856af1f3f18d41a4146006600201548260030154604051610d999291906156d2565b60405180910390a15050565b610dad613b82565b60066040518060a0016040529081600082018054610dca906159ed565b80601f0160208091040260200160405190810160405280929190818152602001828054610df6906159ed565b8015610e435780601f10610e1857610100808354040283529160200191610e43565b820191906000526020600020905b815481529060010190602001808311610e2657829003601f168201915b50505050508152602001600182018054610e5c906159ed565b80601f0160208091040260200160405190810160405280929190818152602001828054610e88906159ed565b8015610ed55780601f10610eaa57610100808354040283529160200191610ed5565b820191906000526020600020905b815481529060010190602001808311610eb857829003601f168201915b505050505081526020016002820154815260200160038201548152602001600482015481525050905090565b606060008054610f10906159ed565b80601f0160208091040260200160405190810160405280929190818152602001828054610f3c906159ed565b8015610f895780601f10610f5e57610100808354040283529160200191610f89565b820191906000526020600020905b815481529060010190602001808311610f6c57829003601f168201915b5050505050905090565b6000610f9e82612bba565b610fdd576040517f08c379a0000000000000000000000000000000000000000000000000000000008152600401610fd490615558565b60405180910390fd5b6004600083815260200190815260200160002060009054906101000a900473ffffffffffffffffffffffffffffffffffffffff169050919050565b600061102382611b0e565b90508073ffffffffffffffffffffffffffffffffffffffff168373ffffffffffffffffffffffffffffffffffffffff161415611094576040517f08c379a000000000000000000000000000000000000000000000000000000000815260040161108b90615598565b60405180910390fd5b8073ffffffffffffffffffffffffffffffffffffffff166110b3612c26565b73ffffffffffffffffffffffffffffffffffffffff1614806110e257506110e1816110dc612c26565b61278b565b5b611121576040517f08c379a0000000000000000000000000000000000000000000000000000000008152600401611118906154d8565b60405180910390fd5b61112b8383612c2e565b505050565b60606000601160008473ffffffffffffffffffffffffffffffffffffffff1673ffffffffffffffffffffffffffffffffffffffff1681526020019081526020016000205467ffffffffffffffff8111156111b3577f4e487b7100000000000000000000000000000000000000000000000000000000600052604160045260246000fd5b6040519080825280602002602001820160405280156111e15781602001602082028036833780820191505090505b509050600080600190505b600d8054905081116112c7578473ffffffffffffffffffffffffffffffffffffffff166010600083815260200190815260200160002060009054906101000a900473ffffffffffffffffffffffffffffffffffffffff1673ffffffffffffffffffffffffffffffffffffffff1614156112b45780838381518110611299577f4e487b7100000000000000000000000000000000000000000000000000000000600052603260045260246000fd5b60200260200101818152505081806112b090615a1f565b9250505b80806112bf90615a1f565b9150506111ec565b508192505050919050565b6112e36112dd612c26565b82612ce7565b611322576040517f08c379a0000000000000000000000000000000000000000000000000000000008152600401611319906155b8565b60405180910390fd5b61132d838383612dc5565b505050565b6000151561133f82613021565b151514611381576040517f08c379a0000000000000000000000000000000000000000000000000000000008152600401611378906153d8565b60405180910390fd5b600061138d600b6132d9565b905061139933826132e7565b604051806101200160405280838152602001600c84815481106113e5577f4e487b7100000000000000000000000000000000000000000000000000000000600052603260045260246000fd5b90600052602060002090600902016001018054611401906159ed565b80601f016020809104026020016040519081016040528092919081815260200182805461142d906159ed565b801561147a5780601f1061144f5761010080835404028352916020019161147a565b820191906000526020600020905b81548152906001019060200180831161145d57829003601f168201915b50505050508152602001600c84815481106114be577f4e487b7100000000000000000000000000000000000000000000000000000000600052603260045260246000fd5b906000526020600020906009020160020180546114da906159ed565b80601f0160208091040260200160405190810160405280929190818152602001828054611506906159ed565b80156115535780601f1061152857610100808354040283529160200191611553565b820191906000526020600020905b81548152906001019060200180831161153657829003601f168201915b50505050508152602001600c8481548110611597577f4e487b7100000000000000000000000000000000000000000000000000000000600052603260045260246000fd5b9060005260206000209060090201600301548152602001600c84815481106115e8577f4e487b7100000000000000000000000000000000000000000000000000000000600052603260045260246000fd5b9060005260206000209060090201600401548152602001600c8481548110611639577f4e487b7100000000000000000000000000000000000000000000000000000000600052603260045260246000fd5b9060005260206000209060090201600501548152602001600c848154811061168a577f4e487b7100000000000000000000000000000000000000000000000000000000600052603260045260246000fd5b9060005260206000209060090201600601548152602001600c84815481106116db577f4e487b7100000000000000000000000000000000000000000000000000000000600052603260045260246000fd5b9060005260206000209060090201600701548152602001600c848154811061172c577f4e487b7100000000000000000000000000000000000000000000000000000000600052603260045260246000fd5b906000526020600020906009020160080154815250600f600083815260200190815260200160002060008201518160000155602082015181600101908051906020019061177a929190613bb1565b506040820151816002019080519060200190611797929190613bb1565b50606082015181600301556080820151816004015560a0820151816005015560c0820151816006015560e0820151816007015561010082015181600801559050506118ce6040518060600160405280602c8152602001615c26602c913982600c858154811061182f577f4e487b7100000000000000000000000000000000000000000000000000000000600052603260045260246000fd5b9060005260206000209060090201600101805461184b906159ed565b80601f0160208091040260200160405190810160405280929190818152602001828054611877906159ed565b80156118c45780601f10611899576101008083540402835291602001916118c4565b820191906000526020600020905b8154815290600101906020018083116118a757829003601f168201915b5050505050613305565b336010600083815260200190815260200160002060006101000a81548173ffffffffffffffffffffffffffffffffffffffff021916908373ffffffffffffffffffffffffffffffffffffffff1602179055506119736001601160003373ffffffffffffffffffffffffffffffffffffffff1673ffffffffffffffffffffffffffffffffffffffff168152602001908152602001600020546133a490919063ffffffff16565b601160003373ffffffffffffffffffffffffffffffffffffffff1673ffffffffffffffffffffffffffffffffffffffff16815260200190815260200160002081905550600d600f60008381526020019081526020016000209080600181540180825580915050600190039060005260206000209060090201600090919091909150600082015481600001556001820181600101908054611a12906159ed565b611a1d929190613c37565b506002820181600201908054611a32906159ed565b611a3d929190613c37565b506003820154816003015560048201548160040155600582015481600501556006820154816006015560078201548160070155600882015481600801555050600e819080600181540180825580915050600190039060005260206000200160009091909190915055611aaf600b612957565b7f9ebada08c3c21c172cc2a10a368461cde692195ac0db54584007867b48b68b1b338284604051611ae293929190615123565b60405180910390a15050565b611b0983838360405180602001604052806000815250612150565b505050565b6000806002600084815260200190815260200160002060009054906101000a900473ffffffffffffffffffffffffffffffffffffffff169050600073ffffffffffffffffffffffffffffffffffffffff168173ffffffffffffffffffffffffffffffffffffffff161415611bb7576040517f08c379a0000000000000000000000000000000000000000000000000000000008152600401611bae90615518565b60405180910390fd5b80915050919050565b60008073ffffffffffffffffffffffffffffffffffffffff168273ffffffffffffffffffffffffffffffffffffffff161415611c31576040517f08c379a0000000000000000000000000000000000000000000000000000000008152600401611c28906154f8565b60405180910390fd5b600360008373ffffffffffffffffffffffffffffffffffffffff1673ffffffffffffffffffffffffffffffffffffffff168152602001908152602001600020549050919050565b60106020528060005260406000206000915054906101000a900473ffffffffffffffffffffffffffffffffffffffff1681565b606060018054611cba906159ed565b80601f0160208091040260200160405190810160405280929190818152602001828054611ce6906159ed565b8015611d335780601f10611d0857610100808354040283529160200191611d33565b820191906000526020600020905b815481529060010190602001808311611d1657829003601f168201915b5050505050905090565b600f602052806000526040600020600091509050806000015490806001018054611d66906159ed565b80601f0160208091040260200160405190810160405280929190818152602001828054611d92906159ed565b8015611ddf5780601f10611db457610100808354040283529160200191611ddf565b820191906000526020600020905b815481529060010190602001808311611dc257829003601f168201915b505050505090806002018054611df4906159ed565b80601f0160208091040260200160405190810160405280929190818152602001828054611e20906159ed565b8015611e6d5780601f10611e4257610100808354040283529160200191611e6d565b820191906000526020600020905b815481529060010190602001808311611e5057829003601f168201915b5050505050908060030154908060040154908060050154908060060154908060070154908060080154905089565b611ea3612c26565b73ffffffffffffffffffffffffffffffffffffffff168273ffffffffffffffffffffffffffffffffffffffff161415611f11576040517f08c379a0000000000000000000000000000000000000000000000000000000008152600401611f0890615498565b60405180910390fd5b8060056000611f1e612c26565b73ffffffffffffffffffffffffffffffffffffffff1673ffffffffffffffffffffffffffffffffffffffff16815260200190815260200160002060008473ffffffffffffffffffffffffffffffffffffffff1673ffffffffffffffffffffffffffffffffffffffff16815260200190815260200160002060006101000a81548160ff0219169083151502179055508173ffffffffffffffffffffffffffffffffffffffff16611fcb612c26565b73ffffffffffffffffffffffffffffffffffffffff167f17307eab39ab6107e8899845ad3d59bd9653f200f220920489ca2b5937696c3183604051612010919061519e565b60405180910390a35050565b600680600001805461202d906159ed565b80601f0160208091040260200160405190810160405280929190818152602001828054612059906159ed565b80156120a65780601f1061207b576101008083540402835291602001916120a6565b820191906000526020600020905b81548152906001019060200180831161208957829003601f168201915b5050505050908060010180546120bb906159ed565b80601f01602080910402602001604051908101604052809291908181526020018280546120e7906159ed565b80156121345780601f1061210957610100808354040283529160200191612134565b820191906000526020600020905b81548152906001019060200180831161211757829003601f168201915b5050505050908060020154908060030154908060040154905085565b61216161215b612c26565b83612ce7565b6121a0576040517f08c379a0000000000000000000000000000000000000000000000000000000008152600401612197906155b8565b60405180910390fd5b6121ac848484846133ba565b50505050565b6060600c805480602002602001604051908101604052809291908181526020016000905b8282101561237357838290600052602060002090600902016040518061012001604052908160008201548152602001600182018054612214906159ed565b80601f0160208091040260200160405190810160405280929190818152602001828054612240906159ed565b801561228d5780601f106122625761010080835404028352916020019161228d565b820191906000526020600020905b81548152906001019060200180831161227057829003601f168201915b505050505081526020016002820180546122a6906159ed565b80601f01602080910402602001604051908101604052809291908181526020018280546122d2906159ed565b801561231f5780601f106122f45761010080835404028352916020019161231f565b820191906000526020600020905b81548152906001019060200180831161230257829003601f168201915b505050505081526020016003820154815260200160048201548152602001600582015481526020016006820154815260200160078201548152602001600882015481525050815260200190600101906121d6565b50505050905090565b60606000600f600084815260200190815260200160002060405180610120016040529081600082015481526020016001820180546123b9906159ed565b80601f01602080910402602001604051908101604052809291908181526020018280546123e5906159ed565b80156124325780601f1061240757610100808354040283529160200191612432565b820191906000526020600020905b81548152906001019060200180831161241557829003601f168201915b5050505050815260200160028201805461244b906159ed565b80601f0160208091040260200160405190810160405280929190818152602001828054612477906159ed565b80156124c45780601f10612499576101008083540402835291602001916124c4565b820191906000526020600020905b8154815290600101906020018083116124a757829003601f168201915b5050505050815260200160038201548152602001600482015481526020016005820154815260200160068201548152602001600782015481526020016008820154815250509050600061251a8260600151613416565b9050600061252b8360800151613416565b9050600061253c8460a00151613416565b9050600061254d8560c00151613416565b9050600061255e8660e00151613416565b90506000612570876101000151613416565b905060006125bc88602001516125858c613416565b8a604001518a8a8a8a8a8a6040516020016125a899989796959493929190614f76565b6040516020818303038152906040526135c3565b90506000816040516020016125d1919061509a565b6040516020818303038152906040529050809950505050505050505050919050565b6125fb613cc4565b600f60008381526020019081526020016000206040518061012001604052908160008201548152602001600182018054612634906159ed565b80601f0160208091040260200160405190810160405280929190818152602001828054612660906159ed565b80156126ad5780601f10612682576101008083540402835291602001916126ad565b820191906000526020600020905b81548152906001019060200180831161269057829003601f168201915b505050505081526020016002820180546126c6906159ed565b80601f01602080910402602001604051908101604052809291908181526020018280546126f2906159ed565b801561273f5780601f106127145761010080835404028352916020019161273f565b820191906000526020600020905b81548152906001019060200180831161272257829003601f168201915b5050505050815260200160038201548152602001600482015481526020016005820154815260200160068201548152602001600782015481526020016008820154815250509050919050565b6000600560008473ffffffffffffffffffffffffffffffffffffffff1673ffffffffffffffffffffffffffffffffffffffff16815260200190815260200160002060008373ffffffffffffffffffffffffffffffffffffffff1673ffffffffffffffffffffffffffffffffffffffff16815260200190815260200160002060009054906101000a900460ff16905092915050565b6128b58160405160240161283391906151b9565b6040516020818303038152906040527f41304fac000000000000000000000000000000000000000000000000000000007bffffffffffffffffffffffffffffffffffffffffffffffffffffffff19166020820180517bffffffffffffffffffffffffffffffffffffffffffffffffffffffff8381831617835250505050613781565b50565b6129528383836040516024016128d093929190615227565b6040516020818303038152906040527ff362ca59000000000000000000000000000000000000000000000000000000007bffffffffffffffffffffffffffffffffffffffffffffffffffffffff19166020820180517bffffffffffffffffffffffffffffffffffffffffffffffffffffffff8381831617835250505050613781565b505050565b6001816000016000828254019250508190555050565b60007f01ffc9a7000000000000000000000000000000000000000000000000000000007bffffffffffffffffffffffffffffffffffffffffffffffffffffffff1916827bffffffffffffffffffffffffffffffffffffffffffffffffffffffff1916149050919050565b612a73848484846040516024016129f1949392919061526c565b6040516020818303038152906040527fd5cf17d0000000000000000000000000000000000000000000000000000000007bffffffffffffffffffffffffffffffffffffffffffffffffffffffff19166020820180517bffffffffffffffffffffffffffffffffffffffffffffffffffffffff8381831617835250505050613781565b50505050565b612b13838383604051602401612a91939291906151db565b6040516020818303038152906040527f2ced7cef000000000000000000000000000000000000000000000000000000007bffffffffffffffffffffffffffffffffffffffffffffffffffffffff19166020820180517bffffffffffffffffffffffffffffffffffffffffffffffffffffffff8381831617835250505050613781565b505050565b612bb484848484604051602401612b329493929190615365565b6040516020818303038152906040527fa0c4b225000000000000000000000000000000000000000000000000000000007bffffffffffffffffffffffffffffffffffffffffffffffffffffffff19166020820180517bffffffffffffffffffffffffffffffffffffffffffffffffffffffff8381831617835250505050613781565b50505050565b60008073ffffffffffffffffffffffffffffffffffffffff166002600084815260200190815260200160002060009054906101000a900473ffffffffffffffffffffffffffffffffffffffff1673ffffffffffffffffffffffffffffffffffffffff1614159050919050565b600033905090565b816004600083815260200190815260200160002060006101000a81548173ffffffffffffffffffffffffffffffffffffffff021916908373ffffffffffffffffffffffffffffffffffffffff160217905550808273ffffffffffffffffffffffffffffffffffffffff16612ca183611b0e565b73ffffffffffffffffffffffffffffffffffffffff167f8c5be1e5ebec7d5bd14f71427d1e84f3dd0314c0f7b2291e5b200ac8c7c3b92560405160405180910390a45050565b6000612cf282612bba565b612d31576040517f08c379a0000000000000000000000000000000000000000000000000000000008152600401612d28906154b8565b60405180910390fd5b6000612d3c83611b0e565b90508073ffffffffffffffffffffffffffffffffffffffff168473ffffffffffffffffffffffffffffffffffffffff161480612dab57508373ffffffffffffffffffffffffffffffffffffffff16612d9384610f93565b73ffffffffffffffffffffffffffffffffffffffff16145b80612dbc5750612dbb818561278b565b5b91505092915050565b8273ffffffffffffffffffffffffffffffffffffffff16612de582611b0e565b73ffffffffffffffffffffffffffffffffffffffff1614612e3b576040517f08c379a0000000000000000000000000000000000000000000000000000000008152600401612e3290615578565b60405180910390fd5b600073ffffffffffffffffffffffffffffffffffffffff168273ffffffffffffffffffffffffffffffffffffffff161415612eab576040517f08c379a0000000000000000000000000000000000000000000000000000000008152600401612ea290615478565b60405180910390fd5b612eb68383836137aa565b612ec1600082612c2e565b6001600360008573ffffffffffffffffffffffffffffffffffffffff1673ffffffffffffffffffffffffffffffffffffffff1681526020019081526020016000206000828254612f119190615903565b925050819055506001600360008473ffffffffffffffffffffffffffffffffffffffff1673ffffffffffffffffffffffffffffffffffffffff1681526020019081526020016000206000828254612f689190615822565b92505081905550816002600083815260200190815260200160002060006101000a81548173ffffffffffffffffffffffffffffffffffffffff021916908373ffffffffffffffffffffffffffffffffffffffff160217905550808273ffffffffffffffffffffffffffffffffffffffff168473ffffffffffffffffffffffffffffffffffffffff167fddf252ad1be2c89b69c2b068fc378daa952ba7f163c4a11628f55a4df523b3ef60405160405180910390a4505050565b600080600090506000600e8054905014156130405760009150506132d4565b60005b600e805490508110156132ce576000600e828154811061308c577f4e487b7100000000000000000000000000000000000000000000000000000000600052603260045260246000fd5b906000526020600020015490506000600f600083815260200190815260200160002060405180610120016040529081600082015481526020016001820180546130d4906159ed565b80601f0160208091040260200160405190810160405280929190818152602001828054613100906159ed565b801561314d5780601f106131225761010080835404028352916020019161314d565b820191906000526020600020905b81548152906001019060200180831161313057829003601f168201915b50505050508152602001600282018054613166906159ed565b80601f0160208091040260200160405190810160405280929190818152602001828054613192906159ed565b80156131df5780601f106131b4576101008083540402835291602001916131df565b820191906000526020600020905b8154815290600101906020018083116131c257829003601f168201915b505050505081526020016003820154815260200160048201548152602001600582015481526020016006820154815260200160078201548152602001600882015481525050905060008160000151905060006010600085815260200190815260200160002060009054906101000a900473ffffffffffffffffffffffffffffffffffffffff1690503373ffffffffffffffffffffffffffffffffffffffff168173ffffffffffffffffffffffffffffffffffffffff161480156132a157508782145b156132b35760019550505050506132ce565b600095505050505080806132c690615a1f565b915050613043565b50809150505b919050565b600081600001549050919050565b6133018282604051806020016040528060008152506137af565b5050565b61339f83838360405160240161331d93929190615320565b6040516020818303038152906040527fa3f5c739000000000000000000000000000000000000000000000000000000007bffffffffffffffffffffffffffffffffffffffffffffffffffffffff19166020820180517bffffffffffffffffffffffffffffffffffffffffffffffffffffffff8381831617835250505050613781565b505050565b600081836133b29190615822565b905092915050565b6133c5848484612dc5565b6133d18484848461380a565b613410576040517f08c379a0000000000000000000000000000000000000000000000000000000008152600401613407906153f8565b60405180910390fd5b50505050565b6060600082141561345e576040518060400160405280600181526020017f300000000000000000000000000000000000000000000000000000000000000081525090506135be565b600082905060005b6000821461349057808061347990615a1f565b915050600a826134899190615878565b9150613466565b60008167ffffffffffffffff8111156134d2577f4e487b7100000000000000000000000000000000000000000000000000000000600052604160045260246000fd5b6040519080825280601f01601f1916602001820160405280156135045781602001600182028036833780820191505090505b5090505b600085146135b75760018261351d9190615903565b9150600a8561352c9190615a68565b60306135389190615822565b60f81b818381518110613574577f4e487b7100000000000000000000000000000000000000000000000000000000600052603260045260246000fd5b60200101907effffffffffffffffffffffffffffffffffffffffffffffffffffffffffffff1916908160001a905350600a856135b09190615878565b9450613508565b8093505050505b919050565b606060008251905060008114156135ec576040518060200160405280600081525091505061377c565b600060036002836135fd9190615822565b6136079190615878565b600461361391906158a9565b905060006020826136249190615822565b67ffffffffffffffff811115613663577f4e487b7100000000000000000000000000000000000000000000000000000000600052604160045260246000fd5b6040519080825280601f01601f1916602001820160405280156136955781602001600182028036833780820191505090505b5090506000604051806060016040528060408152602001615c52604091399050600181016020830160005b868110156137395760038101905062ffffff818a015116603f8160121c168401518060081b905060ff603f83600c1c1686015116810190508060081b905060ff603f8360061c1686015116810190508060081b905060ff603f831686015116810190508060e01b905080845260048401935050506136c0565b50600386066001811461375357600281146137635761376e565b613d3d60f01b600283035261376e565b603d60f81b60018303525b508484525050819450505050505b919050565b60008151905060006a636f6e736f6c652e6c6f679050602083016000808483855afa5050505050565b505050565b6137b983836139a1565b6137c6600084848461380a565b613805576040517f08c379a00000000000000000000000000000000000000000000000000000000081526004016137fc906153f8565b60405180910390fd5b505050565b600061382b8473ffffffffffffffffffffffffffffffffffffffff16613b6f565b15613994578373ffffffffffffffffffffffffffffffffffffffff1663150b7a02613854612c26565b8786866040518563ffffffff1660e01b815260040161387694939291906150d7565b602060405180830381600087803b15801561389057600080fd5b505af19250505080156138c157506040513d601f19601f820116820180604052508101906138be9190613fce565b60015b613944573d80600081146138f1576040519150601f19603f3d011682016040523d82523d6000602084013e6138f6565b606091505b5060008151141561393c576040517f08c379a0000000000000000000000000000000000000000000000000000000008152600401613933906153f8565b60405180910390fd5b805181602001fd5b63150b7a0260e01b7bffffffffffffffffffffffffffffffffffffffffffffffffffffffff1916817bffffffffffffffffffffffffffffffffffffffffffffffffffffffff191614915050613999565b600190505b949350505050565b600073ffffffffffffffffffffffffffffffffffffffff168273ffffffffffffffffffffffffffffffffffffffff161415613a11576040517f08c379a0000000000000000000000000000000000000000000000000000000008152600401613a0890615538565b60405180910390fd5b613a1a81612bba565b15613a5a576040517f08c379a0000000000000000000000000000000000000000000000000000000008152600401613a5190615418565b60405180910390fd5b613a66600083836137aa565b6001600360008473ffffffffffffffffffffffffffffffffffffffff1673ffffffffffffffffffffffffffffffffffffffff1681526020019081526020016000206000828254613ab69190615822565b92505081905550816002600083815260200190815260200160002060006101000a81548173ffffffffffffffffffffffffffffffffffffffff021916908373ffffffffffffffffffffffffffffffffffffffff160217905550808273ffffffffffffffffffffffffffffffffffffffff16600073ffffffffffffffffffffffffffffffffffffffff167fddf252ad1be2c89b69c2b068fc378daa952ba7f163c4a11628f55a4df523b3ef60405160405180910390a45050565b600080823b905060008111915050919050565b6040518060a0016040528060608152602001606081526020016000815260200160008152602001600081525090565b828054613bbd906159ed565b90600052602060002090601f016020900481019282613bdf5760008555613c26565b82601f10613bf857805160ff1916838001178555613c26565b82800160010185558215613c26579182015b82811115613c25578251825591602001919060010190613c0a565b5b509050613c339190613d10565b5090565b828054613c43906159ed565b90600052602060002090601f016020900481019282613c655760008555613cb3565b82601f10613c765780548555613cb3565b82800160010185558215613cb357600052602060002091601f016020900482015b82811115613cb2578254825591600101919060010190613c97565b5b509050613cc09190613d10565b5090565b6040518061012001604052806000815260200160608152602001606081526020016000815260200160008152602001600081526020016000815260200160008152602001600081525090565b5b80821115613d29576000816000905550600101613d11565b5090565b6000613d40613d3b8461572c565b6156fb565b905082815260208101848484011115613d5857600080fd5b613d638482856159ab565b509392505050565b600081359050613d7a81615b66565b92915050565b600081359050613d8f81615b7d565b92915050565b600081359050613da481615b94565b92915050565b600081519050613db981615b94565b92915050565b600082601f830112613dd057600080fd5b8135613de0848260208601613d2d565b91505092915050565b600081359050613df881615bab565b92915050565b600060208284031215613e1057600080fd5b6000613e1e84828501613d6b565b91505092915050565b60008060408385031215613e3a57600080fd5b6000613e4885828601613d6b565b9250506020613e5985828601613d6b565b9150509250929050565b600080600060608486031215613e7857600080fd5b6000613e8686828701613d6b565b9350506020613e9786828701613d6b565b9250506040613ea886828701613de9565b9150509250925092565b60008060008060808587031215613ec857600080fd5b6000613ed687828801613d6b565b9450506020613ee787828801613d6b565b9350506040613ef887828801613de9565b925050606085013567ffffffffffffffff811115613f1557600080fd5b613f2187828801613dbf565b91505092959194509250565b60008060408385031215613f4057600080fd5b6000613f4e85828601613d6b565b9250506020613f5f85828601613d80565b9150509250929050565b60008060408385031215613f7c57600080fd5b6000613f8a85828601613d6b565b9250506020613f9b85828601613de9565b9150509250929050565b600060208284031215613fb757600080fd5b6000613fc584828501613d95565b91505092915050565b600060208284031215613fe057600080fd5b6000613fee84828501613daa565b91505092915050565b60006020828403121561400957600080fd5b600061401784828501613de9565b91505092915050565b600061402c8383614dc0565b905092915050565b60006140408383614f58565b60208301905092915050565b61405581615937565b82525050565b60006140668261577c565b61407081856157c2565b9350836020820285016140828561575c565b8060005b858110156140be578484038952815161409f8582614020565b94506140aa836157a8565b925060208a01995050600181019050614086565b50829750879550505050505092915050565b60006140db82615787565b6140e581856157d3565b93506140f08361576c565b8060005b838110156141215781516141088882614034565b9750614113836157b5565b9250506001810190506140f4565b5085935050505092915050565b61413781615949565b82525050565b600061414882615792565b61415281856157e4565b93506141628185602086016159ba565b61416b81615b55565b840191505092915050565b60006141818261579d565b61418b81856157f5565b935061419b8185602086016159ba565b6141a481615b55565b840191505092915050565b60006141ba8261579d565b6141c48185615806565b93506141d48185602086016159ba565b6141dd81615b55565b840191505092915050565b60006141f38261579d565b6141fd8185615817565b935061420d8185602086016159ba565b80840191505092915050565b6000614226600283615817565b91507f7d2c0000000000000000000000000000000000000000000000000000000000006000830152600282019050919050565b6000614266600b83615817565b91507f202d2d204e465420233a200000000000000000000000000000000000000000006000830152600b82019050919050565b60006142a6602283615806565b91507f4572726f723a2063686172616374657220686173206e6f2048502e20522e492e60008301527f502e0000000000000000000000000000000000000000000000000000000000006020830152604082019050919050565b600061430c600d83615817565b91507f2c226d61785f76616c7565223a000000000000000000000000000000000000006000830152600d82019050919050565b600061434c600983615817565b91507f7b226e616d65223a2200000000000000000000000000000000000000000000006000830152600982019050919050565b600061438c602783615806565b91507f596f75206861766520616c7265616479206d696e74656420746869732063686160008301527f7261637465722e000000000000000000000000000000000000000000000000006020830152604082019050919050565b60006143f2603283615806565b91507f4552433732313a207472616e7366657220746f206e6f6e20455243373231526560008301527f63656976657220696d706c656d656e74657200000000000000000000000000006020830152604082019050919050565b6000614458602683615817565b91507f7b2274726169745f74797065223a2241747461636b2044616d616765222c227660008301527f616c7565223a00000000000000000000000000000000000000000000000000006020830152602682019050919050565b60006144be600283615817565b91507f222c0000000000000000000000000000000000000000000000000000000000006000830152600282019050919050565b60006144fe601c83615806565b91507f4552433732313a20746f6b656e20616c7265616479206d696e746564000000006000830152602082019050919050565b600061453e602183615817565b91507f7b2274726169745f74797065223a2244617973204f6666222c2276616c75652260008301527f3a000000000000000000000000000000000000000000000000000000000000006020830152602182019050919050565b60006145a4605083615806565b91507f4572726f723a204c6f6f6b73206c696b65207468652062696720626f7373206960008301527f73206f757420666f7220676f6f642e2048616e6720796f75722068617420616e60208301527f64206869742074686520626561636821000000000000000000000000000000006040830152606082019050919050565b6000614630602683615806565b91507f4f6e6c7920746865206f776e6572206f662074686973204e46542063616e207560008301527f73652069742e00000000000000000000000000000000000000000000000000006020830152604082019050919050565b6000614696602483615806565b91507f4552433732313a207472616e7366657220746f20746865207a65726f2061646460008301527f72657373000000000000000000000000000000000000000000000000000000006020830152604082019050919050565b60006146fc601983615806565b91507f4552433732313a20617070726f766520746f2063616c6c6572000000000000006000830152602082019050919050565b600061473c602883615817565b91507f7d2c7b2274726169745f74797065223a2022506f77657220466163746f72222c60008301527f2276616c7565223a0000000000000000000000000000000000000000000000006020830152602882019050919050565b60006147a2602583615817565b91507f7d2c7b2274726169745f74797065223a224c756e636820486f7572222c22766160008301527f6c7565223a0000000000000000000000000000000000000000000000000000006020830152602582019050919050565b6000614808602c83615806565b91507f4552433732313a206f70657261746f7220717565727920666f72206e6f6e657860008301527f697374656e7420746f6b656e00000000000000000000000000000000000000006020830152604082019050919050565b600061486e607a83615817565b91507f226465736372697074696f6e223a224a6f696e205465616d20416d657269636160008301527f20616e6420736176652074686520776f726c642120426174746c65207468652060208301527f66696572636520626f737320616e6420676574206e6f7468696e6720666f722060408301527f69742c206d617962652061207468756d62732075702e2e2e222c0000000000006060830152607a82019050919050565b6000614920603883615806565b91507f4552433732313a20617070726f76652063616c6c6572206973206e6f74206f7760008301527f6e6572206e6f7220617070726f76656420666f7220616c6c00000000000000006020830152604082019050919050565b6000614986602a83615806565b91507f4552433732313a2062616c616e636520717565727920666f7220746865207a6560008301527f726f2061646472657373000000000000000000000000000000000000000000006020830152604082019050919050565b60006149ec602983615806565b91507f4552433732313a206f776e657220717565727920666f72206e6f6e657869737460008301527f656e7420746f6b656e00000000000000000000000000000000000000000000006020830152604082019050919050565b6000614a52600983615817565b91507f22696d616765223a2200000000000000000000000000000000000000000000006000830152600982019050919050565b6000614a92602083615806565b91507f4552433732313a206d696e7420746f20746865207a65726f20616464726573736000830152602082019050919050565b6000614ad2600383615817565b91507f7d5d7d00000000000000000000000000000000000000000000000000000000006000830152600382019050919050565b6000614b12602c83615806565b91507f4552433732313a20617070726f76656420717565727920666f72206e6f6e657860008301527f697374656e7420746f6b656e00000000000000000000000000000000000000006020830152604082019050919050565b6000614b78602983615806565b91507f4552433732313a207472616e73666572206f6620746f6b656e2074686174206960008301527f73206e6f74206f776e00000000000000000000000000000000000000000000006020830152604082019050919050565b6000614bde602183615806565b91507f4552433732313a20617070726f76616c20746f2063757272656e74206f776e6560008301527f72000000000000000000000000000000000000000000000000000000000000006020830152604082019050919050565b6000614c44601d83615817565b91507f646174613a6170706c69636174696f6e2f6a736f6e3b6261736536342c0000006000830152601d82019050919050565b6000614c84603583615817565b91507f2261747472696275746573223a5b7b2274726169745f74797065223a2248656160008301527f6c746820506f696e7473222c202276616c7565223a00000000000000000000006020830152603582019050919050565b6000614cea603183615806565b91507f4552433732313a207472616e736665722063616c6c6572206973206e6f74206f60008301527f776e6572206e6f7220617070726f7665640000000000000000000000000000006020830152604082019050919050565b600060a0830160008301518482036000860152614d608282614176565b91505060208301518482036020860152614d7a8282614176565b9150506040830151614d8f6040860182614f58565b506060830151614da26060860182614f58565b506080830151614db56080860182614f58565b508091505092915050565b600061012083016000830151614dd96000860182614f58565b5060208301518482036020860152614df18282614176565b91505060408301518482036040860152614e0b8282614176565b9150506060830151614e206060860182614f58565b506080830151614e336080860182614f58565b5060a0830151614e4660a0860182614f58565b5060c0830151614e5960c0860182614f58565b5060e0830151614e6c60e0860182614f58565b50610100830151614e81610100860182614f58565b508091505092915050565b600061012083016000830151614ea56000860182614f58565b5060208301518482036020860152614ebd8282614176565b91505060408301518482036040860152614ed78282614176565b9150506060830151614eec6060860182614f58565b506080830151614eff6080860182614f58565b5060a0830151614f1260a0860182614f58565b5060c0830151614f2560c0860182614f58565b5060e0830151614f3860e0860182614f58565b50610100830151614f4d610100860182614f58565b508091505092915050565b614f61816159a1565b82525050565b614f70816159a1565b82525050565b6000614f818261433f565b9150614f8d828c6141e8565b9150614f9882614259565b9150614fa4828b6141e8565b9150614faf826144b1565b9150614fba82614861565b9150614fc582614a45565b9150614fd1828a6141e8565b9150614fdc826144b1565b9150614fe782614c77565b9150614ff382896141e8565b9150614ffe826142ff565b915061500a82886141e8565b915061501582614219565b91506150208261444b565b915061502c82876141e8565b91506150378261472f565b915061504382866141e8565b915061504e82614219565b915061505982614531565b915061506582856141e8565b915061507082614795565b915061507c82846141e8565b915061508782614ac5565b91508190509a9950505050505050505050565b60006150a582614c37565b91506150b182846141e8565b915081905092915050565b60006020820190506150d1600083018461404c565b92915050565b60006080820190506150ec600083018761404c565b6150f9602083018661404c565b6151066040830185614f67565b8181036060830152615118818461413d565b905095945050505050565b6000606082019050615138600083018661404c565b6151456020830185614f67565b6151526040830184614f67565b949350505050565b60006020820190508181036000830152615174818461405b565b905092915050565b6000602082019050818103600083015261519681846140d0565b905092915050565b60006020820190506151b3600083018461412e565b92915050565b600060208201905081810360008301526151d381846141af565b905092915050565b600060608201905081810360008301526151f581866141af565b9050818103602083015261520981856141af565b9050818103604083015261521d81846141af565b9050949350505050565b6000606082019050818103600083015261524181866141af565b9050818103602083015261525581856141af565b90506152646040830184614f67565b949350505050565b6000608082019050818103600083015261528681876141af565b9050818103602083015261529a81866141af565b90506152a96040830185614f67565b6152b66060830184614f67565b95945050505050565b600060a08201905081810360008301526152d981886141af565b905081810360208301526152ed81876141af565b90506152fc6040830186614f67565b6153096060830185614f67565b6153166080830184614f67565b9695505050505050565b6000606082019050818103600083015261533a81866141af565b90506153496020830185614f67565b818103604083015261535b81846141af565b9050949350505050565b6000608082019050818103600083015261537f81876141af565b905061538e6020830186614f67565b81810360408301526153a081856141af565b90506153af6060830184614f67565b95945050505050565b600060208201905081810360008301526153d181614299565b9050919050565b600060208201905081810360008301526153f18161437f565b9050919050565b60006020820190508181036000830152615411816143e5565b9050919050565b60006020820190508181036000830152615431816144f1565b9050919050565b6000602082019050818103600083015261545181614597565b9050919050565b6000602082019050818103600083015261547181614623565b9050919050565b6000602082019050818103600083015261549181614689565b9050919050565b600060208201905081810360008301526154b1816146ef565b9050919050565b600060208201905081810360008301526154d1816147fb565b9050919050565b600060208201905081810360008301526154f181614913565b9050919050565b6000602082019050818103600083015261551181614979565b9050919050565b60006020820190508181036000830152615531816149df565b9050919050565b6000602082019050818103600083015261555181614a85565b9050919050565b6000602082019050818103600083015261557181614b05565b9050919050565b6000602082019050818103600083015261559181614b6b565b9050919050565b600060208201905081810360008301526155b181614bd1565b9050919050565b600060208201905081810360008301526155d181614cdd565b9050919050565b600060208201905081810360008301526155f28184614d43565b905092915050565b600060208201905081810360008301526156148184614e8c565b905092915050565b60006020820190506156316000830184614f67565b92915050565b60006101208201905061564d600083018c614f67565b818103602083015261565f818b6141af565b90508181036040830152615673818a6141af565b90506156826060830189614f67565b61568f6080830188614f67565b61569c60a0830187614f67565b6156a960c0830186614f67565b6156b660e0830185614f67565b6156c4610100830184614f67565b9a9950505050505050505050565b60006040820190506156e76000830185614f67565b6156f46020830184614f67565b9392505050565b6000604051905081810181811067ffffffffffffffff8211171561572257615721615b26565b5b8060405250919050565b600067ffffffffffffffff82111561574757615746615b26565b5b601f19601f8301169050602081019050919050565b6000819050602082019050919050565b6000819050602082019050919050565b600081519050919050565b600081519050919050565b600081519050919050565b600081519050919050565b6000602082019050919050565b6000602082019050919050565b600082825260208201905092915050565b600082825260208201905092915050565b600082825260208201905092915050565b600082825260208201905092915050565b600082825260208201905092915050565b600081905092915050565b600061582d826159a1565b9150615838836159a1565b9250827fffffffffffffffffffffffffffffffffffffffffffffffffffffffffffffffff0382111561586d5761586c615a99565b5b828201905092915050565b6000615883826159a1565b915061588e836159a1565b92508261589e5761589d615ac8565b5b828204905092915050565b60006158b4826159a1565b91506158bf836159a1565b9250817fffffffffffffffffffffffffffffffffffffffffffffffffffffffffffffffff04831182151516156158f8576158f7615a99565b5b828202905092915050565b600061590e826159a1565b9150615919836159a1565b92508282101561592c5761592b615a99565b5b828203905092915050565b600061594282615981565b9050919050565b60008115159050919050565b60007fffffffff0000000000000000000000000000000000000000000000000000000082169050919050565b600073ffffffffffffffffffffffffffffffffffffffff82169050919050565b6000819050919050565b82818337600083830152505050565b60005b838110156159d85780820151818401526020810190506159bd565b838111156159e7576000848401525b50505050565b60006002820490506001821680615a0557607f821691505b60208210811415615a1957615a18615af7565b5b50919050565b6000615a2a826159a1565b91507fffffffffffffffffffffffffffffffffffffffffffffffffffffffffffffffff821415615a5d57615a5c615a99565b5b600182019050919050565b6000615a73826159a1565b9150615a7e836159a1565b925082615a8e57615a8d615ac8565b5b828206905092915050565b7f4e487b7100000000000000000000000000000000000000000000000000000000600052601160045260246000fd5b7f4e487b7100000000000000000000000000000000000000000000000000000000600052601260045260246000fd5b7f4e487b7100000000000000000000000000000000000000000000000000000000600052602260045260246000fd5b7f4e487b7100000000000000000000000000000000000000000000000000000000600052604160045260246000fd5b6000601f19601f8301169050919050565b615b6f81615937565b8114615b7a57600080fd5b50565b615b8681615949565b8114615b9157600080fd5b50565b615b9d81615955565b8114615ba857600080fd5b50565b615bb4816159a1565b8114615bbf57600080fd5b5056fe4e4f494345212121202573206a7573742064656665617465642025732e2054686520776f726c64206973207361666520616761696e2e2e2e206f722069732069743f4f4f4621202573206a75737420676f742052454b542062792025732e204747732e4d696e746564204e465420772f20546f6b656e4964202573207573696e67202573206368617261637465722e4142434445464748494a4b4c4d4e4f505152535455565758595a6162636465666768696a6b6c6d6e6f707172737475767778797a303132333435363738392b2f0a506c6179657220772f206368617261637465722025732069732061626f757420746f2061747461636b207769746820257320485020616e642025732041442e200a4772616220736f6d6520706f70636f726e2157686f616f2e2e2e20626f7468206f6620746865736520666f6f6c73206a75737420666c6f6f7265642065616368206f746865722e2047616d65206f76657220666f7220257320616e64202573426174746c6520726573756c74732061726520696e2e2e2e20426f737320485020697320257320616e642025732048502069732025732e200a54686174207761732061206e61696c626974657221204e61682c206e6f74207265616c6c792e2e2e54686520426f73732025732068617320257320485020616e642025732041442e2e2ea2646970667358221220a4e873b636c25ef755373ade2cd51b2b210a00de7dc92211889d88d26b6ca7aa64736f6c6343000800003354686520697320746865205465616d20416d657269636120536c61796572732047616d6521426f737320257320696e697469616c697a656420776974682025732048502e20596f75206265747465722072756e21",
  "linkReferences": {},
  "deployedLinkReferences": {}
}